:020000040800F2
:10000000882E00206D4E00086DAB050859020008CF
:100010002BAC05082FAC050833AC05080000000028
:100020000000000000000000000000009D0100082A
:1000300037AC050800000000F1010008677D0008EA
:10004000874E0008874E0008874E0008874E00083C
:10005000874E0008874E0008874E0008874E00082C
:100060006BAC0508874E0008874E0008874E0008D5
:10007000874E0008874E0008874E0008874E00080C
:10008000874E00080D5E0508874E0008874E000861
:10009000874E0008874E0008874E000839AC0508D7
:1000A000874E0008874E0008874E0008874E0008DC
:1000B0008D7E050869660508874E0008874E000892
:1000C000874E0008874E0008874E0008874E0008BC
:1000D000D5BB0508E5B20508874E000833B305080F
:1000E0003BAC0508874E0008874E0008874E000885
:1000F000874E0008874E0008874E0008874E00088C
:10010000874E00081DA60508874E0008874E000888
:10011000874E0008874E0008874E0008874E00086B
:10012000874E00082F740508874E0008874E000888
:10013000056705086D880508874E0008874E00088A
:10014000874E0008874E0008874E0008874E00083B
:10015000874E0008874E0008874E0008874E00082B
:10016000874E0008874E0008874E0008874E00081B
:10017000874E0008ED99060855730508874E00085C
:10018000874E0008874E0008DFF80CD08AF064FC28
:1001900000480047A1DE0508882E00202B4B196877
:1001A0000868B0E8F04F80F30988BFF36F8F4FF015
:1001B000000080F3118870470000000006480068C6
:1001C000006880F3088862B661B6BFF34F8FBFF353
:1001D0006F8F00DF00BF00BF08ED00E0DFF80C000C
:1001E000016841F470010160704700BF88ED00E0D4
:1001F000EFF30980BFF36F8F144B1A681EF0100FD6
:1002000008BF20ED108A20E9F04F106008B44FF0CD
:10021000100080F31188BFF34F8FBFF36F8F06F08C
:10022000E4F84FF0000080F3118808BC19680868F2
:10023000B0E8F04F1EF0100F08BFB0EC108A80F34A
:100240000988BFF36F8F704700BF00BF34000020E4
:10025000EFF30580704700001EF0040F0CBFEFF3B2
:100260000880EFF309805AF082BC00003249014354
:10027000324A1160704770B5002100230F22C47804
:100280001CB32E4C246804F4E064C4F5E064C4F3A9
:100290000721C1F10404E3B20A4144789C40E1B271
:1002A0008478144021430C07210E254C05786155B4
:1002B000047804F01F050124AC4005786D11AD00F1
:1002C00005F1E025C5F8004109E0047804F01F05B8
:1002D0000124AC401B4D0678761145F8264070BDD0
:1002E000194A0A400243154B1B1F1A60704739B167
:1002F000124A121D12680243104B1B1D1A6006E0C1
:100300000E4A121D126882430C4B1B1D1A60704767
:10031000042808D14FF0E021096941F004014FF0B1
:10032000E022116107E04FF0E021096921F00401AA
:100330004FF0E022116170470000FA050CED00E07B
:1003400000E400E080E100E080FFFF1F01B581B024
:10035000002000900198009002E00098401E00905C
:1003600000980028F9D10CBD10B5FE48006840F097
:100370000070FC4908606420FFF7E8FFF948006856
:1003800020F00070F749086010BD012101600021D4
:1003900041608160C16001614FF480414161002191
:1003A0008161C1614FF4006101620021416281629B
:1003B000C162016341638163C16340210164202103
:1003C000416400218164C164016541658165C16545
:1003D00001668021416600218166C166016741672F
:1003E0008167C1674FF08061C0F880104910C0F884
:1003F00084100021C0F888104FF40011C0F88C1050
:100400000021C0F89010C0F89410C0F89810C0F8FF
:100410009C10C0F8A0104FF00071C0F8A410491251
:10042000C0F8A8108901C0F8AC104912C0F8B0108B
:100430000021C0F8B410C0F8B810704738B50346B2
:100440000C46002100200090C748016901F01C0102
:100450004FF4784000EAC32001434FF4F86000EA0B
:100460008410014341F0020141F00101BE484261A4
:10047000016100BF0098401C0090BB48016901F079
:10048000010018B1B94D0098A842F3D3B74D0098B8
:10049000A84201D1002038BD0120FCE718B5024672
:1004A0000B46002100200090AF48016901F01C01BB
:1004B0004FF4784000EAC22001434FF4F86000EAAC
:1004C0008310014321F0020141F00101A6480161BE
:1004D00000BF0098401C0090A348016901F0010092
:1004E00018B1A24C0098A042F3D3A04C0098A042AF
:1004F00001D1002018BD9C48406980B2FAE72DE97F
:10050000FC4104460F464FF0000800BF0020019058
:1005100000BF00909448056925F01C059449D4F863
:10052000BC0000FB01F69348864205D39248864200
:1005300002D245F008051AE08F48864205D38F485D
:10054000864202D245F00C0511E08C48864203D366
:100550008B48864200D20AE08948864205D3894802
:10056000864202D245F0040501E045F010057E48C0
:1005700005614FF4004200213846FFF75FFF10B9D4
:100580000020BDE8FC818048FFF7E0FE20680028DD
:1005900054D000BF0098401C0090642009F0B6FEC3
:1005A00001213846FFF77AFF00F0040018B96F49BF
:1005B00000988842EED36D490098884201D100200E
:1005C000DFE7002000904FF4805200213846FFF70B
:1005D00035FF08B90020D4E700BF0098401C009008
:1005E000642009F093FE01213846FFF757FF00F021
:1005F000200018B95D4900988842EED35B49009805
:10060000884201D10020BCE7002000901F2138461D
:10061000FFF744FF804608F0100018B14FF4006067
:10062000206201E00020206208F0040010B10020E8
:10063000606116E04FF48040606112E0206AC0F310
:10064000CF006169C1F34F0140EA01020021384641
:10065000FFF7F4FE08B9002093E76FF07F40FFF743
:1006600075FE4148056849480540D4E90101084341
:10067000E16808432169084361690843A1690843A7
:10068000E1690843216A0843616A0843A16A084393
:10069000E16A0843216B0843616B08430543324814
:1006A0000560D4E90E010843216C0843616C0843DE
:1006B000A16C0843E16C0843216D0843616D084358
:1006C00029494860A06D8860E06DC860084685696A
:1006D0004FF641700540B4F86010606E40EA01408A
:1006E000A16E0843E16E0843216F0843616F084320
:1006F00005431D488561D4E91E0108431A49C861B4
:100700002348856923480540D4E920010843D4F8EB
:1007100088100843D4F88C100843D4F8901008438C
:10072000D4F894100843D4F898100843D4F89C10D7
:100730000843D4F8A0100843054315488561D4E95F
:1007400029010843D4F8AC100843D4F8B01008438A
:10075000D4F8B41040EA8100D4F8B810084340F44B
:10076000000019E01038024000800240FFFF040042
:1007700040420F00002D3101C00E16020087930386
:1007800000E1F50580D1F008FFFF0F000F8120FF89
:1007900000900240233FDEF8FE49086008460068EA
:1007A00040F0800008600120EBE630B1F94989692A
:1007B00041F00201F74A916105E0F649896921F0AB
:1007C0000201F44A9161704730B1F249896941F4FC
:1007D0000051F04A916105E0EE49896921F4005128
:1007E000EC4A9161704730B1EB49096841F004016E
:1007F000E94A116005E0E849096821F00401E64A88
:1008000011607047E348806940F48010E1498861D5
:10081000704730B1E049096841F00801DE4A1160D3
:1008200005E0DD49096821F00801DB4A11607047E5
:1008300000B50120FFF7EDFFFFF7E4FF0120FFF710
:10084000D2FF0120FFF7C0FF0120FFF7AEFF00BD80
:100850000020D149896901F0010109B1012000E0BE
:1008600000207047CC48806940F00100CA49886187
:10087000704730B1C849896941F00101C64A9161A8
:1008800005E0C549896921F00101C34A91617047BA
:1008900001460020C04A926B0A400AB1012000E0E4
:1008A0000020704701460020BB4A926B0A400AB103
:1008B000012000E00020704729B1B74AD26B824383
:1008C000B54BDA6304E0B44AD26B0243B24BDA634D
:1008D000704710B50B794C7943EA0422AE4B0344C0
:1008E0001A64CB781B068C7843EA04434C7843EABD
:1008F00004230C7843EA0402A74B03445A6410BD56
:100900000246A54B1344186C030A4B710871A24BA5
:100910001344586C030ECB70030C8B70030A4B709E
:100920000870704741B19C4A0244126C42F0004288
:10093000994B03441A6407E0974A0244126C22F070
:100940000042954B03441A647047082908D0924A24
:100950000244126C42F080428F4B03441A6407E059
:100960008D4A0244126C22F080428B4B03441A647D
:100970007047894A0244126C22F07C52864B034431
:100980001A64854A0244126C0A43834B03441A6476
:1009900070471EB5002100220092019202927F4A08
:1009A00012681268C2F30D42111F00917C4A12684E
:1009B0009268012A05D97A4A1268126892680192EF
:1009C00003E0764A126892680192744A12680292B1
:1009D000724A1268D268714B1A609DE81C0080E868
:1009E0001C001EBD0FB500210191029103910091E1
:1009F0006FE00099491C009168490968096801F491
:100A00000071A1B165490968096801F4807171B983
:100A100062490968624A126811600121604A1268DD
:100A200091605E490968C9685C4A116051E05B49A0
:100A30000968096801F4807191B958490968096821
:100A400001F4007161B9564909688968491C544A22
:100A50001268916051490968C968504A116038E0CC
:100A60004E4909684E4A126851604D4909688968C3
:100A7000491C4B4A126891604949096889680129F3
:100A800004D146490968464A126811604349096819
:100A90000968C1F30D41091F01914149096889683D
:100AA000012905D93E49096809688968029103E06E
:100AB0003A490968896802913849096803913749B8
:100AC0000968C968354A116001A90EC980E80E009D
:100AD0000FBD32490968096801F0004111B9009958
:100AE000022986D301A90EC980E80E0000BFEFE7F6
:100AF00070B502460023002500242A4800680068DB
:100B000000F0004008B1002070BD2648016840F2A6
:100B1000F450824208DD92FBF0F392FBF0F600FB0A
:100B2000162010B15B1C00E00123012B1AD11D48D7
:100B30000068006840F040501A4E36683060C2F3DA
:100B40000C00184E3668706016480068006840F067
:100B50000040144E3668306012480068C068114E7C
:100B6000306034E000242EE03CB90E480068006894
:100B700040F080500B4E3668306040F2F4504860D0
:100B8000581EA04219D1086840F000500860581E55
:100B90000AE00000009002400080024004000020B3
:100BA0000800002000000020C0EBC01000EB400057
:100BB000A2EB8005C5F30C004860086840F00040D7
:100BC0000860C968641C9C42CED3F9480160F948AA
:100BD000406900F0040020B10420F64E706100204E
:100BE0007060012090E770B50C4613460021F24D6D
:100BF000286000BF18E000EB41124FF0004515607F
:100C000044F2F4555560C1EBC11505EB450504EB05
:100C1000850595605D1E8D4204D900EB4115203598
:100C2000D56000E0D060491C9942E4D3E14DE86012
:100C3000E24DE34E356070BDDF480068006800F0AB
:100C4000004098B9DC480068006800F4807068B122
:100C5000D9480068DA4909684860D948006880685E
:100C6000401CD7490968886001207047D248006855
:100C7000006800F00040F0B9CF480068006800F458
:100C80000070C0B1CC480068006800F4807090B972
:100C9000C9480068CA49096808600020C84909684D
:100CA00048600120C64909688860C3480068C06878
:100CB000C14908601DE0C0480068006800F00040BD
:100CC000B8B9BD480068006800F4007088B9BA4837
:100CD0000068006800F4807058B9B94800688068FE
:100CE000401CB74909688860B3480068C068B249C9
:100CF00008600020B9E730B50C4613460021AC4D22
:100D0000286000BF15E000EB41124FF4801515601C
:100D1000C1EBC11505EB450504EB850595605D1E2E
:100D20008D4204D900EB41152035D56000E0D0603C
:100D3000491C9942E7D39F4D286130BD02460020EF
:100D400013680B400BB1012000E000207047014602
:100D50000868C0F3C3007047016841F000410160BA
:100D6000704721B1026842F08042026003E00268ED
:100D700022F080420260704702680A4302607047B6
:100D800002680A430260704721B1026822F00062E3
:100D9000026003E0026842F000620260704721B125
:100DA000026842F48012026003E0026822F48012BA
:100DB0000260704721B1026822F08062026003E0A5
:100DC000026842F080620260704710B541EA024456
:100DD00043682343436010BD0246002013680B4064
:100DE0000BB1012000E0002070470246002013698B
:100DF0000B400BB1012000E000207047016841F07A
:100E000000410160704701460868C0F30D4070471B
:100E100021B1426822F00042426003E0426842F0A1
:100E2000004242607047024619B15068C0F30C405E
:100E300070479088C0F30C00FAE700B50246002323
:100E4000106800F0004058B9106800F4004038B94C
:100E5000106800F4807018B11046FFF7D4FF034605
:100E6000184600BD30B15349096841F08001514A2C
:100E7000116005E04F49096821F080014D4A116079
:100E800070474C48006840F001004A4908607047CC
:100E900000204849096801F0010109B1012000E082
:100EA0000020704701460020424A52690A400AB1B8
:100EB000012000E0002070473E494861704729B199
:100EC0003C4AD26902433B4BDA6104E0394AD269B9
:100ED0008243384BDA61704701460020354A526937
:100EE0000A400AB1012000E0002070473149486102
:100EF00070473048406900F0010070472D48406954
:100F000000F04000704700202A49896901F48011EF
:100F100009B1012000E00020704701460020254A69
:100F2000126A0A400AB1012000E0002070472148FF
:100F3000006AC0F34A4070471E48006A80B270479A
:100F40001C48806C70471B48C06C70471948006D86
:100F500070471848406D7047002016494860704738
:100F6000002014498860704712494862704770B584
:100F700006460D46002400213046FFF78FFA04464E
:100F800015B144F4804402E04BF6FF700440224661
:100F900000213046FFF752FA08B1012070BD002051
:100FA000FCE70848C06A40F000400649C862704744
:100FB0000000002000900240040000208007002074
:100FC00008000020008002400146002000BF04E02D
:100FD00051F82020744B9A62401C0828F8D37047BF
:100FE00030B17149C96A41F400716F4AD16205E0BC
:100FF0006D49C96A21F400716B4AD162704701469C
:101000000020694AD26A0A400AB1012000E00020AB
:10101000704730B16449C96A41F00401624AD16243
:1010200005E06149C96A21F004015F4AD162704755
:1010300030B15D49C96A41F002015B4AD16205E005
:101040005949C96A21F00201574AD162704730B14B
:101050005549C96A41F00101534AD16205E052493C
:10106000C96A21F00101504AD16270474F480068B7
:1010700040F030004C49C1F8000170474B4800680F
:1010800020F020004849C1F800010846D0F80001CE
:1010900040F01000C1F80001704738B143490968B9
:1010A00041F00801404AC2F8001106E03F490968D2
:1010B00021F008013C4AC2F80011704738B13B49A1
:1010C000096841F00401384AC2F8001106E03749C6
:1010D000096821F00401344AC2F80011704738B1A0
:1010E0003249096821F002012F4AC2F8001106E0D6
:1010F0002E49096841F002012B4AC2F800117047DD
:101100002A48006840F001002749C1F800017047F3
:1011100000F0805292B120F0805039B1234A0C3255
:1011200012688243204BC3F80C2117E01F4A0C328F
:10113000126802431C4BC3F80C210FE039B11B4A63
:10114000103212688243184BC3F8102106E0174A88
:10115000103212680243144BC3F810217047014645
:10116000002001F080526AB1104A121D12680A4034
:1011700032B10E4A0C3212680A400AB901200EE060
:1011800000200CE0094A083212680A4032B1074ACE
:101190000C3212680A400AB9012000E000207047B2
:1011A0000146014808587047008002400081024013
:1011B00010B50121080201F047FA00214FF48070B8
:1011C00001F042FA10BD30B50246002000235068FD
:1011D000FB4C20400D790C6844EA05242043506004
:1011E0009068F84C2040D1E903542C438D682C437F
:1011F0004D7944EA450420439060D06A20F47000A1
:101200000C7D641EE4B2234340EA0350D06230BD3B
:1012100000210160017141718160C16001610121A2
:10122000017570470021E84A1168E84A1140D0E989
:1012300000231A4383681A43C3681A431143E44ADC
:10124000C2F8041370470021016041608160C160F1
:10125000704721B1826842F00102826003E0826837
:1012600022F00102826070470A4600214168D94B92
:1012700019401143416070474162826270470A46DB
:101280000021416821F01F0111434160704738B1CE
:10129000CD49096841F40001CD4AC2F8041306E0C3
:1012A000C949096821F40001C94AC2F8041370470A
:1012B00038B1C549096841F48001C54AC2F8041330
:1012C00006E0C149096821F48001C14AC2F804134B
:1012D0007047F0B504460D4600200021092D11DDB0
:1012E000E068A5F10A0606EB4607072606FA07F1AD
:1012F0008843A5F10A0606EB460603FA06F1084301
:10130000E0600CE0206905EB4507072606FA07F1C7
:10131000884305EB450603FA06F108432061072AD6
:101320000FDA606B561E06EB86071F2606FA07F1DA
:101330008843561E06EB860605FA06F108436063ED
:1013400022E00D2A0FDA206BD61F06EB86071F2638
:1013500006FA07F18843D61F06EB860605FA06F162
:101360000843206310E0E06AA2F10D0606EB860751
:101370001F2606FA07F18843A2F10D0606EB860642
:1013800005FA06F10843E062F0BD816841F0804152
:1013900081607047816821F080418160704701461B
:1013A00000208A6802F480020AB1012000E00020D7
:1013B000704721B1826842F48062826003E08268F3
:1013C00022F480628260704721B1826842F002029A
:1013D000826003E0826822F002028260704710B5EA
:1013E0000A4600210023416821F46041531E41EA6E
:1013F0004331416010BD21B1426842F40062426055
:1014000003E0426822F40062426070470146C86C03
:1014100080B270470146C86C00B270476A48001D30
:101420000068704721B1826842F48072826003E0F4
:10143000826822F480728260704721B1826842F42F
:101440000072826003E0826822F40072826070475A
:1014500038B15D49096841F400515D4AC2F804138E
:1014600006E05949096821F40051594AC2F80413A9
:101470007047F0B5044615460020002200260929D1
:1014800011DDE068A1F10A0707EB470C072707FA0F
:101490000CF29043A1F10A0707EB470703FA07F2A2
:1014A0001043E0600CE0206901EB410C072707FACC
:1014B0000CF2904301EB410703FA07F2104320615D
:1014C000A06BC0F30156EF1C06F1010CA7EB0C0753
:1014D00007EB870C1F2707FA0CF29043EF1C06F16D
:1014E000010CA7EB0C0707EB870701FA07F2104383
:1014F000A063F0BD10B50A4600210023816B21F4E2
:101500004011531E41EA0351816310BD08B5002309
:1015100000930090009B0B440093009B1A6008BD51
:101520000A460021816821F47021114381607047CF
:101530000A460021816821F44011114381607047FF
:10154000816841F4800181607047014600208A680B
:1015500002F480020AB1012000E00020704721B1AE
:10156000426842F48062426003E0426822F4806292
:101570004260704721B1426842F48052426003E009
:10158000426822F480524260704708B5024600204B
:101590000090009201F12800009B184400900098F0
:1015A000006880B208BD10B50B460021D9B20124F5
:1015B00004FA01F182B144680C4344600FE000007A
:1015C000FFFEFFFCFDF7FFC004230140E030FCFFFD
:1015D00000200140FFFD3FFF44688C43446010BD84
:1015E0000246002013680B400BB1012000E00020F0
:1015F0007047CA430260704770B50246002000235E
:1016000000240B12556801268E4005EA0604156871
:101610001D4015B10CB1012000E0002070BD00227A
:101620000A12D3430360704710B50121480700F048
:10163000FAFF00214FF0005000F0F5FF10BD30B56B
:10164000002200237B4C226840F6FE748440A243B3
:10165000D1E900452C438D682C43CD6844EA05034D
:1016600003FA00F42243734C226030BD0021016074
:1016700041608160C160704739B16E4A12680123D0
:1016800083401A436B4B1A6006E06A4A12680123D2
:1016900083409A43674B1A60704710B551B1654A51
:1016A000121D126804090123A3401A43614B1B1D3C
:1016B0001A6009E05F4A121D126804090123A34061
:1016C0009A435C4B1B1D1A6010BD40B15949091D5E
:1016D000096841F00301574A121D116007E055499E
:1016E000091D096821F00301524A121D116070475B
:1016F00010B53AB14F4B1B6801FA00F423434D4C2F
:10170000236006E04B4B1B6801FA00F4A343494CED
:10171000236010BD08B500220092464A009200F1F5
:101720000802009B1A440092009A116008BD08B597
:10173000002200923F4A009200F11402009B1A44DA
:101740000092009A116008BD30B5002400230828DB
:1017500002D142EA012401E042EA0144354B00F1A2
:1017600020052B441C6030BD08B5014600200090C8
:10177000304800902C2000EB9100009A104400901B
:101780000098006880B208BD41B12A4A12684FF43F
:10179000805383401A43274B1A6007E0254A12689A
:1017A0004FF4805383409A43224B1A60704710B520
:1017B0003AB1204B1B6801FA00F423431D4C23600F
:1017C00006E01C4B1B6801FA00F4A343194C23608C
:1017D00010BD10B502460020164B34331B6801FAC9
:1017E00002F423400BB1012000E0002010BD01FAFB
:1017F00000F2104B34331A60704730B502460020B7
:1018000000230C4C246801FA02F504EA0503094C94
:101810003434246801FA02F52C4014B10BB10120D4
:1018200000E0002030BD01FA00F2024B34331A60B0
:101830007047000000740040002062490860C860E2
:101840001F20486100208861C861086248627047B3
:1018500000215C4A126844F201039A43594B1A6012
:101860001A46116840F6F2729143028843881A437F
:1018700083881A43C3881A4303891A4343891A4346
:1018800083891A4311434F4A116070470021018038
:1018900041808180C180018141818181704741887F
:1018A000028841EA0241474A1162C188828841EABE
:1018B0000241444A5162704730B14249096841F0DF
:1018C0000401404A116005E03E49096821F0040125
:1018D0003C4A116070470178427841EA02218278DF
:1018E00041EA0241C27841EA0261364A9161704799
:1018F00030B13449096841F00801324A116005E00D
:101900003049096821F008012E4A1160704730B152
:101910002C49096841F480412A4A116005E02949AF
:10192000096821F48041274A1160704730B1254988
:10193000096841F00101234A116005E02149096865
:1019400021F001011F4A116070471E48806A7047EC
:1019500029B11C4AD26802431A4BDA6006E0194AE0
:10196000D268C3439BB21A40164BDA60704710B579
:101970000146002000230A13012A02D1114CA3685A
:1019800006E0022A02D10F4C636801E00D4C236986
:1019900003EA01040CB1012000E0002010BD094958
:1019A00048617047014600200022064B1B6903EA8C
:1019B00001020AB1012000E000207047014948619E
:1019C0007047000000000550016821F0010101602E
:1019D0000021016041608160C1600161212141619C
:1019E000DB49884204D13D21D94A103A91608CE00C
:1019F000D7491831884205D14FF47461D44A103A5E
:101A0000916082E0D2493031884205D14FF474119F
:101A1000CF4A103A916078E0CD494831884205D1EB
:101A20004FF07461CA4A103A91606EE0C849603163
:101A3000884204D1C749C64A103AD16065E0C4491A
:101A40007831884204D1C449C14A103AD1605CE07F
:101A5000BF499031884204D1C049BD4A103AD16093
:101A600053E0BB49A831884205D14FF03D51B84AF7
:101A7000103AD16049E0BA49884204D13D21B84AC0
:101A8000083A116041E0B6491831884205D14FF457
:101A90007461B34A083A116037E0B1493031884285
:101AA00005D14FF47411AE4A083A11602DE0AC49EB
:101AB0004831884205D14FF07461A94A083A116053
:101AC00023E0A7496031884204D1A249A44A121FE9
:101AD00011601AE0A2497831884204D19E49A04A97
:101AE000121F116011E09E499031884204D19B4938
:101AF0009B4A121F116008E09949A831884204D11D
:101B00004FF03D51964A121F1160704710B50022E8
:101B10000268944B1A40CC680B6823434C692343FA
:101B20008C692343CC6923430C6A23434C6A2343C7
:101B30008C6A23434C6B23438C6B23431A43026010
:101B4000426922F00702D1E90B3423431A43426170
:101B50000B6943604B6883608B68C36010BD0021D4
:101B6000016041608160C160016141618161C16169
:101B7000016241628162C1620163416381637047B6
:101B800021B1026842F00102026003E0026822F023
:101B900001020260704721B1026842F40042026013
:101BA00003E0026822F400420260704721B102683B
:101BB00042F02002026003E0026822F0200202608C
:101BC0007047416070470146486880B2704722B153
:101BD000036843F40023036003E0036823F4002355
:101BE00003600161704721B1026842F48022026003
:101BF00003E0026822F48022026070470AB10161AA
:101C000000E0C1607047014600200A6802F400222B
:101C10000AB1012000E000207047014600200A6858
:101C200002F001020AB1012000E0002070470146E5
:101C300000204A6902F03800704730B503460A4672
:101C400000200024464DAB4202D24149103901E048
:101C50004349103902F000550DB14C6800E00C68A2
:101C6000414D2C4004EA02050DB1012000E00020A6
:101C700030BD02463A4B9A4202D23548103801E054
:101C80003748103801F000531BB1374B0B40C3608D
:101C900002E0354B0B408360704710B501F08003C4
:101CA0004BB122B1436943F08003436103E04369D0
:101CB00023F08003436180290BD02AB1036801F02F
:101CC0001E042343036004E0036801F01E04A343E1
:101CD000036010BD70B50246002000240025204E90
:101CE000B24202D21A4B103B01E01D4B103B1F4E7B
:101CF0000E4036B11E2606EAD124166806EA04050F
:101D000002E0566906F0800501F000560EB15C68ED
:101D100000E01C68144E344004EA010616B10DB10F
:101D2000012000E0002070BD02460D4B9A4202D215
:101D30000748103801E00A48103801F000531BB181
:101D4000094B0B40C36002E0074B0B4083607047B8
:101D5000106002403D000020400F002000003D20A8
:101D6000106402403F801CF07D0F7D0F3C0F3C0F44
:101D7000002044490860091D0860091D0860091D0C
:101D8000086041483F4914310860704700213D49CF
:101D90008279002A3AD00A46126803689A430B46B1
:101DA0001A600A1D126803689A430B1D1A600279B3
:101DB00011440A6803681A430A60324A08321268FA
:101DC00003689A432F4B08331A601A1D1268036880
:101DD0009A432C4B0C331A604279102A0ED11A1FE9
:101DE000126803681A43274B08331A601A1D1268D9
:101DF00003681A43234B0C331A600DE021494279E2
:101E000011440A6803681A430A6005E00279114424
:101E10000A6803689A430A607047002101600171F3
:101E20000C214171002181717047164910310968F8
:101E30000143144A10321160704701460020114AD4
:101E4000143212680A400AB1012000E000207047F5
:101E50000C49143108607047014600200022094BEC
:101E60001B6803EA0102074B14331B680B4013B1D4
:101E70000AB1012000E000207047024914310860D7
:101E800070470000003C0140FFFF7F0010B5044692
:101E90008C48844208D10121084600F07EFB0021D5
:101EA000012000F07AFB5EE08748844208D10121DE
:101EB000022000F072FB0021022000F06EFB52E0D5
:101EC0008248844208D10121042000F066FB0021F1
:101ED000042000F062FB46E07D48844208D10121E5
:101EE000082000F05AFB0021082000F056FB3AE0E1
:101EF0007848844208D10121102000F04EFB0021D7
:101F0000102000F04AFB2EE07348844208D10121E2
:101F1000202000F042FB0021202000F03EFB22E0C8
:101F20006E48844208D10121402000F036FB002198
:101F3000402000F032FB16E06948844208D10121BC
:101F4000802000F02AFB0021802000F026FB0AE020
:101F50006448844207D10121801500F01EFB002156
:101F6000A01500F01AFB10BDF0B50A4600210023B1
:101F7000002400BF3DE0012505FA01F3156805EADC
:101F800003049C4234D105684F000326BE40B5438C
:101F9000056015794E00B540066835430560157932
:101FA000012D02D01579022D16D185684F00032628
:101FB000BE40B543856055794E00B54086683543CF
:101FC0008560456801268E40B54345604568967931
:101FD0008E40B6B235434560C5684F000326BE400B
:101FE000B543C560D5794E00B540C6683543C56078
:101FF000491C1029BFD3F0BD4FF6FF7101600021CD
:10200000017141718171C171704708B54FF480321F
:102010000092009A0A430092009AC261C161009A3C
:10202000C261C2690092C269009208BD02460020E6
:1020300013690B400BB1012000E0002070470146FE
:10204000086980B270470246002053690B400BB10B
:10205000012000E0002070470146486980B27047C7
:1020600001837047418370470AB1018300E04183D7
:1020700070474161704742694A4042617047F0B51C
:10208000002300244D07ED0E02FA05F3CE1000F1F7
:10209000200555F826504E07F70E0F26BE40B543D3
:1020A000CF1000F1200646F82750CE1000F1200591
:1020B00055F8265045EA0304CE1000F1200545F8F6
:1020C0002640F0BD0000024000040240000802402B
:1020D000000C0240001002400014024000180240B0
:1020E000001C02400020024010B50121080700F04A
:1020F0009AFA00214FF0805000F095FA10BD364951
:102100000862704701460020344A106820F0E00061
:102110000843106070473049086170472E49A0316C
:10212000086070472C49A43108607047B0F5004F33
:1021300006D12A49096821F44041284A116005E086
:102140002649096841F44041244A116070472249F8
:102150004862704710B502460020204B186820F0F6
:102160000300104318601E4B1B6843F004031C4C13
:102170002360012901D130BF00E020BF184B1B684C
:1021800023F00403164C236010BD1448006840F08F
:102190000400124908600846006840F00200086028
:1021A0000F48006840F004000D49086000BF00BF00
:1021B00030BF704701460020084A52680A400AB101
:1021C000012000E0002070470449096841EA8001CD
:1021D000024A11607047000000000E42007000408B
:1021E00010ED00E0FA48006840F00100F84908608E
:1021F0000020F74908310860F5480068F5490840B3
:10220000F3490860F448091D0860081F006820F4BD
:102210008020091F08600020ED490C3108607047DC
:102220000021EB4A921C117011460870704710B5DE
:1022300001460022002300204A11012A02D1E44C69
:10224000236808E0022A03D1E14C7034236802E0DD
:10225000DF4C7434236801F01F02012494401C40B9
:102260000CB1012000E0002010BD38B50020009026
:102270000024002500BF3120FFF7D9FF0546009854
:10228000401C00900098B0F5A06F01D0002DF2D056
:102290003120FFF7CCFF08B1012400E000242046E4
:1022A00038BD01460020CA4A106820F0F80040EA14
:1022B000C10010607047C949086070470021C44AD6
:1022C000703211701170012802D004280AD104E084
:1022D0000121BF4A7032117005E00521BC4A7032FD
:1022E000117000E000BF00BF7047BD490860704733
:1022F00070B5049C41EA82150126C6EB530645EAF7
:102300000645054345EA0465B14E361D356070BD8E
:10231000B24908667047820142EA0172AC4B8433CD
:102320001A607047AD4988667047AC49C864704709
:1023300002460020A64B0833186820F0EC6042EA01
:1023400001031843A24B083318607047024600206F
:102350009F4B0833186820F0784042EA0103184385
:102360009B4B08331860704701460020984A08329A
:10237000106820F00300084310607047944808304C
:10238000006800F00C00704701460020904A0832B7
:10239000106820F0F00008431060704701460020EC
:1023A0008B4A0832106820F4E050084310607047F0
:1023B00001460020864A0832106820F4604040EA56
:1023C000C10010607047F0B50021002200240225F2
:1023D000002602237E4F08373F6807F00C0121B129
:1023E000042905D0082937D105E07E4F076036E083
:1023F0007D4F076033E0764F3F1D3F68C7F380563F
:10240000734F3F1D3F6807F03F036EB1764FB7FB38
:10241000F3F7DFF8BCC10CF1040CDCF800C0CCF31E
:10242000881C07FB0CF40CE06E4FB7FBF3F7DFF8EA
:10243000A0C10CF1040CDCF800C0CCF3881C07FB35
:102440000CF4634F3F1D3F68C7F301477F1C7D00BD
:10245000B4FBF5F7076002E0624F076000BF00BF02
:102460005B4F08373F6807F0F00109095F4F7A5C5E
:102470000768D7404760564F08373F6807F4E05178
:10248000890A5A4F7A5C4768D7408760504F0837AF
:102490003F6807F46041490B544F7A5C4768D74066
:1024A000C760F0BD002100F44072B2F5407F0AD150
:1024B000474A0832116821F4F8114D4A024011438D
:1024C000434A08321160424A70321268C0F30B036B
:1024D0001A433F4B70331A607047414944390860D2
:1024E00070473F494039086070474249086070476B
:1024F00039B1374A303212680243354B30331A60F3
:1025000006E0334A303212688243314B30331A606E
:10251000704739B12E4A3432126802432C4B34339F
:102520001A6006E02A4A343212688243284B343358
:102530001A60704739B1264A383212680243244B78
:1025400038331A6006E0224A383212688243204B40
:1025500038331A60704739B11D4A4032126802435D
:102560001B4B40331A6006E0194A4032126882431E
:10257000174B40331A60704739B1154A443212681C
:102580000243134B44331A6006E0114A4432126886
:1025900082430F4B44331A60704739B10C4A1032F2
:1025A000126802430A4B10331A6006E0084A1032E0
:1025B00012688243064B10331A607047E1B1044A37
:1025C000143212680243024B14331A6019E00000FF
:1025D00000380240FFFFF6FE1030002400004742A2
:1025E000800E47420024F40040787D011000002056
:1025F000FFFCFF0F5C0147425B4A126882435A4B63
:102600001A60704739B1584A121D12680243564B7E
:102610001B1D1A6006E0544A121D12688243524B79
:102620001B1D1A60704739B14F4A0C3212680243C1
:102630004D4B0C331A6006E04B4A0C321268824351
:10264000494B0C331A60704739B1474A103212684F
:102650000243454B10331A6006E0434A10321268B9
:102660008243414B10331A60704739B13E4A3C32C5
:10267000126802433C4B3C331A6006E03A4A3C3253
:1026800012688243384B3C331A60704739B1364A7E
:10269000403212680243344B40331A6006E0324A3B
:1026A000403212688243304B40331A60704739B170
:1026B0002D4A4432126802432B4B44331A6006E021
:1026C000294A443212688243274B44331A607047C8
:1026D00039B1254A4C3212680243234B4C331A60FD
:1026E00006E0214A4C32126882431F4B4C331A6079
:1026F000704739B11C4A5032126802431A4B5033AA
:102700001A6006E0184A503212688243164B503362
:102710001A60704739B1144AD21F12780243124B23
:10272000DB1F1A7006E0104AD21F127882430E4B4C
:10273000DB1F1A7070470C486030006840F08070F2
:10274000094960310860704701460020064A083A8E
:1027500012680A400AB1012000E0002070470249D7
:10276000891F0870704700001438024010B501211D
:102770004020FFF723FF00214020FFF71FFF10BD7F
:1027800030B12149096841F004011F4A116005E098
:102790001D49096821F004011B4A116070471A485D
:1027A00008300068704730B11749096841F00801E6
:1027B000154A116005E01449096821F00801124A20
:1027C00011607047014600200F4A121D12680A402E
:1027D0000AB1012000E0002070476FEA00110A4AA8
:1027E000121D1160704701460020074A121D126831
:1027F0000A400AB1012000E000207047C143C9B27D
:10280000014A121D116070470008065008B50022E9
:10281000009200200021CA22F94B1A6053221A604C
:10282000F74A183A126822F0A002F54B183B1A60DA
:1028300000BFF34A183A126802F02001009A521CB5
:102840000092009AB2F5003F01D00029F1D0EC4A85
:10285000183A126802F020020AB1012000E00020BC
:10286000FF22E74B1A6008BD08B500220092002045
:102870000021E34A183A126802F04002E2B9421E0F
:10288000DF4B183B1A6000BFDD4A183A126802F0AD
:102890004001009A521C0092009AB2F5803F01D08C
:1028A0000029F1D0D64A183A126802F040020AB163
:1028B000012002E0002000E0012008BD38B5002022
:1028C000009000240025CA20CD49086053200860EC
:1028D000FFF7CAFF00B947E00020C9492439086062
:1028E00042F20110091D0860081D006800F0070091
:1028F000091D086000BFC2481838006800F00404D1
:102900000098401C00900098B0F5803F01D0002C4A
:10291000F1D0BB481838006800F0040008B9002561
:1029200022E0B7481C3800680020B5491C3908600F
:102930004FF6FF70B24910390860B248091F0860AD
:102940000020AF490C390860091D0860091D0860A6
:10295000AB4918390860AA491C310860FFF756FFD7
:1029600008B9002500E00125FF20A5490860284698
:1029700038BDA3481838006820F08000A0491839F5
:102980000860704730B504460025CA209C4908609D
:1029900053200860FFF768FF00B91DE098481C3815
:1029A000006820F0400096491C390860084600681D
:1029B0002168084392491C39086091491439A0687C
:1029C000086008460068A18840EA01408C49143933
:1029D0000860FFF7CEFF0125FF20894908602846DF
:1029E00030BD002101607F214160FF21816070477F
:1029F00018B1FF21824A116004E0CA21804A1160A7
:102A000053211160704730B504460025CA207C4927
:102A1000086053200860FFF727FF00B914E044B1B5
:102A200077481C38006840F0100075491C39086070
:102A300007E073481C38006820F0100070491C390A
:102A40000860FFF796FF0125FF206D4908602846C2
:102A500030BDCA216A4A11605321116040B16849F2
:102A60001C39096841F02001654A1C3A116007E0F1
:102A700063491C39096801F0DF01614A1C3A1160A1
:102A8000FF215F4A116070470146002204E0501C9C
:102A9000C2B2A1F10A00C1B20A29F8DA100741EA6C
:102AA00010607047014600BF080900EB800042003B
:102AB00001F00F001044C0B270472DE9F041054607
:102AC0000C460026002755B94D481C38006800F018
:102AD000400000B102E00020E07000BF0EE0484876
:102AE0001C38006800F0400020B12078FFF7DAFFC2
:102AF000064602E00020E07000BF00BF55B120781C
:102B00000004617840EA0120A1780843E17840EAB6
:102B1000014611E02078FFF7B7FF4FEA00486078E0
:102B2000FFF7B2FF48EA0028A078FFF7ADFF48EAB8
:102B30000008E07848EA0046CA203149086053207E
:102B40000860FFF791FE08B900270CE02E483040DE
:102B50002B4924390860FFF70CFFFFF757FE08B92F
:102B6000002700E00127FF20254908603846BDE81E
:102B7000F0810021C170017041708170704770B5A3
:102B800006460C4600251E48243800681E4900EA07
:102B90000105C5F305402070C5F30620607005F0FF
:102BA0007F00A07005F48000000CE0705EB9207812
:102BB000FFF778FF20706078FFF774FF6070A078EF
:102BC000FFF770FFA07070BD00200D49091D086857
:102BD0000B492039096870472DE9F04105460C463C
:102BE000002600274DB9607800F01000102804D1AD
:102BF000607820F010000A3060703DB90FE00000EE
:102C000024280040FF007F007F7F7F006078FFF76F
:102C100049FF0646A078FFF745FF064600BF55B1BD
:102C2000E0780004617840EA0120A1780843217827
:102C300040EA413611E0E078FFF726FF4FEA00480E
:102C40006078FFF721FF48EA0028A078FFF71CFF13
:102C500048EA0008207848EA4036CA20F949086066
:102C600053200860FFF700FE08B900270CE0F64883
:102C70003040F44920390860FFF77BFEFFF7C6FDBE
:102C800008B9002700E00127FF20EE490860384618
:102C9000BDE8F08101210170817041700021C17097
:102CA000704770B506460C460025E6482038006897
:102CB000E54900EA0105280CE070C5F304206070C6
:102CC00005F03F00A070C5F3423020705EB9E07897
:102CD000FFF7E8FEE0706078FFF7E4FE6070A07830
:102CE000FFF7E0FEA07070BD2DE9F04105460E46ED
:102CF000144600276DB9D3481C38006800F0400026
:102D000000B102E00020E07000BFA06800B91AE046
:102D100019E0CC481C38006800F0400020B1207851
:102D2000FFF7C0FE074602E00020E07000BFA06889
:102D300020B9207BFFF7B6FE074604E0207BFFF7B3
:102D4000B1FE074600BF95B120780004617840EAE3
:102D50000120A1780843E17840EA0140217B40EA64
:102D60000160A1680843616840EA01071BE0207820
:102D7000FFF78AFE4FEA00486078FFF785FE48EAD1
:102D80000028A078FFF780FE48EA0008E07848EACB
:102D90000048207BFFF778FE48EA0060A1680843FE
:102DA000616840EA0107CA20A6490860532008600C
:102DB000B6F5807F03D1A3480838076002E0A14838
:102DC000001F0760FF209F490860BDE8F0810021D7
:102DD000C170017041708170816001210173002117
:102DE000416070472DE9F04106460F461446002524
:102DF000B7F5807F03D193480838056802E0914811
:102E0000001F0568C5F305402070C5F306206070FB
:102E100005F07F00A07005F48000000CE070C5F3A1
:102E20000560207305F08040A06005F08030606090
:102E30007EB92078FFF736FE20706078FFF732FE0B
:102E40006070A078FFF72EFEA070207BFFF72AFEAF
:102E50002073BDE8F08138B50246002400940023B9
:102E60000020CA24774D2C6053242C6041B1754C4E
:102E70001C3C24681443734D1C3D2C6001201EE053
:102E8000704C1C3C246894436E4D1C3D2C6000BF6C
:102E90006C4C183C246804EA1223009C641C0094C7
:102EA000009CB4F5803F01D0002BF1D0654C183C5C
:102EB000246804EA12240CB9002000E00120FF2459
:102EC000604D2C6038BD30B50023CA245D4D2C60A8
:102ED00053242C6041EA0203B0F5807F03D1594CA2
:102EE0002034236002E0574C24342360FF24554DE6
:102EF0002C6030BD01460020B1F5807F05D1514ADC
:102F000020321268C2F30E0004E04E4A24321268E6
:102F1000C2F30E007047CA214A4A11605321116062
:102F200048491C39096821F00701464A1C3A1160DA
:102F30001146096801431160FF21424A1160704740
:102F4000CA21404A1160532111603E49103908607E
:102F5000FF21116070473B481038006880B270470D
:102F600018B501460023009300220020CA23354CE7
:102F700023605323236049B1324B1C3B1B6843F44D
:102F80008063304C1C3C236001201FE02D4B1C3B18
:102F90001B6823F480632B4C1C3C236000BF294B2F
:102FA000183B1B6803F00402009B5B1C0093009B12
:102FB000B3F5803F01D0002AF1D0224B183B1B68AB
:102FC00003F004030BB9002000E00120FF231D4C97
:102FD000236018BDCA221B4B1A6053221A60194A7B
:102FE0001C3A126822F48022164B1C3B1A601A46C7
:102FF000126840EA01031A43124B1C3B1A60FF227D
:10300000104B1A6070470F481C38006800F480208D
:103010007047CA220B4B1A6053221A60094A1C3AA5
:10302000126822F4E002074B1C3B1A601A46126831
:1030300040EA01031A43034B1C3B1A60FF22014B79
:103040001A607047242800403FFFFF0070B5044617
:103050000D460026CA20F649086053200860FFF795
:1030600003FC00B907E044EA0500F1490C390860A7
:10307000FFF77FFC0126FF20ED490860304670BD58
:1030800030B504460025CA20E9490860532008608D
:10309000FFF7EAFB00B914E044B1E5481C380068CA
:1030A00040F08000E2491C39086007E0E0481C3825
:1030B000006820F08000DE491C390860FFF759FCE9
:1030C0000125FF20DA490860284630BDCA21D84AC8
:1030D00011605321116040B1D5491C39096841F490
:1030E0000001D34A1C3A116007E0D1491C39096834
:1030F00021F40001CE4A1C3A1160FF21CC4A116034
:103100007047CA21CA4A116053211160C8491C394D
:10311000096821F40021C64A1C3A11601146096869
:1031200001431160FF21C24A1160704770B5034628
:1031300000200024CA25BE4E356053253560BC4DA5
:10314000183D2D6805F4803555B100E0641CB84D7C
:10315000183D2D6805F4803515B1B4F5003FF5D163
:10316000B34D183D2D6805F480353DB943EA01059E
:103170001543AF4E18363560012000E00020FF25D2
:10318000AB4E356070BD10B50A460021A84B1C3B04
:103190001B6840F6080423EA04011AB140F40063F6
:1031A000194300E00143CA23A14C23605323236049
:1031B0009F4B1C3B1960FF23236010BD2DE9F0419C
:1031C00080460C4615460026002799480C300068BA
:1031D000984900EA0106964810300068964900EACE
:1031E0000107C6F305402070C6F30620607006F0A4
:1031F0007F00A07006F48000000CE0700020E870F2
:10320000C7F30420687007F03F00A870C7F342308E
:103210002870B8F1000F17D12078FFF743FC207019
:103220006078FFF73FFC6070A078FFF73BFCA07070
:103230006878FFF737FC6870A878FFF733FCA87050
:103240002878FFF72FFC2870BDE8F081784814300B
:103250000068704741B9764A1C32126822EA40027F
:10326000734B1C331A6007E0714A1C32126842EA41
:1032700040026F4B1C331A60704739B16C4A1C32E4
:10328000126802436A4B1C331A6006E0684A1C321B
:1032900012688243664B1C331A60704764491C31C4
:1032A000096821F4C051624A1C3211601146096854
:1032B0000143116070475E491C31096821F4E061E7
:1032C0005B4A1C3211601146096801431160704766
:1032D00057491C31096821F4C041554A1C3211601C
:1032E0001146096801431160704740B150491C31D3
:1032F000096841F080014E4A1C32116007E04C49D8
:103300001C31096821F08001494A1C321160704764
:1033100040B147491C31096821F40041444A1C323C
:10332000116007E042491C31096841F40041404AFC
:103330001C321160704708B5002200923C4A2C32C2
:103340000092009A02EB80020092009A116008BD80
:1033500008B501460020009035482C3000900098B8
:1033600000EB810000900098006808BD30491C31D6
:10337000096821F480312E4A1C3211601146096817
:103380000143116070472A491C31096821F400315A
:10339000274A1C32116011460968014311607047C9
:1033A00023491C31096821F48021214A1C32116013
:1033B00011460968014311607047F0B504460D4697
:1033C00000270026CA201A490860532008601848C0
:1033D0001838006800F0080050B100E0761C14486E
:1033E0001838006800F0080010B1B6F5805FF5D11C
:1033F0000F481838006800F0080098B90C481C38CD
:10340000006800F0100058B945EA04000849083186
:103410000860FFF7FBF908B9002704E0012702E084
:10342000002700E00027FF20014908603846F0BD72
:10343000242800407F7F7F003FFFFF00CA223E4BD1
:103440001A6053221A6091B13B4A1C3A126820F06C
:1034500004031A43384B1C3B1A60374A1C3212686B
:1034600000F004031A43344B1C331A6011E0324A53
:103470001C3A126820F004039A432F4B1C3B1A603D
:103480002D4A1C32126800F004039A432A4B1C3365
:103490001A60FF22284B1A60704710B501460020C1
:1034A0000022254B183B1B6843F6777403EA04029D
:1034B00002EA01030BB1012000E0002010BD81B23F
:1034C00041F080011C4A183A126802F0800262EA58
:1034D0000101194A183A1160704730B501460020C1
:1034E00000220023144C1C34246804F00402124C03
:1034F0001C3C24680C4002EAD13544EA05030E4C1A
:10350000183C246804EA11121BB194B20CB10120DA
:1035100000E0002030BD002101098AB242F08002A3
:10352000054B183B1B6803F0800363EA0202024B61
:10353000183B1A60704700002428004010B5012194
:10354000C802FFF781F800214FF40060FFF77CF814
:1035500010BD00216C4A116847F6FF629143027D5D
:1035600083681A4343681A43C3681A4303681A43BB
:1035700003691A431143644A1160704700210175C1
:10358000016041608160C160016170475F4908600E
:1035900070475D49091F086070475B48001F00685D
:1035A00000F0030070470021574B1B1D02681A6092
:1035B0001A1D11686FF30A01D0E901231A43C36889
:1035C0001A4303691A4311434F4A08321160704786
:1035D0000021016041608160C160016170474A481B
:1035E0000C300068C0B2704708B50146002000905A
:1035F00045481030084400900098006808BD00213C
:10360000414B203302681A601B1D42681A601A1D64
:10361000116821F0F701D0E902231A4303691A4324
:1036200043691A431143384A2832116070474FF0FA
:10363000FF310160002141608160C1600161416131
:10364000704731482C30006870472F487C30006844
:1036500070472D497C31086070472B484430006822
:1036600070472B49086070472949091D0860704759
:10367000274908310860704725490C3108607047B8
:103680002449086070472349091D086070470121DB
:103690008143204A0832116070471E490C3108608E
:1036A00070471B4914390860704739B1164A3832DF
:1036B00012680243144B38331A6006E0124A38325B
:1036C00012688243104B38331A607047014600205D
:1036D0000D4A303212680A400AB1012000E0002091
:1036E0007047094934310860704701460020064A96
:1036F000303212680A400AB1012000E00020704711
:103700000149343108607047042C0140A0802542F3
:10371000A0852542AC81254210B50446F748844275
:1037200008D101218014FEF78FFF0021A014FEF7BD
:103730008BFF16E0F248844208D101210014FEF705
:1037400072FF00212014FEF76EFF0AE0ED4884426C
:1037500007D10121C013FEF766FF0021E013FEF739
:1037600062FF10BD10B50022028802F441520B889E
:103770004C8823438C882343CC8823430C892343E0
:103780004C8923438C892343CC8923431A430280E9
:10379000838B4FF2FF74234083830B8A038210BD17
:1037A0002DE9F04F002502230024012700220026E6
:1037B000944690469146B0F81CA04FF2400B0AEA9E
:1037C0000B0AA0F81CA04FF0020AA0F820A0858BDD
:1037D000D1F808A0BAF1020F01D100BF6CE0B1F836
:1037E00004A0BAF1000F01D1012700E00227DFF8A1
:1037F00018A3DAF800A00AF4000ABAF1000F09D001
:10380000DFF804A3DAF800A02AF4000ADFF8F8B21F
:10381000CBF800A0DFF8F0A20AF17C0ADAF800A0E9
:10382000CAF38818DFF8E0A20AF17C0ADAF800A0EF
:10383000CAF30279DFF8D0A2AAF1040ADAF800A0EC
:103840000AF03F0CDFF8C4A2BAFBFCFA0AFB08FA44
:10385000BAFBF9F6B1F806A0BAF5007F0ED14FEA2F
:10386000162A0AEB8A0A4FEA4A0AD1F808B0BAFBCC
:10387000FBFA0AF1050A1FFA8AF20FE04FEA471A2B
:10388000B6FBFAFA0AEB8A0A4FEA4A0AD1F808B0FC
:10389000BAFBFBFA0AF1050A1FFA8AF24FF00A0A8C
:1038A000B2FBFAF202F00104A2EB040ACAF34F03DE
:1038B0004FF6FF7A0AEA0424022B01DBFF2B01DD1D
:1038C00002230024B1F806A04AEA040A4AEA030ADD
:1038D000A0F820A0B1F804A0B1F80CB04AEA0B0A95
:1038E000B1F802B04AEA0B0AB1F800B04AEA0B0A92
:1038F0004AF4006A4AEA05058583BDE8F08F002195
:10390000018041808180C180018141818181C181AB
:103910000721018270470021018041808180C180A0
:103920000221816000218181704721B1028842F02B
:103930004002028004E002884FF6BF731A40028002
:10394000704721B1828B42F48062828304E0828BD3
:103950004FF6FF331A408283704702884FF2FF739D
:103960001A40028002880A4302807047B1F5804FF6
:1039700004D1028842F48042028004E002884BF6BF
:10398000FF731A40028070474FF6FF62914204D0E5
:10399000028842F48072028004E002884FF6FF63DE
:1039A0001A400280704721B1828842F0040282806E
:1039B00004E082884FF6FB731A408280704721B181
:1039C000828842F01002828004E082884FF6EF7312
:1039D0001A408280704730B500220023848B4FF25A
:1039E00040052C40848302240484828B0C88B4F527
:1039F000007F01D00C8814B94FF4807308E00C8864
:103A0000B4F5407F03D00C88B4F5807F00D100234B
:103A10008C888D892C434D882C431C4344F40064CE
:103A20002243828330BD0146888970478181704777
:103A300021B1028842F40052028004E002884DF66F
:103A4000FF731A4002807047018841F48051018061
:103A5000704702460020012901D0108B00E0908AB7
:103A600070470146088A70471AB183880B438380E8
:103A700002E083888B438380704730B500240023A5
:103A80000C110125A540ABB21AB185881D43858074
:103A900002E085889D43858030BD02460020138961
:103AA0000B400BB1012000E000207047CA430281A7
:103AB0007047F0B50246002000240023002501F0E5
:103AC0000F070126BE40B4B20B1101269E40B3B2CF
:103AD000968806EA03051689264016B10DB1012025
:103AE00000E00020F0BD10B5002201F00F0401231A
:103AF000A3409AB2D343038110BD000000300140BF
:103B000000380040003C00400838024040787D0109
:103B100010B501218803FEF797FD00214FF4804086
:103B2000FEF792FD10BD1A490860704730B50022BB
:103B30008B071C0F0F2303FA04F2154B08338C106C
:103B400053F824309343124C08348D1044F8253038
:103B500023468C1053F824308C07240F00FA04F409
:103B600023430B4C08348D1044F8253030BD0949EF
:103B700008607047084908607047002004492031F8
:103B8000096801F4807109B1012000E0002070474C
:103B900000380140DC0027420004274210B50446EB
:103BA000FE48844208D101210846FEF74DFD002160
:103BB0000120FEF749FD9DE0B4F1804F08D10121BD
:103BC0000846FEF730FD00210120FEF72CFD91E0B4
:103BD000F348844208D101210220FEF724FD002190
:103BE0000220FEF720FD85E0EE48844208D1012145
:103BF0000420FEF718FD00210420FEF714FD79E0F3
:103C0000E948844208D101210820FEF70CFD00217B
:103C10000820FEF708FD6DE0E448844208D1012148
:103C20001020FEF700FD00211020FEF7FCFC61E0F3
:103C3000DF48844208D101212020FEF7F4FC002156
:103C40002020FEF7F0FC55E0DA48844208D101213B
:103C50000220FEF7F9FC00210220FEF7F5FC49E006
:103C6000D548844209D101210804FEF7EDFC00216A
:103C70004FF48030FEF7E8FC3CE0D048844209D1A4
:103C800001214804FEF7E0FC00214FF40030FEF76C
:103C9000DBFC2FE0CA48844209D101218804FEF7E9
:103CA000D3FC00214FF48020FEF7CEFC22E0C54873
:103CB000844208D101214020FEF7B5FC00214020BC
:103CC000FEF7B1FC16E0C048844208D101218020F3
:103CD000FEF7A9FC00218020FEF7A5FC0AE0BB4806
:103CE000844207D101218015FEF79DFC0021A0151B
:103CF000FEF799FC10BD00220288A84B98420ED016
:103D0000AC4B98420BD0B0F1804F08D0A44B9842F6
:103D100005D0A44B984202D0A34B984204D14FF651
:103D20008F731A404B881A43A04B984207D0A04B80
:103D3000984204D04FF6FF431A400B891A43028081
:103D40004B68C3620B880385944B984202D0994B11
:103D5000984201D18B7A03860123838270474FF00A
:103D6000FF314160002101800181418081727047F3
:103D70000185828270470A46002101884FF68F73C1
:103D8000194011430180704741627047C16270471A
:103D90000146486A70470146088D704721B1028884
:103DA00042F00202028004E002884FF6FD731A40DE
:103DB0000280704721B1028842F00402028004E0D0
:103DC00002884FF6FB731A400280704721B10288C7
:103DD00042F08002028004E002884FF67F731A40AE
:103DE0000280704702884FF6F7731A4002800288FB
:103DF0000A430280704702884FF6FF431A40028050
:103E000002880A430280704721B1028842F0010211
:103E1000028004E002884FF6FE731A400280704769
:103E200070B5002400220023058C4FF6FE76354045
:103E30000584028C8388048B4FF68F752C40B51E49
:103E40002C400D882C43751E2A408D892A434D88AD
:103E50002A43524DA84202D0564DA84213D14FF6E4
:103E6000F7752A40CD892A434FF6FB752A408D8885
:103E70002A434FF6FF652B404FF6FF552B400D8A26
:103E80002B434D8A2B43838004838D6845630284D2
:103E900070BD70B5002400220023058C4FF6EF762C
:103EA00035400584028C8388048B48F6FF752C40CE
:103EB0004FF6FF452C400D884FF6FF7606EA0525A4
:103EC0002C434FF6DF752A408D8906EA05152A43F3
:103ED0004D8806EA05152A43304DA84202D0354DDB
:103EE000A8421DD14FF67F752A40CD894FF6FF7647
:103EF00006EA05152A434FF6BF752A408D8806EA63
:103F000005152A434FF6FF352B404FF2FF752B4026
:103F10000D8A06EA85052B434D8A06EA85052B4363
:103F2000838004838D688563028470BD70B500242E
:103F300000220023058C4FF6FF6635400584028C75
:103F40008388848B4FF68F752C404FF6FC752C4080
:103F50000D882C434FF6FF552A408D894FF6FF768A
:103F600006EA05252A434D8806EA05252A430B4D16
:103F7000A84202D00F4DA84238D14FF2FF752A4017
:103F8000CD894FF6FF7606EA05252A434FF6FF3521
:103F90002A408D8806EA05252A4319E000000140E1
:103FA0000004004000080040000C004000100040E9
:103FB0000014004000040140004001400044014062
:103FC0000048014000180040001C00400020004054
:103FD0004EF6FF752B404DF6FF752B400D8A06EA15
:103FE00005152B434D8A06EA05152B4383808483F0
:103FF0008D68C563028470BD70B500220023002463
:10400000058C4EF6FF7635400584038C8488828BC0
:1040100048F6FF752A404FF6FF452A400D884FF6B7
:10402000FF7606EA05252A434DF6FF752B408D895C
:1040300006EA05352B434D8806EA05352B43FE4D30
:10404000A84202D0FD4DA84208D14BF6FF752C4086
:104050000D8A4FF6FF7606EA85152C43848082830D
:104060008D680564038470BD0021018041808180DA
:1040700081608181C18101824182704770B50346B0
:10408000002000241846183001258D40ACB21D8C4C
:10409000A5431D8409B108290AD100EB6100056818
:1040A0004FF68F76354005600568154305600FE0D3
:1040B0000D1FC5F34E052844056848F6FF763540C8
:1040C000056005684FF6FF7606EA0226354305606F
:1040D00070BD4163704781637047C163704701647D
:1040E00070470A460021018B4FF68F731940114328
:1040F000018370470A460021018B48F6FF7319407F
:104100004FF6FF7303EA02231943018370470A46FF
:104110000021818B4FF68F731940114381837047C3
:104120000A460021818B48F6FF7319404FF6FF7352
:1041300003EA02231943818370470A460021018B59
:104140004FF6F77319401143018370470A46002167
:10415000018B4FF2FF7319404FF6FF7303EA0223FE
:104160001943018370470A460021818B4FF6F7738C
:1041700019401143818370470A460021818B4FF219
:10418000FF7319404FF6FF7303EA0223194381833B
:1041900070470A460021018B4FF6FB73194011430B
:1041A000018370470A460021018B4FF6FF33194007
:1041B0004FF6FF7303EA02231943018370470A464F
:1041C0000021818B4FF6FB731940114381837047A7
:1041D0000A460021818B4FF6FF3319404FF6FF73DB
:1041E00003EA02231943818370470A460021018BA9
:1041F0004FF67F7319401143018370470A4600212F
:10420000018BC1F30E014FF6FF7303EA022319433A
:10421000018370470A460021818B4FF67F73194056
:104220001143818370470A460021818BC1F30E013F
:104230004FF6FF7303EA02231943818370470A464E
:104240000021018C4FF6FD73194011430184704722
:104250000A460021018C4FF6F7731940114301847F
:1042600070470A460021018C4FF6DF7319404FF664
:10427000FF7303EA02131943018470470A460021C1
:10428000018C4FF67F7319404FF6FF7303EA021358
:104290001943018470470A460021018C4FF6FF53F1
:1042A00019404FF6FF7303EA022319430184704754
:1042B0000A460021018C4FF2FF7319404FF6FF733D
:1042C00003EA02231943018470470A460021018C46
:1042D0004DF6FF7319404FF6FF7303EA023319439B
:1042E0000184704730B5002301248C40A3B2048CB4
:1042F0009C430484048C02FA01F5ADB22C4304847F
:1043000030BD30B5002304248C40A3B2048C9C4300
:104310000484048C02FA01F5ADB22C43048430BD50
:10432000828B4FF2FF331A408283828B4FF6FF73EA
:1043300003EA01231A4382837047F0B50C46154601
:10434000002100220026078C4EF6FF7C07EA0C07AE
:104350000784818B028C4FF6FF7707EA043640F61C
:10436000FF4739404FF6FF7707EA052739434FF6F5
:10437000FF7707EA0337394345F6FF773A4046F4BB
:1043800080573A4381830284F0BD828B4FF6F373EA
:104390001A408283828B0A4382837047F0B50C46B1
:1043A0001546002100220026078C4FF6FF6C07EA15
:1043B0000C070784818B028C4FF6FF7707EA0426EF
:1043C0004FF60C7739404FF6FF7707EA03172F4374
:1043D00039434FF2FF573A4046F480773A4381839E
:1043E0000284F0BD028B4FF2FF331A400283028B2E
:1043F0004FF6FF7303EA01231A4302837047F0B5B7
:104400000C461546002100220026078C4FF6EF7C53
:1044100007EA0C070784018B028C4FF6FF7707EA47
:10442000041640F6FF4739404FF6FF7707EA033797
:1044300039434FF6FF7703E00000014000040140DC
:1044400007EA052739434FF65F773A4046F01007F1
:104450003A4301830284F0BD028B4FF6F3731A4096
:104460000283028B0A4302837047F0B50C4615465F
:1044700000210022068C4FF6FE773E400684018B19
:10448000028C4FF60C7631407E1C06EA03162E4352
:1044900031434FF6F576324044F001063243018352
:1044A0000284F0BD70B505460C46208850B92389BA
:1044B000A28861882846FFF7D8FFE1882846FFF7E1
:1044C000CBFF25E0208804280AD12389A2886188AF
:1044D0002846FFF794FFE1882846FFF783FF17E09F
:1044E000208808280AD12389A28861882846FFF7F6
:1044F00055FFE1882846FFF748FF09E02389A28895
:1045000061882846FFF719FFE1882846FFF708FF72
:1045100070BD002101804180012181800021C18086
:10452000018170472DE9F04105460C460026012720
:10453000608808B9022600E00026A088012801D181
:10454000022700E001272088A0B92389A28861887A
:104550002846FFF78AFFE1882846FFF77DFF238979
:104560003A4631462846FFF74AFFE1882846FFF7DA
:1045700039FF13E02389A28861882846FFF73FFFAF
:10458000E1882846FFF72EFF23893A463146284620
:10459000FFF76BFFE1882846FFF75EFFBDE8F0817B
:1045A0000146486B70470146886B70470146C86BEF
:1045B00070470146086C70470A884B881A438B88FD
:1045C0001A43CB881A430B891A434B891A438B89A8
:1045D0001A43A0F844207047002101804180818067
:1045E000C180018141818181704731B1B0F844209F
:1045F00042F40042A0F8442005E0B0F84420C2F3A1
:104600000E02A0F84420704721B1828842F00402D3
:10461000828004E082884FF6FB731A4082807047E4
:1046200021B1828842F00102828004E082884FF644
:10463000FE731A40828070471AB183890B438381CD
:1046400002E083898B4383817047818270470246F1
:104650000020138A0B400BB1012000E000207047BE
:10466000CA430282704730B502460020002300246E
:10467000158A05EA0103958905EA010413B10CB115
:10468000012000E0002030BDCA430282704741EAA9
:104690000203A0F8483070471AB183890B43838125
:1046A00002E083898B438381704721B1828842F085
:1046B0000802828004E082884FF6F7731A408280F5
:1046C000704701894FF6F8721140018170470A4620
:1046D000002101894FF68F73194011430181704702
:1046E00030B504460D4629462046FFF7F0FF2089E5
:1046F00040F00700208130BD2DE9F04104460D4611
:1047000016461F46602D06D13B4601223146204603
:10471000FFF775FE05E03B46012231462046FFF7D4
:10472000A4FE29462046FFF7D2FF208940F007006B
:104730002081BDE8F08130B50C4600210189C9B265
:104740004FF6FF7505EA03251543254329430181EB
:1047500030BD2DE9F04105460E4617469846002427
:1047600043463A4631462846FFF7E5FF2C894FF687
:10477000F870044044F007044FF68F70044044F092
:1047800070042C81BDE8F081F0B504460D46164654
:104790001F463B46324629462046FFF7CCFF20897C
:1047A00040F480402081F0BD82884FF68F731A401C
:1047B000828082880A438280704702894FF6F873AC
:1047C0001A40028102890A430281704702894FF62A
:1047D0007F731A40028102890A4302817047F0B553
:1047E0000C4615461E460021002200230189028B3B
:1047F000038C4FF6F877394021434FF6FC473A4097
:1048000040F201173A434FF6DD773B404FF6FF7712
:1048100007EA06172F433B43018102830384F0BD5F
:1048200021B1828842F08002828004E082884FF6C3
:104830007F731A4082807047A0F8501070470000C4
:1048400010B50446F748844208D101211020FDF735
:10485000FBFE00211020FDF7F7FE3EE0F248844207
:1048600009D101214804FDF7DEFE00214FF400309C
:10487000FDF7D9FE31E0ED48844209D101218804D9
:10488000FDF7D1FE00214FF48020FDF7CCFE24E09F
:10489000E748844209D10121C804FDF7C4FE002184
:1048A0004FF40020FDF7BFFE17E0E248844209D133
:1048B00001210805FDF7B7FE00214FF48010FDF738
:1048C000B2FE0AE0DC48844207D101212020FDF736
:1048D000BBFE00212020FDF7B7FE10BD2DE9FF47EC
:1048E00005460E460024A14600BFA046B08900B18F
:1048F00000BF2C8A24F44054F08804432C82AC89F5
:1049000041F20C608443B0883189084371890843BF
:104910000443AC81AC8A24F44074B0890443AC8273
:104920006846FDF750FDBF48854202D0C248854227
:1049300002D1DDF80C9001E0DDF80890A88900F4C0
:10494000004040B109EBC90000EB09103168490093
:10495000B0FBF1F707E009EBC90000EB0910316883
:104960008900B0FBF1F76420B7FBF0F004012009E7
:10497000642101FB1078A88900F4004040B1322086
:1049800000EBC800B0FBF1F000F00700044308E0C2
:10499000322000EB08106421B0FBF1F000F00F00B2
:1049A00004432C81BDE8FF874FF4165101600021BC
:1049B0008180C18001810C2141810021818170476A
:1049C00010B502460020108A20F470600B884C88D5
:1049D00023438C882343CC8823431843108210BD83
:1049E0000021018041808180C180704721B182898E
:1049F00042F40052828104E082894DF6FF731A402E
:104A000082817047028B02F47F420283028B0A4349
:104A10000283704721B1828942F40042828103E01F
:104A20008289C2F30E028281704721B1828A42F4E8
:104A30000062828204E0828A4FF2FF731A4082820F
:104A40007047C1F308028280704701468888C0F32E
:104A500008007047028A4FF6F0731A400282028AF9
:104A60000A430282704721B1828942F002028281A8
:104A700004E082894FF6FD731A4082817047828973
:104A80004FF2FF731A40828182890A438281704704
:104A9000028A4FF6DF731A400282028A0A430282B8
:104AA000704721B1028A42F48042028204E0028A05
:104AB0004BF6FF731A4002827047818941F0010171
:104AC0008181704721B1828A42F00802828204E02B
:104AD000828A4FF6F7731A4082827047028BD2B2F5
:104AE0000283028B42EA01220283704721B1828A4B
:104AF00042F02002828204E0828A4FF6DF731A407D
:104B00008282704721B1828A42F01002828204E0E0
:104B1000828A4FF6EF731A4082827047828A4FF67C
:104B2000FB731A408282828A0A438282704721B1D3
:104B3000828A42F00202828204E0828A4FF6FD738A
:104B40001A40828270471AB1838A0B43838202E043
:104B5000838A8B4383827047F0B503460024002686
:104B60000025002040F66A17B94200D100BF184660
:104B7000C1F3421401F01F06012707FA06F5012CC4
:104B800001D10C3004E0022C01D1103000E01430CF
:104B90001AB107682F43076002E00768AF43076058
:104BA000F0BD02460020B1F5007F00D100BF1388A0
:104BB0000B400BB1012000E00020704701F40072AF
:104BC000B2F5007F00D100BFCA430280704770B5C4
:104BD0000246002400230025002040F66A16B14258
:104BE00000D100BFC1F3421501F01F03012606FAF0
:104BF00003F3012D02D19689334006E0022D02D144
:104C0000168A334001E0968A33400C12012606FAD8
:104C100004F41688344013B10CB1012000E00020E8
:104C200070BD0000001001400044004000480040FA
:104C3000004C0040005000400014014010B500221C
:104C4000002340F66A14A14200D100BF0A120124D9
:104C50009440A3B2DC43048010BD00000CB50020DA
:104C6000019000907648006840F4803074490860F4
:104C700000BF7348006800F4003000900198401CA9
:104C80000190009818B90198B0F5A06FF1D16C4867
:104C9000006800F4003010B10120009001E0002015
:104CA00000900098012846D165484030006840F0E7
:104CB00080506349403108606248006840F4804099
:104CC000604908605E48083000685D490831086046
:104CD0000846006840F4004008600846006840F458
:104CE000A05008605848091F0860081F006840F07D
:104CF0008070091F086000BF5148006800F0007014
:104D00000028F9D040F20560504908604C4808304E
:104D1000006820F003004A4908310860084600682E
:104D200040F00200086000BF45480830006800F00D
:104D30000C000828F8D10CBD10B54548006840F4B7
:104D40007000434908603E48006840F001003C495B
:104D5000086000203A4908310860394800683D4938
:104D60000840374908603C48091D0860081F006872
:104D700020F48020091F0860002031490C310860B0
:104D8000FFF76CFF4FF0006031498039086010BDBB
:104D900070B500200022022300240221284D08358E
:104DA0002D6805F00C0020B1042806D0082834D165
:104DB00007E02A4D2A4E356033E02A4D284E3560F3
:104DC0002FE01F4D2D1D2D68C5F380541C4D2D1D4A
:104DD0002D6805F03F0154B1224DB5FBF1F5184E99
:104DE000361D3668C6F3881605FB06F209E01B4D32
:104DF000B5FBF1F5124E361D3668C6F3881605FB75
:104E000006F20F4D2D1D2D68C5F301456D1C6B007D
:104E1000B2FBF3F5124E356003E0104D104E3560D5
:104E200000BF00BF064D08352D68C5F303150E4EB3
:104E3000705D0B4D2D68C540094E356070BD00009A
:104E4000003802400070004019544007003C024006
:104E500088ED00E0FFFFF6FE103000240024F4008F
:104E60002000002040787D01240000200648804773
:104E700006480047FEE7FEE7FEE7FEE7FEE7FEE73F
:104E8000FEE7FEE7FEE7FEE7394D0008890100086E
:104E900000F1080141604FF0FF31816000F108012D
:104EA000C16001610021016070470021016170470C
:104EB00042684A6093688B609368596091600861AA
:104EC00003685B1C0360704710B502460B685C1CEE
:104ED0000CB9106907E002F1080000E0406844687E
:104EE00024689C42FAD944684C604C68A160886090
:104EF00041600A611468641C146010BD01460A69AF
:104F0000D1E901309860D1E90103586050688842C6
:104F100001D188685060002008611068401E106050
:104F20001068704770B505460E462C4600BF3CB968
:104F30004FF48472F0A1FAA086F010F800BFFEE7EB
:104F400000BF02F0E5FED4E90F12206801FB020069
:104F500060600020A0632068A060E06B401E226CAF
:104F6000216800FB0210E0604FF0FF306064A06435
:104F700076B9206908B9012000E0002080B904F169
:104F8000100001F051FE01280AD102F0B7FE07E03F
:104F900004F11000FFF77CFF04F12400FFF778FF15
:104FA00002F0C5FE012070BD2DE9F04707460D4611
:104FB00091464FF0000A00BF3FB94FF4A272CEA154
:104FC000DFA085F0CBFF00BFFEE700BF15B94FF0B3
:104FD000000803E007FB05F000F1010808F15401A7
:104FE000E54803F0E5FF06467EB134460DB924607E
:104FF00002E006F154002060E763256401212046A9
:10500000FFF790FF84F85090A24600BFBAF1000F5E
:1050100007D14FF4C172B8A1D8A085F09FFF00BF9F
:10502000FEE700BF5046BDE8F08710B5044602F029
:105030006FFE11E0606A08B9012000E0002038B975
:1050400004F1240001F0F0FD18B101F0CFFE00E002
:1050500005E0A06C401EA064A06C0028EADC00BF44
:105060004FF0FF30A06402F062FE02F051FE11E04A
:10507000206908B9012000E0002050B904F11000B7
:1050800001F0D2FD08B101F0B1FE606C401E606419
:1050900000E002E0606C0028EADC00BF4FF0FF3067
:1050A000606402F044FE10BD70B5054602F030FEAB
:1050B000A86BE96B884201D1012400E0002402F0D2
:1050C00036FE204670BD2DE9F04104460E461546D9
:1050D0000027206C40B9206878BB606801F08EFF23
:1050E00007460020606028E07DB93146226CA06848
:1050F00084F034FF216CA0680844A060D4E901105A
:1051000088421AD32068A06017E03146226CE0681C
:1051100084F024FF216CE068401AE0602168E068B8
:10512000884203D2216C6068401AE060022D04D1ED
:10513000A06B10B1A06B401EA063A06B401CA063CD
:105140003846BDE8F0812DE9FF4383B00746884625
:105150001D464FF000093C4600BF3CB940F26B22AF
:1051600065A16FA085F0FAFE00BFFEE700BF00BF9B
:10517000B8F1000F09D1206C38B14FF41B725EA159
:10518000864885F0EBFE00BFFEE700BF00BF022DA2
:105190000AD1E06B012807D040F26D2256A1804869
:1051A00085F0DCFE00BFFEE700BF00BF01F030FE6F
:1051B00048B9059838B14FF41C724FA1794885F071
:1051C000CDFE00BFFEE700BF00BF02F0A1FDA06B57
:1051D000E16B884201D3022D1DD12A46414620466B
:1051E000FFF771FF0646606A08B9012000E0002061
:1051F00040B904F1240001F017FD012805D102F0A7
:105200007DFD02E00EB102F079FD02F090FD01207B
:1052100007B0BDE8F083059818B902F088FD0020BA
:10522000F6E7B9F1000F04D101A801F086FD4FF0B7
:10523000010902F07CFD00F092FF02F069FD606C54
:10524000401C08B900206064A06C401C08B9002014
:10525000A06402F06CFD05A901A801F083FDC0B9AE
:105260002046FFF721FF70B104F11000059901F00D
:105270002CFC2046FFF7D9FE00F0E7FE0028A4D161
:1052800002F03CFDA1E72046FFF7CFFE00F0DDFE77
:105290009BE72046FFF7C9FE00F0D7FE0020B7E7E6
:1052A00070B505465421404803F082FE0446E4B13F
:1052B000002060602060A060E060A0630120E063E7
:1052C00000202064401E6064A06484F8505004F103
:1052D0001000FFF7DDFD04F12400FFF7D9FD0023E6
:1052E0001A4619462046FFF72EFF00BF1CB94FF49F
:1052F000E17201A15AE05EE02E2E5C2E2E5C6B6501
:10530000726E656C5C4672656552544F535C536FA8
:10531000757263655C71756575652E6300000000CC
:1053200025733A2564206173736572742070785117
:10533000756575656661696C65640D0A000000003D
:1053400025733A25642061737365727420757851F2
:10535000756575654C656E677468203E202820551C
:1053600042617365547970655F74202920306661ED
:10537000696C65640D0A000044CC080825733A2561
:105380006420617373657274207852657475726EEF
:105390006661696C65640D0A0000000060F40D0828
:1053A00004F40D0898F30D0858CC0808F5A085F012
:1053B000D5FD00BFFEE700BF204670BD70B50546B5
:1053C0000E4600BF45B940F24E22AFF2D401F5A01F
:1053D00085F0C4FD00BFFEE700BF00BFAE4208D9A4
:1053E00040F24F22AFF2F001F8A085F0B7FD00BF08
:1053F000FEE700BF022200212846FFF7D5FD044644
:1054000004B1A66300BF44B940F25E22AFF21811A6
:10541000FBA085F0A3FD00BFFEE700BF204670BDE6
:105420002DE9F04781468A4617461E464C4600BF86
:105430004CB94FF48562AFF24011AFF21C1085F009
:105440008DFD00BFFEE700BF00BFBAF1000F0AD11B
:10545000206C40B140F22942AFF26411F04885F06F
:105460007DFD00BFFEE700BF00BF022E0BD1E06B49
:10547000012808D040F22A42AFF28411E94885F0B1
:105480006DFD00BFFEE700BF02F09BFC00BF1021D6
:10549000EFF3118081F31188BFF34F8FBFF36F8F4C
:1054A00000BF0546A06BE16B884201D3022E1CD1E0
:1054B000324651462046FFF706FEA06C401C70B9EC
:1054C000606A08B9012000E0002058B904F1240006
:1054D00001F0AAFB30B12FB10120386002E0A06CCE
:1054E000401CA0644FF0010801E04FF0000800BF2D
:1054F00085F3118800BF4046BDE8F0872DE9F041F3
:1055000080460E46444600BF4CB940F2BD42AFF261
:105510001821AFF2F41085F021FD00BFFEE700BFB7
:1055200000BF206C40B14FF49862AFF23421BEA0AE
:1055300085F014FD00BFFEE700BF02F042FC00BF93
:105540001021EFF3118081F31188BFF34F8FBFF368
:105550006F8F00BF0546A06BE16B884219D2A06B2C
:10556000401CA063A06C401C70B9606A08B901209F
:1055700000E0002058B904F1240001F055FB30B1DF
:105580002EB10120306002E0A06C401CA064012715
:1055900000E0002700BF85F3118800BF3846BDE852
:1055A000F08170B50446264602F0B2FBB06B08B934
:1055B000012500E0002502F0BAFB284670BD70B559
:1055C00004460D46206C70B1216CE0680844E06030
:1055D0006168E068884201D32068E0602846226C58
:1055E000E16884F0BBFC70BD2DE9FF4383B0054644
:1055F0000E461F464FF000092C4600BF4CB94FF431
:10560000AB62AFF20C31AFF2E82085F0A7FC00BF2F
:10561000FEE700BF00BF56B9206C40B140F25952BE
:10562000AFF22C318C4885F099FC00BFFEE700BF3B
:1056300000BF01F0EDFB50B9059840B140F25C525B
:10564000AFF24C31854885F089FC00BFFEE700BF12
:1056500000BF02F05DFBA06B90B3D4F80C80314624
:105660002046FFF7ACFFB7B9A06B401EA0632068CF
:1056700010B901F095FD6060206908B9012000E0D3
:105680000020B8B904F1100001F0CEFA012811D1C0
:1056900002F034FB0EE0C4F80C80606A08B9012007
:1056A00000E0002030B904F1240001F0BDFA08B197
:1056B00002F024FB02F03BFB012007B0BDE8F083C1
:1056C000FFE7059818B902F032FB0020F5E7B9F1C1
:1056D000000F04D101A801F030FB4FF0010902F0E6
:1056E00026FB00F03CFD02F013FB606C401C08B987
:1056F00000206064A06C401C08B90020A06402F087
:1057000016FB05A901A801F02DFB08BB2046FFF7F9
:1057100048FFB8B1206830B902F0FAFA606801F0C9
:105720001BFC02F004FB04F12400059901F0CDF903
:105730002046FFF77AFC00F088FC002889D102F0AF
:10574000DDFA86E72046FFF770FC00F07EFC80E77C
:105750002046FFF76AFC00F078FC0020ADE72DE959
:10576000F047804689461646444600BF4CB940F291
:105770001462AFF27C41AFF2584085F0EFFB00BFFE
:10578000FEE76DE025733A256420617373657274DA
:105790002070784E657751756575656661696C65D1
:1057A000640D0A0025733A25642061737365727471
:1057B0002075784D6178436F756E7420213D2030DF
:1057C0006661696C65640D0A0000000025733A2566
:1057D0006420617373657274207578496E697469A9
:1057E000616C436F756E74203C3D2075784D617817
:1057F000436F756E746661696C65640D0A00000024
:1058000025733A256420617373657274207848614A
:105810006E646C656661696C65640D0A0000000069
:1058200060F40D0804F40D0825733A2564206173B3
:105830007365727420707851756575652D3E757845
:105840004974656D53697A65203D3D203066616914
:105850006C65640D0A000000C8F40D0898F30D088B
:1058600000BF00BFB9F1000F0AD1206C40B140F277
:105870001562AFF27C51994885F070FB00BFFEE7DE
:1058800000BF02F09EFA00BF1021EFF3118081F3F8
:105890001188BFF34F8FBFF36F8F00BF0546A06B1A
:1058A000E8B149462046FFF78AFEA06B401EA06380
:1058B000606C401C70B9206908B9012000E000202C
:1058C00058B904F1100001F0AFF930B12EB1012048
:1058D000306002E0606C401C6064012700E000273B
:1058E00000BF85F3118800BF3846BDE8F0872DE979
:1058F000F047074688463C4600BF4CB940F26C6210
:10590000AFF20C61AFF2E85085F028FB00BFFEE774
:1059100000BF00BFB8F1000F0AD1206C40B140F2C7
:105920006D62AFF22C616D4885F018FB00BFFEE799
:1059300000BF00BF206C40B940F26E62AFF2486118
:1059400067A085F00BFB00BFFEE700BF02F039FA4D
:1059500000BF1021EFF3118081F31188BFF34F8F47
:10596000BFF36F8F00BF0546A06B48B1D4F80C9011
:1059700041462046FFF723FEC4F80C90012600E0C4
:10598000002600BF85F3118800BF3046BDE8F087D0
:1059900070B5044600BF44B940F29F62AFF2A861FF
:1059A0005BA085F0DBFA00BFFEE700BF02F0B0F9B4
:1059B000A56B02F0BCF9284670BD70B506463446AA
:1059C00000BF4CB940F2B162AFF2D461AFF2B06047
:1059D00085F0C4FA00BFFEE700BF02F099F9D4E9F0
:1059E0000E10451A02F0A3F9284670BD70B50446A2
:1059F00000BF44B940F2C162AFF2047144A085F027
:105A0000ADFA00BFFEE700BFA56B284670BD70B5BC
:105A100005462C4600BF4CB940F2CD62AFF228716A
:105A2000AFF2047085F09AFA00BFFEE700BF20468F
:105A300002F077FF70BD0146C86C7047C1647047C3
:105A4000014691F85000704770B5054600BF45B952
:105A50004FF4FC62AFF260712DA085F07FFA00BFB9
:105A6000FEE700BFA86B08B9012400E0002420462F
:105A700070BD70B5044600BF44B940F60702AFF2EE
:105A8000887123A085F06AFA00BFFEE700BFA06B13
:105A9000E16B884201D1012500E00025284670BD58
:105AA00070B505460E462C4602F032F9606C401C7B
:105AB00008B900206064A06C401C08B90020A064F4
:105AC00002F035F9A06B20B9314604F1240001F051
:105AD0007EF82046FFF7A9FA70BD0000C8F40D0853
