:020000040800F2
:100000004849002089360008AD7E0408A101000897
:10001000617F0408637F0408657F04080000000016
:100020000000000000000000000000009B360008F7
:10003000677F040800000000AF5C00080D5C00084A
:10004000A3360008A3360008A3360008A33600082C
:10005000A3360008A3360008A3360008A33600081C
:10006000877F0408A3360008A3360008A3360008DB
:10007000A3360008A3360008A3360008A3360008FC
:10008000A3360008233F0408A3360008A33600085F
:10009000A3360008A3360008A3360008697F0408C9
:1000A000A3360008A3360008A3360008A3360008CC
:1000B0004B4D0408B3450408A3360008A3360008D6
:1000C000A3360008A3360008A33600082D730408E1
:1000D000A3360008CF6C0408A3360008156D040889
:1000E0006B7F0408A3360008A3360008A336000877
:1000F000A3360008A3360008A3360008A33600087C
:10010000A3360008495D0408A3360008A33600089A
:10011000A3360008A3360008A3360008A33600085B
:10012000A336000867480408A3360008A336000871
:1001300027460408A14F0408A3360008A336000888
:10014000A3360008A3360008A3360008A33600082B
:10015000A3360008A3360008A3360008A33600081B
:10016000A3360008A3360008A3360008A33600080B
:10017000A3360008A336000893CC0408A336000871
:10018000A3360008A3360008DFF810D066F040FF61
:10019000004800470DDC0408AFF300804849002008
:1001A0001EF0040F0CBFEFF30880EFF3098047F057
:1001B0007EBE00000CB500225449009201920868EE
:1001C00040F4803008604FF4A043086800F4003029
:1001D00001900098401C0090019810B90098984236
:1001E000F3D10868800334D501200190474840309E
:1001F000026842F0805202604548026842F4404280
:1002000002604248083002680260026842F400421C
:100210000260026842F4A0520260031F3D4A1A6065
:100220000A6842F080720A600A689201FCD53A4975
:1002300040F205620A60016821F003010160016873
:1002400041F0020101600168C1F381010229FAD184
:100250000CBD01920CBD314810B5016841F470012C
:1002600001602A48016841F001010160274A00212C
:100270000832116002682A4B1A400260031D294AA5
:100280001A60026822F48022026020480C3001606B
:10029000FFF790FF21494FF000608039086010BDE2
:1002A00070B51A4D083528681F4B204910F00C0016
:1002B00004D05E10042803D0082803D00B601BE094
:1002C0000E6019E0114A121D1068C0F380541068C6
:1002D00000F03F0014B1B6FBF0F001E0B3FBF0F02A
:1002E00013681268C3F388135843C2F30142521CC7
:1002F0005200B0FBF2F0086028680C4AC0F303100B
:10030000121D105C0A68C2400A6070BD00380240CD
:1003100000700040086C4007003C024088ED00E09F
:10032000FFFFF6FE103000240024F400000000203F
:100330002849084328490860704730B50F23C27820
:1003400001780125FAB1244A126801F1E02102F492
:10035000E062C2F5E062C2F30722C2F10404D340B6
:100360004278A24084781C401443220181F8002482
:10037000007800F01F018D404009800000F1E0206E
:10038000C0F8005130BD01F01F00854048098000D1
:1003900000F1E020C0F8805130BD104A1140014307
:1003A0000D48001F016070470B4A121D002911689B
:1003B00001D0014300E08143116070474FF0E0211C
:1003C0000428086903D020F004000861704740F059
:1003D0000400FAE70000FA050CED00E080FFFF1FC3
:1003E00010B5F84C206840F000702060642000F0E8
:1003F00054FD206820F00070206010BD01210160D4
:100400000021416081604FF48042C160C0E9041264
:10041000D2108161C0E9071241628162C162016349
:10042000416340228163C0E90F122022C0E91121FB
:10043000C1640165416581658022C165C0E918120A
:100440008166C16601674167D2048167C0E91F12F6
:100450005210C0E921211311C0E92331C0F89410D2
:10046000C0F89810C0F89C10C0E928125212C0F8C9
:10047000A8209201C0F8AC205212C0E92C21C0F88B
:10048000B810704738B500230093CF4B1C694FF666
:10049000FF7504F01C0405EAC02020434FF4F86403
:1004A00004EA8111014341F003005A611861C74910
:1004B0000098401C00901869C00702D0009888423C
:1004C000F6D30098884201D1002038BD012038BD04
:1004D00018B500220092BC4A13694FF6FF7403F06E
:1004E0001C0304EAC02018434FF4F86303EA8111A7
:1004F000014321F0020040F001001061B34900986F
:10050000401C00901069C00702D000988842F6D3C2
:100510000098884201D1002018BD506980B218BDF2
:100520002DE9FC410027A84E044600970197306949
:100530008846A74AD4F8BC10A74B5143A54A20F0DF
:100540001C000A449A4202D240F0080016E0A34A76
:10055000A34B0A449A4202D240F00C000EE0A14A9A
:10056000A14B0A449A4209D3A04A1144A04A91429D
:1005700002D240F0040001E040F0100030614FF47E
:10058000004200214046FFF77DFF002833D0994804
:1005900000F083FC206880B38C4D0198401C0190D2
:1005A000642007F0BFFA01214046FFF791FF4007A2
:1005B00002D40198A842F0D30198A8421AD04FF46F
:1005C0008052002140460197FFF75CFF002812D0BF
:1005D0000198401C0190642007F0A4FA01214046D4
:1005E000FFF776FF800602D40198A842F0D3019865
:1005F000A84203D10020BDE8FC8113E01F21404642
:100600000197FFF765FFC10603D54FF40061216232
:1006100000E02762400701D5676113E04FF4804096
:1006200060610FE0206A6169C00840EA510082B24F
:1006300000214046FFF726FF0028DCD06FF07F4006
:1006400000F02BFC31686C480140D4E901021043F2
:10065000E26854F8103F1A43104362681043A268DE
:100660001043E26810432269104362691043A26993
:100670001043E2691043226A1043626A1043084340
:100680003060F4E90A010843D4E902121143084337
:100690002169084361690843A1690843E169084386
:1006A0007060206AB060606AF060B0694FF64171B6
:1006B0000840D4E90B121143238D626B42EA0342D6
:1006C0001143A26B1143E26B11430143B161D4E9C1
:1006D00010010843F06149488169494A1140D4E951
:1006E00012231A43D4E914352B431A43A36D1A433A
:1006F000E36D1A43236E1A43636E1A43A36E1A43C3
:100700000A438261D4E91B121143626F54F8783FA7
:100710001A431143626841EA8201A268114341F41D
:1007200000010160016841F080010160012062E781
:1007300032490028886902D040F0020001E020F030
:100740000200886170472D490028886902D040F472
:10075000005001E020F40050886170471A490028D9
:10076000086802D040F0040001E020F004000860B6
:1007700070472248816941F48011816170471249B4
:100780000028086802D040F0080001E020F00800CE
:100790000860704700B50120FFF7F1FFFFF7E9FFA0
:1007A0000120FFF7DBFF0120FFF7CDFF01205DF8FF
:1007B00004EBBDE7044900208969C90700D0012086
:1007C000704700001038024000800240FFFF040024
:1007D00040420F0000D3CEFEC0E1E40040F1E9FD4D
:1007E00040787D0100796CFC005A6202001F0AFA11
:1007F00080F0FA02FFFF0F000F8120FF00900240FF
:10080000233FDEF8F848816941F001018161D7E7B3
:10081000F5490028886902D040F0010001E020F08D
:1008200001008861CCE7F04A01460020926B0A4241
:10083000C6D00120C4E7EC4A01460020926B0A4270
:10084000BED00120BCE7E84A0029D16B01D081432A
:1008500000E00143D163B3E7E34B8A8818440264A4
:100860000A78CB7842EA03628B7849781B0443EA22
:1008700001210A434264A3E7DB4A0244106C030AE5
:100880004B710871506C020ECA70020C8A70020A19
:100890004A70087094E7D44A00291044016C02D0D1
:1008A00041F0004101E021F00041016488E7CE4AB7
:1008B00008291044016C02D041F0804101E021F090
:1008C000804101647CE7C84A1044026C22F07C52EB
:1008D0000264026C0A43026472E730B5C34C61687B
:1008E0000A68C2F30D43A26895681B1F012D02D947
:1008F0001268926800E08A68CD6865600360C0E9AC
:10090000012130BD38B5B94C00230093D4E9012151
:1009100017E06D1C00951568AD0507D51568ED0548
:1009200004D40A6001228A60626808E01568ED0557
:1009300011D41568AD050ED48D686D1C8D60D2681C
:1009400062601568002D02DB009D022DE1D303607B
:100950004360836038BD4A608B685B1C8B608B682A
:10096000012B00D10A60626813688D68C3F30D43E0
:100970001B1F012D02D90968896800E09168D568BC
:1009800065600360C0E9011238BDF0B5974C0022E4
:1009900021680B68002B01DA0020F0BD40F2F4550D
:1009A000A84215D9B0FBF5F6B0FBF5F305FB16062A
:1009B00006B15B1C012B0BD0C3F10107C7EBC717B6
:1009C00007EB470700EB87005E1EC0F30C0723E030
:1009D0000A6842F040520A60C0F30C0048600868A0
:1009E00040F000400860C868206018E032B9206814
:1009F000D0F800C04CF0805CC0F800C04D60B2423E
:100A000004D1086840F0005008604F60086840F06A
:100A100000400860C968521C9A42E7D321607448BC
:100A20004169490703D5042141610021416001204A
:100A3000F0BDF0B56D4F00234FF0004C44F2F45E72
:100A4000561E786013E000EB4314C4F800C0C3EBFB
:100A5000C31505EB450501EB8505C4E901E5B34286
:100A600003D204F12005E56000E0E0605B1C9342E6
:100A7000E9D35F49C8605F48B860F0BD5B4A506821
:100A800003681146002B896808DB0368DB0505D580
:100A900048608868401C8860012091E60368002B4C
:100AA0000CDB03689B0509D50368DB0506D40860E9
:100AB000002048600120886050680BE00368002B2C
:100AC0000ADB03689B0507D40368DB0504D48B6845
:100AD0005B1C8B60C0685060002071E6F0B5434C31
:100AE00000234FF48017561E206011E000EB4314E2
:100AF0002760C3EBC31505EB450501EB8505A56034
:100B0000B34203D204F12005E56000E0E0605B1C25
:100B10009342EBD336490861F0BD024600201268CB
:100B20000A4200D001204BE60068C0F3C30047E64C
:100B3000016841F00041016042E60029016802D0ED
:100B400041F0804101E021F08041016038E6026817
:100B50000A43026034E602680A43026030E6002974
:100B6000016802D021F0006101E041F00061016004
:100B700026E60029016802D041F4801101E021F449
:100B8000801101601CE60029016802D021F080611B
:100B900001E041F08061016012E6436841EA0241F0
:100BA0000B4343600CE60246002012680A4200D064
:100BB000012005E60246002012690A4200D0012009
:100BC000FEE5016841F000410160F9E50068C0F30D
:100BD0000D40F5E5426811B122F0004101E042F01C
:100BE00000414160ECE5000000800240140000205C
:100BF0000090024064060020406811B1C0F30C4030
:100C0000DEE5C0F30C00DBE502680021002A08DB0A
:100C10000268120405D40268D20502D50068C0F348
:100C20000D410846CCE5A1490028086802D040F0F3
:100C3000800001E020F080000860C1E59B48016869
:100C400041F001010160BBE5984900200968C9072E
:100C500000D00120B4E5954A0146002052690A42BD
:100C600000D00120ACE591494861A9E58F4A0029EF
:100C7000D16901D0014300E08143D161A0E58B4AF5
:100C80000146002052690A4200D0012098E58749B8
:100C9000486195E58548406900F0010090E583488A
:100CA000406900F040008BE5804900208969C90255
:100CB00000D5012084E57D4A01460020126A0A42DF
:100CC00000D001207CE57948006AC0F34A4077E50E
:100CD0007648006A80B273E57448806C70E57348AA
:100CE000C06C6DE57148006D6AE57048406D67E560
:100CF0006E490020486063E56C49002088605FE52C
:100D00006A4948625CE530B50C4605460021FFF7AC
:100D1000DFFB14B140F4804201E020F48042002166
:100D20002846FFF7AFFB002800D0012030BD604807
:100D3000C16A41F00041C16242E55D4A002150F8BC
:100D400021309362491C0829F9D339E55849002814
:100D5000C86A02D040F4007001E020F40070C8625C
:100D60002EE5534A01460020D26A0A4200D00120F3
:100D700026E54F490028C86A02D040F0040001E08F
:100D800020F00400C8621BE549490028C86A02D067
:100D900040F0020001E020F00200C86210E5444982
:100DA0000028C86A02D040F0010001E020F00100F4
:100DB000C86205E53E48D0F8001141F03001C0F8A6
:100DC0000011FDE43A48D0F8001121F02001C0F8EC
:100DD0000011D0F8001141F01001C0F80011EFE44B
:100DE00033490028D1F8000102D040F0080001E0AA
:100DF00020F00800C1F80001E2E42D490028D1F8F4
:100E0000000102D040F0040001E020F00400C1F82D
:100E10000001D5E426490028D1F8000102D020F0D5
:100E2000020001E040F00200C1F80001C8E42048DF
:100E3000D0F8001141F00101C0F80011C0E41C4AD3
:100E4000C3000BD50029D2F80C1120F0805001D03E
:100E5000814300E00143C2F80C11B1E40029D2F84B
:100E6000101101D0814300E00143C2F81011A7E442
:100E700000210F4AC30002D5D2F8043101E0D2F8B4
:100E80000831034204D0D2F80C21024200D10121E2
:100E9000084695E40649405892E401B581B00198AE
:100EA0000090002801D0401EFAE70CBD00900240DF
:100EB0000080024010B501210C02204601F007FA23
:100EC0002046BDE81040002101F001BA30B542686B
:100ED000CC4B0C791A400B6842EA0422134343605E
:100EE0008268C94B4D791A40D1E9034323438C688A
:100EF00044EA4504234313438360C26A097D22F414
:100F00007002491EC9B242EA0151C16230BD0021DE
:100F10000160017141718160C16001610121017550
:100F20007047BA4B10B5D3F80423B9490A40D0E949
:100F300000142143D0E90240044321431143C3F884
:100F4000041310BD0021016041608160C1607047E1
:100F50000029816802D041F0010101E021F0010186
:100F6000816070474268AB4B1A400A434260704749
:100F7000416282627047426822F01F020A43426067
:100F80007047A2490028D1F8040302D040F40000C1
:100F900001E020F40000C1F8040370479B490028D9
:100FA000D1F8040302D040F4800001E020F4800076
:100FB000C1F80403704770B5072609290AD9C56826
:100FC000A1F10A0404EB4404A640B543A3401D4329
:100FD000C56007E0056901EB4104A640B543A340A5
:100FE0001D4305611F23072A09D2446B521E02EBE1
:100FF000820293409C4391400C43446370BD0D2A90
:1010000009D2046BD21F02EB820293409C439140B1
:101010000C43046370BDC46A0D3A02EB8202934034
:101020009C4391400C43C46270BD816841F0804193
:1010300081607047816821F080418160704701467E
:1010400000208968490200D5012070470029816885
:1010500002D041F4806101E021F480618160704739
:101060000029816802D041F0020101E021F0020173
:10107000816070474268491E22F4604242EA413171
:10108000416070470029416802D041F4006101E0ED
:1010900021F4006141607047C06C80B27047C06C41
:1010A00000B270475948D0F808037047002981689A
:1010B00002D041F4807101E021F4807181607047B9
:1010C0000029816802D041F4007101E021F400712F
:1010D000816070474D490028D1F8040302D040F4E4
:1010E000005001E020F40050C1F80403704770B5CF
:1010F000072609290AD9C568A1F10A0404EB4404AA
:10110000A640B543A3401D43C56007E0056901EB58
:101110004104A640B543A3401D430561836BC3F35F
:101120000154121B921C02EB82021F249440A34321
:1011300091400B43836370BD826B491E22F44012C1
:1011400042EA01518163704708B50844009002608B
:1011500008BD826822F470220A4382607047826868
:1011600022F440120A4382607047816841F4800192
:1011700081607047014600208968490200D501203E
:1011800070470029416802D041F4806101E021F4F8
:101190008061416070470029416802D041F480516C
:1011A00001E021F480514160704708B508442830BF
:1011B0000090006880B208BD01238B4041680AB1ED
:1011C000194300E0994341607047024600201268CD
:1011D0000A4200D001207047C9430160704730B512
:1011E0000246002053680C0A01258D4011682B40EF
:1011F000214202D0002B00D0012030BD6FEA112126
:1012000001607047FFFEFFFCFDF7FFC000200140BA
:10121000E030FCFFFFFD3FFF10B501214C072046E9
:1012200001F04BF82046BDE81040002101F045B820
:1012300030B54D4C236840F6FE7282409343D1E9AD
:1012400000252A43D1E902510D432A4382401A4323
:10125000226030BD0021016041608160C160704743
:10126000414B01228240186809B1104300E09043CD
:10127000186070473C4B1B1D02090120904000295B
:10128000196801D0014300E0814319607047364975
:10129000091D0028086802D040F0030001E020F09A
:1012A000030008607047304B814018680AB108435A
:1012B00000E08843186070472B4A08B51044083096
:1012C0000090016008BD284A08B510441430009011
:1012D000016008BD082805D042EA0141224A1044B5
:1012E0000162704742EA0121F8E71F4908B501EBA6
:1012F00090002C300090006880B208BD1A4B9A1400
:101300008240186809B1104300E0904318607047AC
:10131000154B814018680AB1084300E08843186003
:1013200070470246104B002034331B6891400B423B
:1013300000D00120704781400B4834300160704775
:10134000094A0346002012689940074B0A4034338B
:101350001B680B4202D0002A00D001207047814058
:101360000148343001607047007400404D4800214E
:101370000160C1601F2242618161C16101624162FD
:10138000704730B547490A6844F201039A430A603E
:101390000A6840F6F2739A4303884488C588234359
:1013A00084882C432343048923434489808923432D
:1013B000034313430B6030BD0021018041808180D5
:1013C000C180018141818181704701684FEA3142CA
:1013D00034490A6240684FEA3040486270473149F8
:1013E0000028086802D040F0040001E020F004006A
:1013F0000860704782780188C07862F31F4141EA33
:10140000006028498861704726490028086802D092
:1014100040F0080001E020F0080008607047214912
:101420000028086802D040F4804001E020F48040A9
:10143000086070471B490028086802D040F001008E
:1014400001E020F00100086070471648806A70478C
:10145000144A0029D16801D0014302E0C04380B2A0
:101460000140D160704703460020190B0D4A012945
:1014700006D0022906D01169194200D00120704718
:101480009168F9E75168F7E70649486170470549EF
:10149000024600200969114200D00120704701492D
:1014A00048617047000005502DE9F043016821F0C4
:1014B000010101600021016041608160C160016142
:1014C00021214161B849B84A3D251039904202D1E5
:1014D0008D60BDE8F083B44A4FF4746618329042D0
:1014E00001D18E60F5E7B04A4FF474173032904264
:1014F00001D18F60EDE7AC4A4FF0746C48329042F6
:1015000002D1C1F808C0E4E7A74BA84A603398426B
:1015100001D1CA60DDE7A44CA54B7834A04201D1CB
:10152000CB60D6E7DFF88082A24C08F190084045F6
:1015300001D1CC60CDE7DFF870824FF03D5908F162
:10154000A808404502D1C1F80C90C2E79A49DFF8DB
:1015500068820839404501D10D60BAE7964D1835CB
:10156000A84201D10E60B4E7934D3035A84201D1B5
:101570000F60AEE7904D4835A84202D1C1F800C0D7
:10158000A7E78D4D8C496035091FA84201D10A603B
:101590009FE7894A7832904201D10B6099E7864AE9
:1015A0009032904201D10C6093E7834AA832904276
:1015B0008FD1C1F800908CE730B503687F4ACC68C2
:1015C00013400A682243D1E905452C432243CC69E4
:1015D00022430C6A22434C6A22438C6A22434C6B9E
:1015E00022438C6B22431A430260426922F00703B4
:1015F000D1E90B2422431A4342610A6942604A68D6
:1016000082608968C16030BD0021016041608160F5
:10161000C160016141618161C161016241628162B8
:10162000C16201634163816370470029016802D090
:1016300041F0010101E021F0010101607047002942
:10164000016802D041F4004101E021F40041016051
:1016500070470029016802D041F0200101E021F02B
:1016600020010160704741607047406880B2704758
:10167000002A026802D042F4002201E022F4002293
:101680000260016170470029016802D041F48021A5
:1016900001E021F48021016070470AB101617047C7
:1016A000C1607047014600200968090300D5012088
:1016B0007047014600200968C90700D00120704723
:1016C000406900F03800704702463B4B00209A42C8
:1016D00002D2354A103A01E0374A103A8B0001D560
:1016E000526800E01268364B1A400A4200D00120CE
:1016F0007047314A904202D22B48103801E02E4800
:1017000010382F4A8B0001EA020101D5C1607047F1
:10171000816070470B0607D5436912B143F080031F
:1017200001E023F080034361802908D0002A026889
:1017300001F01E0101D00A4300E08A4302607047B5
:1017400030B51D4A0024904202D2174A103A01E0F7
:10175000194A103A1B4B194205D01E2303EAD12522
:1017600003682B4002E0406900F08003880001D547
:10177000506800E01068124A1040084201D003B1DE
:101780000124204630BD0C4A904202D2064810384F
:1017900001E0094810380A4A8B0001EA020101D52C
:1017A000C160704781607047106002403D000020BA
:1017B000400F002000003D20106402403F801CF0DC
:1017C0007D0F7D0F3C0F3C0F374900200860091D3D
:1017D0000860091D0860091D086033493348143149
:1017E0000860704730B5304A8379016853B3136895
:1017F0008B431360111D0B680468A3430B600179D0
:1018000011440B68046823430B60274B08331968A5
:101810000468A14319601C1D21680568A943216063
:101820004179102905D011440A68006802430A6012
:1018300030BD1968026811431960216800680143CE
:10184000216030BD0079104402688A43026030BDD7
:101850000021016001710C224271817170471249AF
:1018600010310A6802430A60704701460E4A0020A0
:10187000143212680A4200D0012070470A4914311C
:1018800008607047084A014600201268064B0A406B
:1018900014331B680B4202D0002A00D0012070478D
:1018A0000149143108607047003C0140FFFF7F0090
:1018B0008100A1F1C04140B143F2D20008606FF055
:1018C00070404860C1F8040170474FF0204243F275
:1018D000DB001060F3E770B501688900A1F1C04139
:1018E0000B68F74A1340D0E901242243D0E90345AD
:1018F0002C4322434469224384692243C46922431E
:10190000046A2243446A2243846A2243C46A22430B
:10191000046B22431A430A608168082907D10168D1
:101920008900A1F1C0410A6842F040020A600168E2
:101930008A00A2F1C042516801F04043416BD1E9F5
:10194000004544EA05148D688E892D0245EA064556
:101950002C430D8A44EA05540D7D896944EA0564E7
:101960000C431C435460C16AB1F5804F08D0006835
:101970006FF070418000A0F1C040C0F8041170BD4C
:1019800001688900A1F1C041D1F80421806B02F007
:101990004042D0E9003443EA04138468058A2402F3
:1019A00044EA05542343047D806943EA0463034306
:1019B0001343C1F8043170BD00210222C0E90012B6
:1019C0008160C160016141618161D202C161C0E990
:1019D00008125200C0E90A210163BA4941638163D8
:1019E00070478000A0F1C0400029016802D041F09A
:1019F000010101E0B44A11400160704710B518239D
:101A000040244FF020414FF0FC32102805D041F81F
:101A1000803F4C608A60CA6010BD0B664C668A6667
:101A2000CA6610BD30B502684FF02041102A1BD0A5
:101A3000D1F88020A54B02EA0302D0E9013443EA41
:101A40000403D0E9034544EA050443EA0403446976
:101A500043EA4423846943EA443343EA020343F0FC
:101A6000080403D18A6E03E00A6EE3E7D1F8882008
:101A7000C269D2E9003543EA05231589127B4FEA92
:101A8000054545EA026243EA0203CA6E006AD0E9EC
:101A9000002542EA05220589007B4FEA054545EA13
:101AA000006042EA000203D10C668B66CA6630BD54
:101AB00041F8804F8B60CA6030BD10210160002169
:101AC00041608160C160016141618161C269FC2145
:101AD0001160C2695160C2699160C269D160026AD5
:101AE0001160026A5160026A9160006AC1607047C9
:101AF0004FF0204251B1102804D052F8800F40F02E
:101B000004000AE0106E40F004000AE06E49C91EAD
:101B1000102804D052F8800F084010607047106EF3
:101B20000840106670474FF0204251B1102804D091
:101B300052F8800F40F040000AE0106E40F0400084
:101B40000AE061493F39102804D052F8800F08405C
:101B500010607047106E0840106670474FF02041CB
:101B6000102802D0D1F894007047486F70474FF0AA
:101B70002040182140F8A01F002141604FF0FC31A7
:101B80008160C1600161704710B54FF0204151F88C
:101B9000A02F4F4B84681A4043685B0243EA4433EA
:101BA00004681443234343F010020A608A68C26841
:101BB000D2E9003443EA04231489127B240444EA62
:101BC000026213438B60CA680269D2E9003443EAB7
:101BD00004231489127B240444EA02621343CB6079
:101BE0000A694069D0E9002342EA03220389007BA5
:101BF0001B0443EA006002430A6110BD002101603A
:101C000041608160C268FC211160C2685160C26895
:101C10009160C268D1600269116002695160026915
:101C200091600269D1604269116042695160426904
:101C300091604069C16070474FF02041002851F821
:101C4000A00F02D040F0040002E01F4AD21E104054
:101C50000860704710B54FF480744FF0204372B1A4
:101C6000102804D0A04205D153F8840F04E0586E28
:101C700008430DE053F8A40F0843186010BD102866
:101C800004D0A04206D153F8840F05E0586E884373
:101C9000586610BD53F8A40F8843EEE703460020B2
:101CA0004FF02042102B08D0B3F5807F12D0D2F82D
:101CB000A4200A4200D001207047526EF9E70000CC
:101CC0008000F7FF1C920608FEFF0F008101F0FF65
:101CD000CD01FEFFD2F88420EBE74FF02042102820
:101CE00007D0B0F5807F08D052F8A40F8843106069
:101CF0007047506E88435066704752F8840FF5E77E
:101D0000034600204FF02042102B0CD0B3F5807F0B
:101D10000BD0D2F8A4200A4202EAD10102D0002955
:101D200000D001207047526EF5E7D2F88420F2E728
:101D30004FF02042102808D0B0F5807F0AD052F82A
:101D4000A40F20EAD10010607047506E20EAD10045
:101D50005066704752F8840FF3E70000714910B5E0
:101D6000884206D10121084600F089FA00210120AD
:101D70004FE06D49884206D10121022000F07FFA30
:101D80000021022045E06949884206D10121042052
:101D900000F075FA002104203BE06549884206D135
:101DA0000121082000F06BFA0021082031E0614990
:101DB000884206D10121102000F061FA0021102094
:101DC00027E05D49884206D10121202000F057FA22
:101DD000002120201DE05949884206D101214020E0
:101DE00000F04DFA0021402013E05549884206D109
:101DF0000121802000F043FA0021802009E05149B0
:101E000088420AD184150121204600F038FA0021C9
:101E10002046BDE8104000F032BA10BDF0B50022F7
:101E200001274FF0030C0B6807FA02F52B40AB4279
:101E30002CD1066853000CFA03F4A64306600E7911
:101E4000D0F800E09E4046EA0E0606600E79012EAC
:101E500001D0022E12D18668A64386604E79D0F852
:101E600008E09E4046EA0E0686604668AE4346603D
:101E700045688E799640B6B235434560C568A5433E
:101E8000C560CC799C40C3681C43C460521C102AB6
:101E9000C9D3F0BD4FF6FF7101600021017141719E
:101EA0008171C171704708B541F480320092C261FE
:101EB000C1610099C161C169C069009008BD024655
:101EC000002012690A4200D001207047006980B2E8
:101ED00070470246002052690A4200D00120704734
:101EE000406980B2704701837047418370470AB1EF
:101EF00001837047418370474161704742694A409E
:101F0000426170474B07DB0E9A40C90810B500EBE1
:101F10008100016A0F249C40A1430162016A1143C0
:101F2000016210BD000002400004024000080240AF
:101F3000000C024000100240001402400018024051
:101F4000001C024000200240F848016841F00101F5
:101F50000160F64A0021083211600268F44B1A4011
:101F60000260031DF34A1A60F04BF34A84331A608F
:101F7000F04A103A1B1D1A60026822F480220260A7
:101F8000EA480C300160181D01607047E7490022E3
:101F9000891C0A7008707047024600205109012907
:101FA0000CD002290CD0E1497431096802F01F02FB
:101FB000012393400B4200D001207047DB49F4E736
:101FC000DA497031F1E718B500204FF4A0440090D1
:101FD0003120FFF7E1FF0099491C0091A14201D097
:101FE0000028F5D03120FFF7D7FF002800D00120CE
:101FF00018BDCE4A116821F0F80141EAC000106016
:102000007047CE4908607047C849002270310A7095
:102010000A70012802D0042801D1052008707047F9
:10202000C7490860704741EA82115A0810B5C54B8C
:10203000029C03EB02421143014341EA0460BB49A5
:10204000091D086010BDBD4908667047800140EA5F
:102050000170B649843108607047B8498866704796
:10206000800140EA0160B14940EA027088310860AD
:102070007047B24908677047B049C8647047AB4BB6
:1020800008331A68084322F0EC6210431860704766
:10209000A64B08331A68084322F0784210431860B0
:1020A0007047A24A0832116821F003010143116010
:1020B00070479E480830006800F00C0070479B4A4B
:1020C0000832116821F0F001014311607047974A0E
:1020D0000832116821F4E051014311607047934ABE
:1020E0000832116821F4604141EAC0001060704775
:1020F00070B58E4B08331968934C11F00C0104D065
:102100006610042903D0082903D004601BE0066090
:1021100019E0864A121D1168C1F38055116801F05B
:102120003F0115B1B6FBF1F101E0B4FBF1F1146828
:102130001268C4F388146143C2F30142521C520076
:10214000B1FBF2F1016019680F2202EA11117F4A16
:10215000545C0168E14041601C68072505EA94244D
:10216000145D21FA04F484601B6805EA5333D25CE1
:10217000D140C16070BDC0F30121032908D16B4B70
:1021800008331968724A21F4F81102400A431A60B0
:10219000664970310A68C0F30B0002430A60704759
:1021A000674944390860704765494039086070479D
:1021B0006249C1F85C0170475C4A8C32116821F4B5
:1021C0004011014311607047584A8C32116821F464
:1021D0004001014311607047544A8C321168401E1F
:1021E00021F01F01014311607047504A8C32116881
:1021F0006FF0FF0321F4F85103EB00200843106057
:1022000070474A4A8C32116821F440310143116011
:1022100070475049C1F8E0017047444A3032002904
:10222000116801D0014300E08143116070473F4ACB
:1022300034320029116801D0014300E0814311606C
:1022400070473A4A38320029116801D0014300E052
:10225000814311607047354A40320029116801D02E
:10226000014300E0814311607047304A4432002945
:10227000116801D0014300E08143116070472B4A8F
:1022800010320029116801D0014300E08143116040
:102290007047264A14320029116801D0014300E03A
:1022A000814311607047214A18320029116801D01A
:1022B000014300E08143116070471C4A203200292D
:1022C000116801D0014300E0814311607047174A53
:1022D00024320029116801D0014300E081431160DC
:1022E0007047124A50320029116801D0014300E0C2
:1022F0008143116070470D4A54320029116801D0A2
:10230000014300E0814311607047084A58320029B8
:10231000116801D0014300E0814311607047034A16
:1023200060320029116817D0014316E000380240DE
:10233000FFFFF6EA10300024003000200000474282
:10234000800E47420000FFFF0024F4002000002020
:10235000FFFCFF0F00104742814311607047194A8C
:102360000029116801D0014300E0814311607047EA
:1023700014490C310128086803D020F008000860D7
:10238000704740F00800FAE70E4A573A00291178E2
:1023900001D0014300E081431170704709481030BB
:1023A000016841F08071016070470146054A0020D4
:1023B000583A12680A4200D0012070470149563944
:1023C000087070476438024010B501214020FFF7C3
:1023D00060FF0021BDE810404020FFF75ABF1C49B4
:1023E0000028086802D040F0040001E020F004005A
:1023F0000860704716480830006870471449002884
:10240000086802D040F0080001E020F008000860F1
:10241000704701460E4A0020121D12680A4200D081
:10242000012070470A496FEA0010091D08607047D3
:102430000146074A0020121D12680A4200D00120FE
:1024400070470349C043091DC0B2086070470000CF
:102450000008065010B50121CC022046FFF737FFD7
:102460002046BDE810400021FFF731BF30B5644B76
:102470001A6847F6FF618A43017D8468C568214375
:1024800044682C43214304680069214301431143FC
:10249000196030BD00210175016041608160C1603B
:1024A000016170475749C1F8A00070475449091F9E
:1024B000086070475248001F006800F00300704732
:1024C0004F4A10B5121D01681160131D1968D0E93B
:1024D00001242243D0E9034004436FF30A0122435D
:1024E0000A431A6010BD0021016041608160C16033
:1024F0000161704742480C300068C0B270474049E3
:1025000008B5103108440090006808BD3C4A10B579
:10251000203201681160121D41681160131D196895
:10252000D0E902242243D0E90440044321F0F7011A
:1025300022430A431A6010BD4FF0FF3101600021B1
:1025400041608160C1600161416170472C482C305D
:10255000006870472A487C300068704728497C3101
:102560000860704726484430006870472649086074
:1025700070472549091D08607047234908310860E4
:10258000704721490C31086070471E49C1F8AC0101
:1025900070471C49C1F8B0017047012181431948B7
:1025A000C0F8B41170471749C1F8B801704716490F
:1025B000143908607047124A38320029116801D076
:1025C000014300E081431160704701460C4A00203E
:1025D000303212680A4200D0012070470849343175
:1025E000086070470146064A0020303212680A42ED
:1025F00000D0012070470249343108607047000064
:10260000042C014000802542A0852542B64910B522
:1026100088420AD1841401212046FFF758FE204643
:10262000BDE810400021FFF752BEB049884202D1F8
:102630000121041404E0AE4988420AD10121C413E7
:102640002046FFF73AFE2046BDE810400021FFF784
:1026500034BE10BD30B502884C8802F441530A885C
:10266000CD8822438C882C4322430C8922434C89F9
:1026700022438C892243CC8922431A430280828BD5
:1026800022F400628283098A018230BDF0B5022201
:102690000023858B01244FF2400635408583028458
:1026A000858B8E68022E38D08A8802B10224914A26
:1026B00013681B0203D5136823F4000313608D4ACB
:1026C0007C3213681268C3F388138A4EC2F3027215
:1026D000361F3668884F06F03F06B7FBF6F65E43B6
:1026E000B6FBF2F2CB88B3F5007F2BD06301B2FBCF
:1026F000F3F202EB82028B685200B2FBF3F2521D3E
:1027000092B20A23B2FBF3F202F00103D21A4FF69F
:10271000FF74C2F34F0204EA0323941EFE2C01D37C
:1027200002220023CC881A43144304840A884B886D
:102730001A438B8889890B431A432A4342F4006168
:102740008183F0BD120AD4E700210180418081809D
:10275000C180018141818181C1810721018270474E
:102760000021018041808180C180022282608181BC
:1027700070470029018802D041F0400101E021F0BA
:102780004001018070470029818B02D041F48061B3
:1027900001E021F4806181837047028822F40062A5
:1027A000028002880A4302807047B1F5804F018899
:1027B00003D021F480410180704741F48041FAE761
:1027C000A1F57E420188FF3A02D041F4807101E018
:1027D00021F48071018070470029818802D041F086
:1027E000040101E021F00401818070470029818803
:1027F00002D041F0100101E021F01001818070470A
:1028000030B5828B00234FF24004224082830222A3
:102810000284848B0A884FF48075B2F5007F00D063
:1028200002B92B464A888D8889892A4319430A436D
:10283000224342F40061818330BD808970478181E9
:1028400070470029018802D041F4005101E021F4D1
:10285000005101807047018841F480510180704728
:10286000012901D0008B7047808A7047008A704729
:10287000002A828801D00A4300E08A4382807047A0
:10288000090901238B40002A828899B201D00A43AA
:1028900000E08A43828070470246002012890A4283
:1028A00000D001207047C9430181704730B501F065
:1028B0000F030125024605FA03F40020A3B209091B
:1028C00005FA01F49188A4B2128921401A4202D07B
:1028D000002900D0012030BD01F00F0201219140FC
:1028E000C9430181704700000030014000380040BA
:1028F000003C00400838024000127A0010B5012167
:102900008C032046FFF7E3FC2046BDE81040002181
:10291000FFF7DDBC13490860704710B58A0721F046
:1029200003041149120F21440F23D1F808489340A2
:102930009C43C1F80848D1F8083890400343C1F8D7
:10294000083810BD0949C1F8DC0070470849086023
:1029500070470449002020310968C90500D50120CD
:10296000704700000038014000300140000027425D
:1029700000042742FE4910B5884206D101210846CD
:10298000FFF7A5FC002101205BE0B0F1804F09D0EA
:10299000F84988420DD101210220FFF78EFC002169
:1029A000022070E001210846FFF787FC002101208A
:1029B00069E0F149884206D101210420FFF77DFC3E
:1029C000002104205FE0ED49884206D10121082062
:1029D000FFF773FC0021082055E0E949884206D141
:1029E00001211020FFF769FC002110204BE0E54990
:1029F000884206D101212020FFF75FFC0021202022
:102A000041E0E149884206D101210220FFF75FFC45
:102A10000021022015E0DD49884202D101210C0489
:102A20000AE0DB49884202D101214C0404E0D94983
:102A300088420AD101218C042046FFF748FC00217E
:102A40002046BDE81040FFF742BCD349884206D17A
:102A500001214020FFF731FC0021402013E0CF4945
:102A6000884206D101218020FFF727FC0021802029
:102A700009E0CB4988420AD1841501212046FFF79D
:102A80001CFC00212046BDE81040FFF716BC10BD1D
:102A900030B50288B64CBC4DA0420DD0A8420BD038
:102AA000B0F1804F08D0B34B984205D0B24B98425A
:102AB00002D0B24B984203D122F070034A881A43E5
:102AC000AF4B984206D0AF4B984203D022F44073EC
:102AD0000A891A4302804A68C2620A880285A042B3
:102AE00001D0A84201D1897A01860121818230BDBD
:102AF0004FF0FF31416000210180018141808172EE
:102B00007047018582827047028822F070020A4372
:102B10000280704741627047C1627047406A7047E7
:102B2000008D70470029018802D041F0020101E0C8
:102B300021F00201018070470029018802D041F094
:102B4000040101E021F0040101807047002901889F
:102B500002D041F0800101E021F080010180704746
:102B6000028822F00802028002880A43028070472D
:102B7000028822F44072028002880A430280704771
:102B80000029018802D041F0010101E021F001019A
:102B90000180704730B5028C22F001020284028C61
:102BA0008388048B22F0020224F073050C882C43E6
:102BB0008D8915434A882A436D4DA84202D0724D33
:102BC000A8420DD122F00805CA8923F440732A4394
:102BD00022F004058A882A430D8A1D434B8A2B4321
:102BE0008380048389684163028430BD70B5028CA0
:102BF00022F010020284028C8388048B0D8824F456
:102C0000E6464FF6FF7404EA052535438E8922F027
:102C1000200204EA061616434A8804EA02123243E6
:102C2000534EB04202D0584EB04215D122F0800629
:102C3000CA8923F4406304EA0212324322F04006B8
:102C40008A8804EA021232430E8A04EA86061E4388
:102C50004B8A04EA83033343838005838968816355
:102C6000028470BD70B5028C22F480720284028CE2
:102C70008388848B0D8824F0730425438E894FF656
:102C8000FF7422F4007204EA062616434A8804EA16
:102C900002223243364EB04202D03B4EB04215D1F2
:102CA00022F40066CA8923F4405304EA0222324324
:102CB00022F480668A8804EA022232430E8A04EAF9
:102CC00006161E434B8A04EA03133343838085832D
:102CD0008968C163028470BD70B5028C22F4805291
:102CE0000284058C8288838B0C8823F4E6464FF699
:102CF000FF7303EA0424344325F400568D8903EA64
:102D0000053535434E8803EA06362E43184DA84252
:102D100002D01D4DA84205D122F480450A8A03EA5B
:102D200082122A438280848389680164068470BD8C
:102D3000002101804180818081608181C181018287
:102D40004182704730B50124058C00F118038C4096
:102D5000A543058431B308292CD0091FC1F34E00C7
:102D60001844016848F6FF731940016001681AE0D1
:102D7000000001400004004000080040000C00403A
:102D800000100040001400400004014000400140D9
:102D9000004401400048014000180040001C004071
:102DA0000020004006E04FF6FF7303EA02221143C1
:102DB000016030BD03EB510001684FF68F7319407D
:102DC00001600168F3E74163704781637047C16345
:102DD000704701647047028B22F070020A4302833D
:102DE0007047028B4FF6FF7322F4E04203EA0121A1
:102DF000114301837047828B22F070020A43828361
:102E00007047828B4FF6FF7322F4E04203EA012100
:102E1000114381837047028B22F008020A43028328
:102E20007047028B4FF6FF7322F4006203EA012120
:102E3000114301837047828B22F008020A43828388
:102E40007047828B4FF6FF7322F4006203EA012180
:102E5000114381837047028B22F004020A430283EC
:102E60007047028B4FF6FF7322F4806203EA012160
:102E7000114301837047828B22F004020A4382834C
:102E80007047828B4FF6FF7322F4806203EA0121C0
:102E9000114381837047028B22F080020A43028330
:102EA0007047028B4FF6FF73C2F30E0203EA012153
:102EB000114301837047828B22F080020A43828390
:102EC0007047828B4FF6FF73C2F30E0203EA0121B3
:102ED000114381837047028C22F002020A4302846C
:102EE0007047028C22F008020A4302847047028C69
:102EF0004FF6FF7322F0200203EA0111114301840F
:102F00007047028C4FF6FF7322F0800203EA011132
:102F1000114301847047028C4FF6FF7322F4007254
:102F200003EA0121114301847047028C4FF6FF73BD
:102F300022F4006203EA0121114301847047028CEC
:102F40004FF6FF7322F4005203EA0131114301846A
:102F5000704710B50123048C8B409C430484038C80
:102F60008A401343038410BD10B50423048C8B40A6
:102F70009C430484038C8A401343038410BD828BDA
:102F800022F440628283828B4FF6FF7303EA0121B1
:102F90000A4382837047828B22F00C028283828BE9
:102FA0000A4382837047028B22F440620283028BC1
:102FB0004FF6FF7303EA01210A4302837047F0B51D
:102FC000048C24F010040484078B068C4FF6FF74E5
:102FD00004EA011527F4734704EA0331394304EA8C
:102FE00002220A4326F0A001294341F01001028386
:102FF0000184F0BD028B22F00C020283028B0A4393
:10300000028370472DE9F0410C460E884988A2885A
:10301000238905460EB3042E26D0082E2E8C4FF69B
:10302000FF7028D026F480562E84AF8B2E8C00EAB9
:10303000022200EA013127F473473A4300EA0330E1
:10304000104326F420420A4342F48051A883298485
:10305000E1882846BDE8F04191E700F062F9E18897
:103060002846BDE8F041C5E7FFF7A9FFE1882846FB
:10307000BDE8F04197E726F480762E84AF8B2E8C46
:1030800000EA012100EA0310104327F0F307384358
:1030900026F420620A4342F48071A8832984E188DF
:1030A0002846BDE8F04176E70021018041800122F9
:1030B0008280C180018170472DE9F0410C460026D5
:1030C00049880746012501B90226A288012A00D1B4
:1030D0000225208823890028384610D0FFF76FFF8B
:1030E000E1883846FFF75FFF23892A463146384694
:1030F00000F017F9E1883846BDE8F0417AE700F0C2
:1031000010F9E1883846FFF775FF23892A463146D2
:103110003846FFF754FFE1883846BDE8F04142E702
:10312000406B7047806B7047C06B7047006C704796
:1031300010B50A884B88CC881A438B8823431A43DE
:103140000B891A434B8989891A430A43A0F8442002
:1031500010BD0021018041808180C18001814181B9
:1031600081817047002930F8441F02D041F40041AA
:1031700001E0C1F30E01018070470029818802D06F
:1031800041F0040101E021F0040181807047002931
:10319000818802D041F0010101E021F0010181802C
:1031A0007047002A828901D00A4300E08A43828165
:1031B00070478182704702460020128A0A4200D07E
:1031C00001207047C9430182704702460020138ADC
:1031D00092890B4202EA010202D0002A00D00120AB
:1031E0007047C943018270471143A0F848107047E7
:1031F000002A828901D00A4300E08A438281704715
:103200000029818802D041F0080101E021F0080185
:1032100081807047018921F007010181704702898F
:1032200022F070020A430281704700B50346FFF79F
:10323000F6FF188940F00700188100BD70B51646EA
:103240000D46602904464FF0010231460AD000F0D5
:1032500068F829462046FFF7E2FF208940F0070082
:10326000208170BDFFF7ABFEF3E730B504894FF660
:10327000FF7505EA03231343E4B20B4323430381A1
:1032800030BD10B50446FFF7F0FF208940F077000D
:10329000208110BD10B50446FFF7E7FF208940F4F8
:1032A0008040208110BD828822F070028280828856
:1032B0000A4382807047028922F007020281028954
:1032C0000A4302817047028922F08002028102894A
:1032D0000A430281704770B50589048B068C25F07E
:1032E00007050D434FF6FC410C4040F201110C4321
:1032F0004FF6FF7101EA031126F022061143314314
:1033000005810483018470BD0029818802D041F0C9
:10331000800101E021F0800181807047A0F8501009
:10332000704770B5048C24F001040484058B048C70
:103330004FF6FF7606EA0313134325F0F3052B43FC
:1033400024F00A020A4342F001010383018470BDA4
:10335000C74910B5884206D101211020FEF7B7FFFA
:103360000021102028E0C349884202D101214C04E9
:1033700010E0C149884202D101218C040AE0BF4912
:10338000884202D10121CC0404E0BD4988420AD11F
:1033900001210C052046FEF790FF2046BDE81040B5
:1033A0000021FEF78ABFB749884209D101212020B8
:1033B000FEF78DFF00212020BDE81040FEF787BFFB
:1033C00010BD7FB50446008A0D46C98820F44050E0
:1033D00001432182A08941F20C618843A9882A898E
:1033E00011436A8902431143A181A08A20F44071EC
:1033F000A8890843A0826846FEF77AFE9C4884426A
:1034000002D0A048844201D1039800E00298A1892B
:10341000090400EBC00101EB0010296801D5490047
:1034200000E08900B0FBF1F06422B0FBF2F1090189
:103430000B096FF018056B4300EB8300A3891D0493
:103440004FF0320306D503EBC000B0FBF2F000F002
:10345000070005E003EB0010B0FBF2F000F00F00F6
:10346000084320817FBD4FF4165101600021818007
:10347000C18001810C2242818181704710B5028A8E
:103480004C8822F470630A8822438C88C9880C43D4
:1034900022431A43028210BD0021018041808180B5
:1034A000C18070470029818902D041F4005101E0B8
:1034B00021F4005181817047028B02F47F42028324
:1034C000028B0A43028370470029818902D041F4AC
:1034D000004101E0C1F30E01818170470029818A1A
:1034E00002D041F4006101E021F400618182704763
:1034F000C1F30801818070478088C0F308007047DD
:10350000028A22F00F020282028A0A430282704774
:103510000029818902D041F0020101E021F002017D
:1035200081817047828922F40062828182890A4304
:1035300082817047028A22F020020282028A0A43B4
:10354000028270470029018A02D041F4804101E0E3
:1035500021F4804101827047818941F0010181811C
:1035600070470029818A02D041F0080101E021F072
:10357000080181827047028BD2B20283028B42EA39
:103580000121018370470029818A02D041F0200186
:1035900001E021F02001818270470029818A02D058
:1035A00041F0100101E021F0100181827047828A10
:1035B00022F004028282828A0A43828270470029B2
:1035C000818A02D041F0020101E021F002018182F2
:1035D0007047002A828A01D00A4300E08A4382822F
:1035E000704710B5C1F3421301F01F040121A1403F
:1035F000012B07D0022B07D01430002A026805D017
:103600000A4304E00C30F8E71030F6E78A43026022
:1036100010BD0246002012880A4200D001207047E7
:10362000C9430180704770B501F01F0501260024D1
:10363000C1F3421306FA05F2012B0FD0022B0FD073
:10364000838A4FEA11210088134206FA01F600EA44
:10365000060001D000B10124204670BD8389F0E747
:10366000038AEEE70A0A01219140C94301807047AD
:10367000001001400044004000480040004C004061
:1036800000500040001401400648804706480047AB
:10369000FEE7FEE7FEE7FEE7FEE7FEE7FEE7FEE702
:1036A000FEE7FEE7570200088901000801460020F6
:1036B00002E0401CC0B2491C0A78002AF9D17047C8
:1036C00070B50646FF480D461446807808B11120B3
:1036D00009E03378012B09D0022B07D0032B05D04A
:1036E000042B03D001201070002070BD02F0BEFA40
:1036F000034630692860FFF7D9FF0546184602F0F7
:10370000B9FA00202070284670BD70B50546ED4816
:103710000E461446807808B1122009E02B78012B60
:1037200008D0022B06D0032B04D0042B02D001209A
:10373000107070BD02F09AFA2E6102F09BFA002020
:10374000207070BD70B510F8385F847846780868CE
:1037500009E04319DA7AB243DA7202D1827AA243DB
:10376000827251F8040F0028F3D170BD70B502F0D9
:103770007DFAD44C0546A07898B9E07888B900F075
:10378000F4FBD148627950F82210A162207982427C
:1037900007D0C86B401CC863E068401CE06002F0C2
:1037A0007CFA2846BDE8704002F064BA70B5C54D99
:1037B0000022296AC1E90720016810E02C6A01F1A2
:1037C0000B0214F8383F64789E5C26439E542B6AA3
:1037D0008A7A93F83A301A438A7250F8041F002903
:1037E000ECD1286AB74B90F83810343390F8394050
:1037F0005A5CA2435A5404D190F83A10A8798843ED
:10380000A87170BD2DE9FF5F4FF00009DDF8388029
:10381000C1F8009000980D4616464FF0010B016864
:103820000BE00978012906D0022904D0032902D02F
:1038300088F800B00EE050F8041F0029F1D1A1482B
:10384000817809B1022103E09E48C07830B10D2192
:1038500088F80010002004B0BDE8F09F02F006FADE
:10386000009A002382461F46194614683DE02078DE
:10387000012811D0022818D0032801D0504680E03A
:10388000208930B1401E208110C5012346F8049BD9
:1038900024E041F0010126E0606818B101C6C4F8D7
:1038A000049019E041F002011DE06068B0F816C014
:1038B000BCF1000F15D0036903F1040CC0F810C06F
:1038C0001B6808C6D0F808C00369634501D1436886
:1038D0000361C38A5B1EC38210C501237F1CBFB274
:1038E00001E041F0040152F8044F002CBFD1012B3C
:1038F0001FD0744841F08001006A10F8342F0A4349
:1039000000F8042980F80590039901600098FFF7FA
:103910004DFF504602F0AEF9FFF728FF02F0A6F97E
:1039200084466848006A90F8351059B1022912D1CE
:1039300008E04C465046C5F8009002F09BF988F824
:1039400000403EE0C46924B1E5E801497F1CBFB2F4
:1039500004E080F835B00099FFF7F4FE594A116A87
:1039600091F8350028B10228C6F8009018D00A2135
:1039700017E0207801280ED002280CD0032807D0A9
:10398000604602F077F9C5F8009088F800B018E0BA
:10399000C6F8009001E0486A306088F8009002E0C4
:1039A0000E2188F80010106A80F8349080F8359065
:1039B00040F81C9FC0F80490C0F80890604602F0E0
:1039C00059F9384647E77CB53F4D00246946204603
:1039D00001F044FC58B955F8241041B1012906D032
:1039E000D1E9020200EB820088640198C864641C7B
:1039F000E4B2202CEAD97CBD324C02E0142001F064
:103A00000BFD60780028F9D0642160690025B0FBC7
:103A1000F1F0606118B92570FF2001F050FC02F050
:103A200025F9E169C4E9061502F024F9D4E9051085
:103A3000B0FBF1F0C0F16400207002F094F8FFF7E1
:103A4000C2FF0A2001F0E8FCE9E71E4C02F00EF983
:103A5000E169491CE16102F00DF902F081F8F5E736
:103A6000002203E0491E00F8012B89B20029F9D198
:103A7000704730B587B002F069F8124B00241C6320
:103A80009C70DC701C72DC71DC60DC619C615C61D0
:103A90005C709C7103F134012046401CC0B201F8F7
:103AA000014B0528F9D31C715C7107489C624FF4E7
:103AB000FD6184301C62FFF7D3FF84210248FFF7C9
:103AC000CFFF03E030000020C00F0020FE4800229E
:103AD00000F15C01FDA505654161521CD2B25C306C
:103AE0005C31152AF6D3F9A144610165F648DC6220
:103AF00058624FF4FA61A0F6D410FFF7B1FFF44812
:103B0000002200F1140100F8044BF0A540F80C1B52
:103B1000521C20C092B21431632AF4D30470EBA17A
:103B200044600161EA48186100F0D4FC00F05FFFD6
:103B300002A90325202081E83100E6484FF6FF71F5
:103B40000594CDE90010202300F17C020021AFF2A2
:103B5000051001F0D9F906AADFA1202001F01FFB12
:103B600002A9402081E83100DF484FF6FE7105943C
:103B7000CDE900101F2300F1FC020021AFF28710F5
:103B800001F0C2F906AAD9A11F2001F008FB01F03B
:103B90004EFF07B0BDE8304001F0DCBFD749C8791F
:103BA000012804D18878FF2801D2401C8870704712
:103BB00070B5D24CE079012823D102F057F8A178F2
:103BC000054621B1491E11F0FF00A07014D1E07824
:103BD00090B900F0CAF9BF496079803151F82010DE
:103BE000A1622279904207D0C86B401CC863E0688C
:103BF000401CE06002F056F82846BDE8704002F034
:103C000039B870BD10B5BD4CE07901280CD102F077
:103C10002DF8A17821B9E178FF2901D2491CE17082
:103C2000BDE8104002F026B810BD10B5B34CE079E5
:103C3000012813D102F01AF8E17831B1491E11F0D0
:103C4000FF01E17001D1A17819B1BDE8104002F087
:103C500011B802F00FF8BDE8104087E510BD10B5AF
:103C6000A64CE07900280DD100F07FF999496079E0
:103C70008031207151F82000A0622062BDE8104020
:103C800001F0FBBF10BD10B5022001F0C5FB01F033
:103C9000EDFF9A4C0021E16101F0ECFF0A2001F0F8
:103CA000BBFB01F0E3FFE169616101216170BDE8E7
:103CB000104001F0DFBF2DE9F04101F096FF01F067
:103CC000D5FF8E4D296B491C296301F0D3FFE8799C
:103CD00001283BD1687A0126002720B1012835D080
:103CE000022802D06F72EC6A2CE06E72FBE701F0E2
:103CF000BDFF216B19B3491E216320D194F8341004
:103D000011F0370F06D021F0370184F8341084F811
:103D1000356001E084F8357094F8341009070ED44A
:103D200094F83A10AA79754B1143A97194F8381098
:103D3000343394F839C05A5C42EA0C025A5464692C
:103D400001F098FF94F836002028D0D1BDE8F0812A
:103D500040F221107047704710B590F8382090F865
:103D600039408B18DA7AA243DA7204D18A7A90F851
:103D70003A0082438A7210BDF0B50F460546807A3C
:103D80005F49085C2C18E47A095D01EBC001CEB2F2
:103D90005049803151F8264000216762216394F830
:103DA0003410914384F8341084F8353009070BD46B
:103DB000524994F83A208B791A438A71343194F835
:103DC00039300A5C1A430A5429462046FFF7C4FFDB
:103DD000216A19B12046FFF7B5FCE5613046F0BD18
:103DE00030B5464C00F10B02216A41F81C0F0B7FE5
:103DF000497F9D5C0D439D54216A827A91F83A3047
:103E00001A43827291F8380004F1340391F8395062
:103E10001A5CAA431A5404D191F83A10A079884345
:103E2000A07130BD0022827211460B30491CC9B20C
:103E300000F8012B0529F9D3704705E011F8013B83
:103E4000521E00F8013B92B2002AF7D170472DE9CB
:103E5000F05F9846DDE90ABA91460E46054601F044
:103E600005FF264F7C6A002C7BD061691C34796287
:103E700001F000FF44F81C6CA576002626766676D5
:103E8000666144F810BC44E906A90C9824F80C0CAF
:103E900024F80A8CE808E6772077012305F007016B
:103EA00003FA00F2E176A27703FA01F26277266064
:103EB0006660E660A6602662A662666203A0E662AD
:103EC000C4E90C6000201DE0441000203F00000009
:103ED00070060020400F002075432F4F532D494995
:103EE0002049646C65000000400E002075432F4F90
:103EF000532D4949205374617400000030000020A4
:103F0000389206081C3C04EB8001401C4E6510F002
:103F1000FF00F8D0204601F066FE204601F01BFEAF
:103F200001F0A4FE0146174840F82540F86AC4E9AC
:103F3000050600B18461FC6294F83A00BA79104336
:103F4000B87114F8380F104A6478135C2343135483
:103F5000387A401C3872084601F08CFE00207BE461
:103F6000FFE701F087FE422076E40749074A34392B
:103F7000054B8879105C1B5CD25C02EBC000487179
:103F800070470000C00F002064000020389206082F
:103F90002DE9F041054600780F461E4614460528D7
:103FA00004D0012018700020BDE8F08114F08000DA
:103FB00002D022F08004012080460020307001F001
:103FC00055FE7022FCB1012C23D0022C08D0032C0A
:103FD00011D001F04FFE00246F2030702046E3E73F
:103FE000AC6821463C40BC4209D01CE0A14318E02B
:103FF00001F040FEF2E7AC6821463C4013D0B8F136
:10400000000FF5D0F2E7A96827EA0104BC4204D00A
:1040100009E0A96837EA010405D0B8F1000FE7D03C
:104020002143A960E4E73270E2E770B50646F8483C
:104030000D46007818B110200870002070BD01F006
:1040400015FEF4490C6864B162680A6005212170AC
:10405000A6600026F0A16660E16001F00BFE2E7004
:1040600003E001F007FE72202870204670BDD0E901
:10407000001200232AB1116001B14A608068836296
:104080007047C26800295160F8D04B60F6E710B560
:10409000024680680023C0E90B1390F8341031F019
:1040A000200180F8341080F8353005D00024104607
:1040B000FFF7DDFF204610BDD84990F83A300C7864
:1040C00023430B7010F8381FD54B40785C5C0443D9
:1040D0005C540124EBE72DE9F05F0446CC488846A8
:1040E0001646007808B10F2003E02078052802D09A
:1040F000012010701AE001F0B9FD656881460DB12C
:10410000012700E00027DFF80CA34FF0000BB8F107
:10411000000F06D0B8F1010F1FD001F0ABFD072052
:1041200003E037B101F0A6FD492030702046BDE81C
:10413000F09FB9A0E06084F800B0DAF80010C4E99C
:10414000011B5D464846CAF8004001F093FD17E0A8
:1041500000212846FFF79BFF2D68002DF8D1AEA067
:10416000E06084F800B0DAF80010C4E9011B5D4695
:104170004846CAF8004001F07DFD0FB1FFF7F6FA9E
:1041800035700020D3E72DE9F0410746A0480E46E0
:104190001446007810B1112010700AE001F066FD9D
:1041A00005463878052806D0284601F063FD012031
:1041B00020700020F8E6F8683060FFF777FA0646CE
:1041C000284601F057FD002020703046ECE670B51F
:1041D00005468F480E461446007810B11220107024
:1041E00070BD01F043FD2978052903D001F042FD9F
:1041F000012003E0EE6001F03DFD0020207070BD65
:10420000F0B5884D059E2C6894F8347047F020076F
:1042100084F83470002784F835702663A1620A613F
:104220000B758C604268C860C1E90027426802B122
:104230005160416028687A4B90F8381090F8394006
:104240005A5CA2435A5405D1744990F83A20087830
:1042500090430870F0BD2DE9F04F04466C4889B0DA
:104260009A460078129D91460F4608B102209BE0C5
:104270006D48007808B10D2096E02078052801D01F
:10428000012091E019F0800F03D029F08009012668
:1042900000E0002601F0EAFC07905FEA09004FF019
:1042A000000B23D0012837D0022808D0B9F1030F22
:1042B00013D0079801F0DEFC00206F2162E0A068B7
:1042C00000EA0708B8450ED032E020EA08002DE0E9
:1042D00054490968C1F82C8015E0A06800EA07017C
:1042E0005FEA010824D0002EF2D0EEE7A06827EAAA
:1042F0000008B8451CD116B140EA0800A060494842
:104300000068C0F82C80079801F0B4FC85F800B074
:10431000404609B0BDE8F08FA06827EA00015FEAD7
:10432000010805D0002ED3D040EA0800A060CFE7F6
:104330004B463A4601A92046CDF800A0FFF760FFA2
:10434000079801F097FCFFF711FA01F08FFCDFF8F6
:10435000D4808446D8F8000090F83570A7B180F872
:1043600035B05C4601A8FFF782FED8F8000080F85F
:104370003440604601F07EFC0020022F01D00A216B
:1043800000E00E212970C4E7C76AB6B15FEA0900F0
:1043900010D001280ED0022809D0B9F1030F06D0A1
:1043A000604601F067FC6F2028700020B1E7A0682C
:1043B000B84301E0A0683843A060604601F05AFCB1
:1043C00085F800B03846A4E710B501F04FFC154958
:1043D0000968CC6A01F04EFC204610BD2DE9F04181
:1043E0000546007814460E461F46052802D00120D7
:1043F00018702EE001F03AFC80462CB1012C15D04B
:1044000001F038FC712023E0A868B04310E0000000
:10441000320000206C0000203F0000003600002029
:10442000640000205000002033000020A8683043C2
:10443000A86000266C6828E0207DA0B1012819D072
:10444000022808D003280AD0404601F013FC6F2050
:1044500038700020A8E5A9682069014007E0A96834
:104460002069014009E02169AA6808469143884211
:1044700004D009E02169A868814329B12046FFF7EB
:1044800006FE012800D101262468002CD4D1404624
:1044900001F0F0FB012E01D1FFF768F901F0E6FB16
:1044A000AC6801F0E7FB0020387020467CE570B571
:1044B000054600780C46052803D00120087000202E
:1044C00070BD01F0D3FBAD6801F0D4FB002020707B
:1044D000284670BD10B550210E48FFF7C1FA0D48AF
:1044E000002200F11001134600F8043B40F8081BBD
:1044F000AFF2DC04521C10C092B21031042AF3D384
:104500000370AFF2EC014360C160034901480860E9
:1045100010BD00002C1800206C00002070B505466E
:1045200000780C46022803D001200870002070BDDE
:1045300001F09CFB6A680346D08A70B11169081DBE
:1045400010610D68D18A491ED1829168884201D1DB
:10455000506810610020207002E01F2020700025AC
:10456000184601F087FB284670BD2DE9F04106464C
:10457000FB488846007810B10020BDE8F08101F0CA
:1045800075FBF84F3C680CB16168396001F072FB53
:1045900014B301F06BFBF4490D68BDB12A680A60E1
:1045A00001F068FB06EB8800C5E90160EE602E6152
:1045B000A5F814800020E882022121702081EBA060
:1045C000656020612046FFF72DFC05E039686160D9
:1045D0003C6001F04FFB00242046CEE72DE9F04778
:1045E0000446007888461546022801D0012003E0E1
:1045F000DB48007810B10F2010701DE001F036FB91
:104600000746A07A08B1012600E000265FEA08000C
:10461000DFF85483DFF84CA34FF0000906D00128DF
:104620002AD0384601F026FB072004E03EB1384688
:1046300001F020FB492028702046BDE8F087CBA080
:1046400020616068D8F800204E460260C8F800007B
:1046500084F80090DAF800106160A4F808903846F9
:10466000CAF8004001F006FB2E7022E0002304226D
:1046700019462046FFF780FBA07A0028F6D1BBA0A0
:1046800020616068D8F800200260C8F8000084F853
:104690000090DAF800206260A4F80890C846384616
:1046A000CAF8004001F0E6FA0EB1FFF75FF885F8AE
:1046B00000800020C1E710B5044601F0D7FA616818
:1046C0004A68CA600A610022CA8201F0D3FA002057
:1046D00010BD2DE9F04706460078894614460228A9
:1046E00001D0012008E09E48007808B1022003E0D4
:1046F0009F48007818B10D20107000209DE701F050
:10470000B5FA054670680027C18A89B10269111D92
:1047100001611668C28A521EC2828268914201D12A
:1047200041680161284601F0A5FA2770304684E708
:10473000DFF84082D8F8000010F8341F41F004017F
:104740000170477040F8049C3046FFF749FB28464B
:1047500001F090FAFFF70AF801F088FA8146D8F8DC
:10476000000090F8351039B1022908D03146FFF722
:10477000F3FA00250A2004E0456A277002E00025CC
:104780000E202070D8F80010484681F8347081F867
:10479000357041F81C7F4F608F6001F06BFA28463E
:1047A0004BE72DE9F0410F460546017801201646FA
:1047B000022901D0107028E001F058FA8046A87A4A
:1047C000F0B10024012F0FD002230422002128463B
:1047D000FFF7D2FA0124404601F04CFAFEF7C6FF7B
:1047E0000E2030702046C8E602230422002128460D
:1047F000FFF7C2FA641CA87AE4B20028F4D1EAE711
:10480000404601F037FA002030700020B5E670B560
:10481000044600780E46022801D0012070BD01F048
:1048200025FA0546A07A58B10023042231462046D5
:10483000FFF7A2FA284601F01DFAFEF797FF19E0EC
:104840006068C18A828A914204D3284601F012FA34
:104850001E2070BDC1680A1DC2600E60C18A491C5D
:10486000C182D0E902128A4201D14168C160284662
:1048700001F000FA002070BD70B5044600780E46C5
:10488000022801D0012070BD01F0F0F90546A07AA0
:1048900058B10023042231462046FFF76DFA28461E
:1048A00001F0E8F9FEF762FF18E06068C18A828AC9
:1048B000914204D3284601F0DDF91E2070BD426804
:1048C0000169914201D181680161091F01610E6096
:1048D000C18A491CC182284601F0CCF9002070BD74
:1048E0002DE9F0410746007814460D46022801D014
:1048F000012042E601F0BAF90646B87AD0B1E007E5
:1049000009D00023042229463846FFF735FAB87A41
:104910000028F6D105E00023042229463846FFF797
:104920002BFA304601F0A6F9600701D4FEF71EFF0E
:10493000002022E67B68D88A998A884204D33046D0
:1049400001F098F91E2018E6A00715D559681869D6
:10495000884201D198681861001F1861056015E050
:104960003200002040000020700000203F000000C6
:104970003300002050000020D868011DD960056078
:10498000D3E90201814201D15868D860D88A401C1D
:10499000D882304601F06EF9CAE72DE9F0410746AA
:1049A00000780E46022801D00120E6E501F05EF90C
:1049B0000146B87A707307F10B0406F10805002070
:1049C000401C14F8012BC0B205F8012B0528F7D3C1
:1049D0007868C28A0AB1026912683260C28AB280FB
:1049E000808AF080084601F045F90020C5E510B541
:1049F0004FF4C0710948FFF733F80848002200F16E
:104A0000180140F8181B521C92B218310F2AF8D323
:104A10000021016002490148086010BD7C18002097
:104A20007000002070B505460078032801D00020F2
:104A300070BD01F01BF92C890CB1611E298101F0B8
:104A400019F9204670BD70B50546B548007808B123
:104A5000002070BD01F00AF9B2490C680CB162681F
:104A60000A6001F007F94CB1032020702581002075
:104A70006060ADA020612046FFF7D4F9204670BDEC
:104A80002DE9F0470446007888461546032801D0F2
:104A9000012003E0A248007810B10F2010701BE045
:104AA00001F0E4F80746A07A08B1012600E00026EC
:104AB0005FEA0800DFF86C924FF0000806D001288A
:104AC00024D0384601F0D6F8072004E03EB138463D
:104AD00001F0D0F8492028702046BDE8F08792A068
:104AE000206184F80080D9F800106160A4F8088083
:104AF00046463846C9F8004001F0BCF82E701BE06D
:104B00000023012219462046FFF736F9A07A002833
:104B1000F6D185A0206184F80080D9F80020626079
:104B2000A4F808803846C9F8004001F0A3F80EB197
:104B3000FEF71CFE85F800800020CEE72DE9F04747
:104B40000546007889461446032801D0012008E074
:104B50007348007808B1022003E07448007810B16F
:104B60000D201070B9E701F081F80646288900276A
:104B700030B1401E2881304601F07CF82770ACE748
:104B8000DFF8AC81D8F8000010F8341F41F00101C3
:104B90000170477040F8049C2846FFF721F9304621
:104BA00001F068F8FEF7E2FD01F060F80646D8F87B
:104BB000000090F8351031B1022906D02946FFF7E0
:104BC000CBF80A2002E0277001E00E202070D8F810
:104BD000000080F8347080F8357040F81C7F476022
:104BE0003046BDE8F04701F045B82DE9F0410F46E9
:104BF0000546017801201646032901D0107029E0EE
:104C000001F034F88046A87AF8B10024012F10D0C2
:104C10000223012200212846FFF7AEF80124404676
:104C200001F028F8FEF7A2FD0E2030702046BDE806
:104C3000F0810223012200212846FFF79DF8641C21
:104C4000A87AE4B20028F4D1E9E7404601F012F86E
:104C5000002030700020EAE770B504460078032891
:104C600001D0012070BD01F001F80546A07A58B1CD
:104C70000023012219462046FFF77EF8284600F05F
:104C8000F9FFFEF773FD09E020894FF6FF718842B6
:104C900006D2401C2081284600F0ECFF002070BDA9
:104CA000284600F0E7FF322070BD2DE9F0410646AE
:104CB00000780F46032801D00120B8E700F0D6FFA6
:104CC0000146B07AF871BC1C06F10B050020401CAF
:104CD00015F8012BC0B204F8012B0528F7D3308951
:104CE0003880084600F0C6FF0020A0E770B50446F3
:104CF00000780E461546032802D00120107070BDC2
:104D000000F0B4FF00212970218939B9A17A29B1B5
:104D100049212970BDE8704000F0ACBF2681F9E759
:104D200032000020400000203F000000330000203F
:104D3000500000202DE9F05F8946054600F096FFFF
:104D40008346FA4850F8291029B1584600F092FFDE
:104D50002820BDE8F09FFF2D03D1F549096891F89F
:104D6000365050F8251009B3012924D04FEAD90252
:104D7000012707FA02F309F0070EDEB207FA0EF375
:104D8000DCB2002340F8253040F8291091F8387043
:104D9000E84B91F8395091F83AA0D85D28421DD0DF
:104DA000A843DFF894C3D8550AD00FE0584600F066
:104DB00061FF2920CDE7584600F05CFF4320C8E79B
:104DC0009CF8000020EA0A008CF800009CF8000023
:104DD00030438CF80000985C20439854C869A0B117
:104DE00000EB070C9CF80B30AB438CF80B3005D173
:104DF00090F80AC02CEA0A0C80F80AC0837A334380
:104E000083721044C37A2343C3720B6A0BB31868CE
:104E10001DE000EB070898F80BC03CEA050C88F889
:104E20000BC005D190F80AC02CEA0A0C80F80AC021
:104E300090F80AC04CEA060C80F80AC0104490F8BA
:104E40000BC04CEA040C80F80BC053F8040F002888
:104E5000DFD101F8369F58468A7081F801E00E7163
:104E6000CC7000F007FFB5480078012801D1FEF7AB
:104E70007DFC00206DE72DE9FE431C4616460F46DB
:104E8000804600F0F3FEAE49097821B100F0F2FE51
:104E90003C20BDE8FE83A54D55F8241019B100F063
:104EA000E9FE2820F5E7012145F8241000F0E2FE94
:104EB000002332463946404600F057FE00260146A0
:104EC000009601963346324620460296FEF7BFFF13
:104ED000070007D000F0CAFE45F8246000F0CAFEC3
:104EE0003846D6E7954800780128F9D1FEF73EFC10
:104EF000F6E7D30707D0920705D50022002902D094
:104F000004C0491EFAE770472DE9FF4F83B01C46E5
:104F1000DDE91468DDE912799346DDF844A000F07C
:104F2000A5FE8749097829B100F0A4FE3C2007B00E
:104F3000BDE8F08F7D4D55F8241019B100F09AFEB0
:104F40002820F4E7012145F8241000F093FE3246B2
:104F500039465046FFF7CDFFDDE9030133465A4697
:104F600000F003FE0097CDE9019601465246204627
:104F7000109BFEF76CFF060008D000F077FE0021C2
:104F800045F8241000F076FE3046D0E755F824109E
:104F90006A4881F8588000780128F5D1FEF7E6FBD1
:104FA000F2E72DE9F04705466548007810B140204A
:104FB000BDE8F087202D05D000F058FE0646FF2DF5
:104FC00002D005E03E20F3E75948006890F83650DB
:104FD000DFF8589159F825405CB1012C0ED094F8B7
:104FE0003810544A94F83930505C984350540AD0E1
:104FF0000FE0304600F03EFE4320D9E7304600F097
:1050000039FE3D20D4E74C4894F83A20017891438A
:105010000170E16911B12046FEF79EFE216A11B1CF
:105020002046FEF78FFBA06A08B1FFF720F84FF08B
:105030000008C4F83080434F84F8348084F8358009
:105040003878FF2801D2401C3870304600F012FE3C
:10505000FEF781FE00F00AFE8246387808B1401E55
:105060003870204600F079FD374946460878401EE2
:10507000087049F82580A069D0B161694161D4E91F
:1050800005018161314801686161046030A02065DB
:1050900094F8580020B1A06802F04BF884F85860EA
:1050A000504600F0E7FD25480078012806D007E0CB
:1050B00060692849866160690860E3E7FEF756FB8E
:1050C000002075E710B50446202810D0FF2C10D022
:1050D00000F0CCFD154951F82410A1B1012916D0DA
:1050E0003F2281F83B2000F0C5FD002010BD3E208E
:1050F00010BD00F0BBFD0E49096891F83B4000F07F
:10510000B9FD204610BD00F0B5FD432010BD00F0F4
:10511000B1FD3D2010BD2DE9F041064608480F467F
:1051200014460078C0B11120107036E0C00F002086
:1051300050000020640000203600002037000020CE
:1051400032000020330000203800002054000020EE
:105150003F0000005C00002000F088FD0546FF2EA7
:1051600003D1A748006890F83660A64850F826009A
:10517000432670B101280CD0006D3860FEF796FA16
:105180000646284600F076FD002020703046BDE837
:10519000F081284600F06EFD26700020F7E770B51C
:1051A000054699480E461446007810B1122010703A
:1051B00070BD00F05BFDFF2D03D19149096891F8A6
:1051C0003650904951F8252043253AB1012A05D09F
:1051D000166500F04FFD0020207070BD00F04AFD04
:1051E000257070BD10B5044600F040FD854951F8AA
:1051F000241059B101290DD091F83420130729D575
:1052000032F0080281F8342008D009E000F032FDC5
:10521000462010BD00F02EFD432010BD0A6B1AB1D0
:1052200000F028FD002010BD784B91F83A201C7842
:1052300022431A7011F8382F754B49789C5C0C4347
:105240009C5400F017FD734800780128EAD1FEF75E
:105250008DFAE7E700F00EFD442010BD2DE9F04186
:105260000446002008600E46486000F0FFFCFF2C5A
:1052700003D16349096891F83640624951F8241016
:1052800051B1012908D00A7CD20709D0D1E90257CF
:10529000002400F0EFFC08E000F0ECFC432076E78F
:1052A00000F0E8FC452072E7641C01CD0028FBD02B
:1052B000A0003060381B80007060002067E770B588
:1052C000044600F0D3FC01464D48FF2C006805D091
:1052D00090F83600A04204D1012503E090F8364052
:1052E000FAE70025474850F8240058B101280ED0AD
:1052F00090F83820464C90F83960A35CB343A3542F
:105300000AD00FE0084600F0B5FC482070BD084602
:1053100000F0B0FC432070BD3C4A90F83A4013784E
:10532000A343137010F8342F42F0080202700846AD
:1053300000F0A0FC0DB1FEF719FA002070BD70B5A9
:105340000E46054600F092FC0446FF2D03D12C4882
:10535000006890F836502B4850F8251051B10129BB
:105360000DD05C223046FEF768FD204600F082FC3E
:10537000002070BD204600F07DFC292070BD204635
:1053800000F078FC432070BD70B515460E4604460B
:1053900000F06CFC0146FF2C0CD01A4850F8240099
:1053A00000EB8600446D084600F064FC0020287085
:1053B000204670BD12480068F2E72DE9F0411C4616
:1053C00015460E46074600F051FC0146FF2F0BD054
:1053D0000C4850F8270000EB86004565084600F0B1
:1053E00049FC00202070D2E605480068F3E7044835
:1053F00010B5006800F0B5FBBDE81040FF20D0E517
:1054000050000020C00F0020320000203600002095
:10541000640000203700002070B504464C48007836
:1054200000281DD1002C1BD000F020FC0346494869
:10543000494D016891F8382091F83960A85CB04373
:10544000A85405D1454891F83A500278AA43027011
:1054500018460C6300F00EFCBDE87040FEF786B9FC
:1054600070BD10B53A4C24780CB1552010BD6424A1
:105470005B1D63434FF47A74B3FBF4F34FF4616440
:1054800010FB04F0C1EB011100EB8100104400EBB4
:10549000C00101EB001003EB8000FFF7BDFF00200F
:1054A00010BD10B50446202801D32A2010BD00F0FD
:1054B000DDFB2B4951F8241091B1012910D00A6B62
:1054C00092B100230B6391F8342012F0370F0FD004
:1054D00022F0370281F83420012281F8352009E0DA
:1054E00000F0C8FB432010BD00F0C4FB502010BDED
:1054F00081F8353091F83420120711D4174A91F809
:105500003A3014782343137011F8382F124B49782E
:105510009C5C0C439C5400F0ADFBFEF727F901E0C6
:1055200000F0A8FB002010BD10B500F09FFB0D4956
:105530000C6800F09FFB204610BD10B5044600F03B
:1055400095FB08490C60BDE8104000F093BB0000DB
:1055500032000020500000206400002036000020AF
:10556000C00F0020600000202DE9F04102F0BAF9E0
:105570004FF47A76B0FBF6F106FB110402F0B2F9B3
:10558000B0FBF6F12246F1A061F0C6FFF3A061F096
:10559000C3FFF6A061F0C0FF0024F54F02F0A2F9AE
:1055A000B0FBF6F106FB110502F09CF9B0FBF6F139
:1055B0002A46E6A061F0B0FF04EB041007EB800080
:1055C00021464268EBA061F0A7FFE8A061F0A4FFCC
:1055D000641C142CE2DBBDE8F0812DE9F05F82460B
:1055E000E648DDF828B00C9D00781F4690468946B5
:1055F00008B18B202AE0FEF705FBE148002604688D
:10560000ECB1E1680160DF48E66026610188491C71
:105610000180DD490888401E0880A4B1012084F87B
:105620002500C4E906A984F82480C4E9017B0B980D
:105630002062FEF7FAFA2E702046BDE8F09FFFF7D1
:1056400093FF3446E9E7FEF7F0FA86202870002041
:10565000F3E7002180F8251080F82410C161416132
:105660004160CAA2816002620161C5490A68C260E4
:105670000860C4490888401E0880C3490888401C47
:105680000880704710B5017DC14A01F0070102EBA7
:10569000C10100240B68C268834203D10A602AB1A9
:1056A000146103E00369DA6002B11361012280F83A
:1056B0002520C46004618888401E888010BD70B5B4
:1056C000054600780C46642801D0892003E0AB48E9
:1056D000007810B18B2008701EE0FEF793FA95F861
:1056E0002510A9B1002601290AD0022908D00329D2
:1056F00003D0FEF79AFA8D200DE02846FFF7C2FF8F
:105700002846FFF7A6FFFEF790FA2670012070BD2D
:10571000FEF78BFA87202070002070BD70B505461B
:1057200000780E461446642801D0892003E093488F
:10573000007810B1112010701DE0FEF763FA95F8A3
:105740002520A2B1012A07D0022A05D0032A03D0BE
:10575000FEF76BFA8D200DE0286A3060FDF7A6FF9A
:105760000546FEF762FA00212170284670BDFEF75B
:105770005CFA87202070002070BD2DE9F0410546BD
:1057800000780C46642801D0892003E07B4800782B
:1057900010B18B2008702CE0FEF734FA95F8250044
:1057A00018B30026012810D002281AD0032803D0ED
:1057B000FEF73BFA8D201BE0764968690968451AB7
:1057C000FEF733FA2670284605E795F82400AF69FE
:1057D000022801D107B9EF69FEF727FA267038468B
:1057E000F9E6FEF722FA267003E0FEF71EFA87209C
:1057F00020700020EFE670B5044600780D4664285E
:1058000001D0892003E05D48007818B18B20087032
:10581000002070BDFEF7F6F994F825403CB1012C4C
:1058200005D0022C03D0032C01D08D2000E00020F5
:105830002870FEF7FAF9204670BD032280F8252073
:10584000544A0129126814D0816991B1114441610F
:10585000017D4F4A01F0070102EBC10100230A68F4
:10586000086042B1C26010618A88521C8A8003615C
:105870007047C169EAE70122C360F7E770B50546E2
:1058800000780C46642801D0892003E03B4800786A
:1058900010B18B2008701FE0FEF7B4F995F82510C1
:1058A000B1B1002601290AD0022908D0032903D06A
:1058B000FEF7BBF98D200EE02846FFF7E3FE00213E
:1058C0002846FFF7BAFFFEF7B0F92670012070BD39
:1058D000FEF7ABF987202070002070BD2DE9F04164
:1058E0000546007817460E461C46642801D08920DC
:1058F00003E02248007810B18B2018705CE0FEF7BE
:1059000081F995F8250000B301284CD002284AD02F
:10591000032803D0FEF789F98D204CE02846FFF7D5
:10592000B1FE00202070BEB38F20032E03D0042EC2
:1059300005D0842032E06A687AB3A96802E06A6818
:105940005AB339462846904729E031E05B453A2072
:1059500025642E253033645D200000006F732064C1
:10596000756D705F74696D65720000000D0A00004E
:10597000FC1900207425643A2578000032000020CC
:105980008400002076000020740000203F0000000A
:105990004C2000207800002001E0FFE72070FEF797
:1059A00044F9012017E6FEF740F98E202070F8E751
:1059B000FEF73BF98720207000200CE64B4800687A
:1059C000FFF74AB908B5DFF82481DFF82491494E82
:1059D0006A460021D8F80000FFF7B0F8FEF712F988
:1059E0003068401C306000F00700022759F8304052
:1059F00013E060693168E56888420DD12046FFF701
:105A000041FE94F8240002280CD084F825706268C6
:105A100012B12046A16890472C46002CE9D1FEF730
:105A200004F9D5E701212046FFF707FFEFE770B53E
:105A300088B04FF4AA613048FEF712F840212C4894
:105A4000FEF70EF82C48002200F1440114466423AE
:105A500000F8253B00F8194940F8141BAFF2D405B3
:105A6000521C92B2443140F8245B132AF0D30370E5
:105A700080F82540AFF2EC01C46001621D48204966
:105A800004601E480480142008801E491A480860DB
:105A90000120FEF7D8FF1C4D28600020FEF7D3FF41
:105AA000124E06AA19A130602868FDF72EFE06AA3C
:105AB0001BA13068FDF729FE402102910320CDE9AA
:105AC00003401C484FF6FD710594CDE9001000F12C
:105AD000FC020E2300211848FFF716FA07AA17A1A7
