:020000040800F2
:10000000D84A0020F14600086D3005089D0100081F
:100010002B3105082F310508333105080000000099
:10002000000000000000000000000000034700087E
:1000300037310508000000001F78000857770008D6
:100040000B4700080B4700080B4700080B47000848
:100050000B4700080B4700080B4700080B47000838
:10006000553105080B4700080B4700080B470008EF
:100070000B4700080B4700080B4700080B47000818
:100080000B47000829E404080B4700080B47000849
:100090000B4700080B4700080B47000839310508DB
:1000A0000B4700080B4700080B4700080B470008E8
:1000B000EDF6040889EC04080B4700080B4700081C
:1000C0000B4700080B4700080B47000801230508F1
:1000D0000B470008351B05080B470008831B050864
:1000E0003B3105080B4700080B4700080B47000889
:1000F0000B4700080B4700080B4700080B47000898
:100100000B470008470C05080B4700080B47000881
:100110000B4700080B4700080B4700080B47000877
:100120000B470008B7EE04080B4700080B47000810
:1001300025ED040871F904080B4700080B47000877
:100140000B4700080B4700080B4700080B47000847
:100150000B4700080B4700080B4700080B47000837
:100160000B4700080B4700080B4700080B47000827
:100170000B4700084DDE0508518E05080B470008A7
:100180000B4700080B470008DFF80CD081F0BEF9E0
:1001900000480047FD220608D84A00201EF0040F40
:1001A0000CBFEFF30880EFF3098052F060BF00004E
:1001B0000CB50020019000907648006840F4803033
:1001C0007449086000BF7348006800F40030009074
:1001D0000198401C0190009818B90198B0F5A04F03
:1001E000F1D16C48006800F4003010B1012000909B
:1001F00001E0002000900098012846D16548403079
:10020000006840F0805063494031086062480068EF
:1002100040F44040604908605E48083000685D492D
:10022000083108600846006840F40040086008464D
:10023000006840F4A05008605848091F0860081F73
:10024000006840F08070091F086000BF51480068D6
:1002500000F000700028F9D040F2056050490860B5
:100260004C480830006820F003004A490831086013
:100270000846006840F00200086000BF45480830AA
:10028000006800F00C000828F8D10CBD10B54548F6
:10029000006840F47000434908603E48006840F040
:1002A00001003C49086000203A490831086039489B
:1002B00000683D490840374908603C48091D08600E
:1002C000081F006820F48020091F086000203149C1
:1002D0000C310860FFF76CFF4FF000603149803946
:1002E000086010BD70B50020002202230024022106
:1002F000284D08352D6805F00C0020B1042806D0E3
:10030000082834D107E02A4D2A4E356033E02A4DC3
:10031000284E35602FE01F4D2D1D2D68C5F38054EC
:100320001C4D2D1D2D6805F03F0154B1224DB5FB2C
:10033000F1F5184E361D3668C6F3881605FB06F231
:1003400009E01B4DB5FBF1F5124E361D3668C6F3BC
:10035000881605FB06F20F4D2D1D2D68C5F30145CE
:100360006D1C6B00B2FBF3F5124E356003E0104DCF
:10037000104E356000BF00BF064D08352D68C5F32F
:1003800003150E4E705D0B4D2D68C540094E35604E
:1003900070BD00000038024000700040086C40074B
:1003A000003C024088ED00E0FFFFF6FE1030002424
:1003B0000024F4000000002000127A000400002055
:1003C00032490143324A1160704770B50021002361
:1003D0000F22C4781CB32E4C246804F4E064C4F5E6
:1003E000E064C4F30721C1F10404E3B20A41447894
:1003F0009C40E1B28478144021430C07210E254C27
:1004000005786155047804F01F050124AC40057897
:100410006D11AD0005F1E025C5F8004109E0047853
:1004200004F01F050124AC401B4D0678761145F8F9
:10043000264070BD194A0A400243154B1B1F1A6023
:10044000704739B1124A121D12680243104B1B1D2E
:100450001A6006E00E4A121D126882430C4B1B1DE7
:100460001A607047042808D14FF0E021096941F073
:1004700004014FF0E022116107E04FF0E02109692B
:1004800021F004014FF0E022116170470000FA05ED
:100490000CED00E000E400E080E100E080FFFF1FE1
:1004A00001B581B0002000900198009002E0009812
:1004B000401E009000980028F9D10CBD10B5FE48F0
:1004C000006840F00070FC4908606420FFF7E8FF16
:1004D000F948006820F00070F749086010BD01215C
:1004E0000160002141608160C16001614FF4804181
:1004F000416100218161C1614FF40061016200210D
:1005000041628162C162016341638163C1634021D1
:1005100001642021416400218164C1640165416559
:100520008165C16501668021416600218166C166E1
:10053000016741678167C1674FF08061C0F8801033
:100540004910C0F884100021C0F888104FF4001141
:10055000C0F88C100021C0F89010C0F89410C0F8BA
:100560009810C0F89C10C0F8A0104FF00071C0F8AF
:10057000A4104912C0F8A8108901C0F8AC104912A3
:10058000C0F8B0100021C0F8B410C0F8B81070471F
:1005900038B503460C46002100200090C748016989
:1005A00001F01C014FF4784000EAC32001434FF4EE
:1005B000F86000EA8410014341F0020141F00101BA
:1005C000BE484261016100BF0098401C0090BB48DA
:1005D000016901F0010018B1B94D0098A842F3D3A8
:1005E000B74D0098A84201D1002038BD0120FCE79A
:1005F00018B502460B46002100200090AF48016963
:1006000001F01C014FF4784000EAC22001434FF48E
:10061000F86000EA8310014321F0020141F001017A
:10062000A648016100BF0098401C0090A3480169E2
:1006300001F0010018B1A24C0098A042F3D3A04CE5
:100640000098A04201D1002018BD9C48406980B2AA
:10065000FAE72DE9FC4104460F464FF0000800BFC1
:100660000020019000BF00909448056925F01C050A
:100670009449D4F8BC0000FB01F69348864205D3A8
:100680009248864202D245F008051AE08F48864219
:1006900005D38F48864202D245F00C0511E08C4804
:1006A000864203D38B48864200D20AE089488642BC
:1006B00005D38948864202D245F0040501E045F0A1
:1006C00010057E4805614FF4004200213846FFF7CF
:1006D0005FFF10B90020BDE8FC818048FFF7E0FE15
:1006E0002068002854D000BF0098401C009064206F
:1006F00009F067FC01213846FFF77AFF00F004009B
:1007000018B96F4900988842EED36D490098884225
:1007100001D10020DFE7002000904FF4805200213B
:100720003846FFF735FF08B90020D4E700BF00982E
:10073000401C0090642009F044FC01213846FFF77A
:1007400057FF00F0200018B95D4900988842EED3A9
:100750005B490098884201D10020BCE7002000904E
:100760001F213846FFF744FF804608F0100018B1FB
:100770004FF40060206201E00020206208F00400D5
:1007800010B10020606116E04FF48040606112E01B
:10079000206AC0F3CF006169C1F34F0140EA010252
:1007A00000213846FFF7F4FE08B9002093E76FF008
:1007B0007F40FFF775FE4148056849480540D4E988
:1007C00001010843E168084321690843616908435E
:1007D000A1690843E1690843216A0843616A084343
:1007E000A16A0843E16A0843216B0843616B08432F
:1007F000054332480560D4E90E010843216C0843E3
:10080000616C0843A16C0843E16C0843216D084307
:10081000616D084329494860A06D8860E06DC8603B
:10082000084685694FF641700540B4F86010606E67
:1008300040EA0140A16E0843E16E0843216F08437E
:10084000616F084305431D488561D4E91E010843D3
:100850001A49C8612348856923480540D4E9200125
:100860000843D4F888100843D4F88C100843D4F80F
:1008700090100843D4F894100843D4F89810084313
:10088000D4F89C100843D4F8A01008430543154839
:100890008561D4E929010843D4F8AC100843D4F8A1
:1008A000B0100843D4F8B41040EA8100D4F8B8106E
:1008B000084340F4000019E0103802400080024074
:1008C000FFFF040040420F00002D3101C00E160250
:1008D0000087930300E1F50580D1F008FFFF0F00CA
:1008E0000F8120FF00900240233FDEF8FE490860A0
:1008F0000846006840F0800008600120EBE630B157
:10090000F949896941F00201F74A916105E0F64928
:10091000896921F00201F44A9161704730B1F249CE
:10092000896941F40051F04A916105E0EE49896915
:1009300021F40051EC4A9161704730B1EB490968EC
:1009400041F00401E94A116005E0E849096821F035
:100950000401E64A11607047E348806940F4801062
:10096000E1498861704730B1E049096841F0080108
:10097000DE4A116005E0DD49096821F00801DB4A23
:100980001160704700B50120FFF7EDFFFFF7E4FFAE
:100990000120FFF7D2FF0120FFF7C0FF0120FFF782
:1009A000AEFF00BD0020D149896901F0010109B104
:1009B000012000E000207047CC48806940F0010031
:1009C000CA498861704730B1C849896941F001015D
:1009D000C64A916105E0C549896921F00101C34A10
:1009E0009161704701460020C04A926B0A400AB1EB
:1009F000012000E00020704701460020BB4A926BB6
:100A00000A400AB1012000E00020704729B1B74A2E
:100A1000D26B8243B54BDA6304E0B44AD26B024333
:100A2000B24BDA63704710B50B794C7943EA042274
:100A3000AE4B03441A64CB781B068C7843EA04431C
:100A40004C7843EA04230C7843EA0402A74B03449E
:100A50005A6410BD0246A54B1344186C030A4B712F
:100A60000871A24B1344586C030ECB70030C8B70AF
:100A7000030A4B700870704741B19C4A0244126CE3
:100A800042F00042994B03441A6407E0974A02443B
:100A9000126C22F00042954B03441A6470470829F7
:100AA00008D0924A0244126C42F080428F4B0344B9
:100AB0001A6407E08D4A0244126C22F080428B4B8C
:100AC00003441A647047894A0244126C22F07C5233
:100AD000864B03441A64854A0244126C0A43834BD2
:100AE00003441A6470471EB500210022009201924F
:100AF00002927F4A12681268C2F30D42111F0091E0
:100B00007C4A12689268012A05D97A4A12681268EA
:100B10009268019203E0764A126892680192744AE0
:100B200012680292724A1268D268714B1A609DE88C
:100B30001C0080E81C001EBD0FB500210191029130
:100B4000039100916FE00099491C00916849096880
:100B5000096801F40071A1B165490968096801F4E7
:100B6000807171B962490968624A12681160012195
:100B7000604A126891605E490968C9685C4A116000
:100B800051E05B490968096801F4807191B95849DD
:100B90000968096801F4007161B9564909688968F2
:100BA000491C544A1268916051490968C968504A01
:100BB000116038E04E4909684E4A126851604D494B
:100BC00009688968491C4B4A12689160494909685B
:100BD0008968012904D146490968464A12681160AA
:100BE000434909680968C1F30D41091F0191414951
:100BF00009688968012905D93E4909680968896831
:100C0000029103E03A490968896802913849096804
:100C1000039137490968C968354A116001A90EC9AD
:100C200080E80E000FBD32490968096801F00041F3
:100C300011B90099022986D301A90EC980E80E00D6
:100C400000BFEFE770B502460023002500242A48C4
:100C50000068006800F0004008B1002070BD264820
:100C6000016840F2F450824208DD92FBF0F392FBFF
:100C7000F0F600FB162010B15B1C00E00123012BF5
:100C80001AD11D480068006840F040501A4E36687E
:100C90003060C2F30C00184E366870601648006869
:100CA000006840F00040144E36683060124800681A
:100CB000C068114E306034E000242EE03CB90E488C
:100CC0000068006840F080500B4E3668306040F29B
:100CD000F4504860581EA04219D1086840F00050F6
:100CE0000860581E0AE000000090024000800240A8
:100CF000180000201C00002014000020C0EBC010D1
:100D000000EB4000A2EB8005C5F30C0048600868CA
:100D100040F000400860C968641C9C42CED3F9488A
:100D20000160F948406900F0040020B10420F64E4B
:100D3000706100207060012090E770B50C4613468A
:100D40000021F24D286000BF18E000EB41124FF087
:100D50000045156044F2F4555560C1EBC11505EB33
:100D6000450504EB850595605D1E8D4204D900EBB9
:100D700041152035D56000E0D060491C9942E4D38C
:100D8000E14DE860E24DE34E356070BDDF4800683C
:100D9000006800F0004098B9DC480068006800F482
:100DA000807068B1D9480068DA4909684860D94854
:100DB00000688068401CD749096888600120704736
:100DC000D2480068006800F00040F0B9CF480068E1
:100DD000006800F40070C0B1CC480068006800F4FE
:100DE000807090B9C9480068CA4909680860002045
:100DF000C849096848600120C64909688860C34835
:100E00000068C068C14908601DE0C048006800680B
:100E100000F00040B8B9BD480068006800F40070F8
:100E200088B9BA480068006800F4807058B9B948B9
:100E300000688068401CB74909688860B34800684A
:100E4000C068B24908600020B9E730B50C461346C7
:100E50000021AC4D286000BF15E000EB41124FF4BB
:100E600080151560C1EBC11505EB450504EB850543
:100E700095605D1E8D4204D900EB41152035D5608B
:100E800000E0D060491C9942E7D39F4D286130BDF6
:100E90000246002013680B400BB1012000E0002047
:100EA000704701460868C0F3C3007047016841F00D
:100EB00000410160704721B1026842F08042026047
:100EC00003E0026822F080420260704702680A4331
:100ED0000260704702680A430260704721B10268ED
:100EE00022F00062026003E0026842F000620260E9
:100EF000704721B1026842F48012026003E0026888
:100F000022F480120260704721B1026822F08062F0
:100F1000026003E0026842F080620260704710B530
:100F200041EA024443682343436010BD0246002067
:100F300013680B400BB1012000E00020704702460F
:100F4000002013690B400BB1012000E00020704726
:100F5000016841F000410160704701460868C0F334
:100F60000D40704721B1426822F00042426003E028
:100F7000426842F0004242607047024619B1506830
:100F8000C0F30C4070479088C0F30C00FAE700B53E
:100F900002460023106800F0004058B9106800F4C1
:100FA000004038B9106800F4807018B11046FFF79F
:100FB000D4FF0346184600BD30B15349096841F0DB
:100FC0008001514A116005E04F49096821F0800114
:100FD0004D4A116070474C48006840F001004A4992
:100FE0000860704700204849096801F0010109B113
:100FF000012000E00020704701460020424A52696B
:101000000A400AB1012000E0002070473E494861D3
:10101000704729B13C4AD26902433B4BDA6104E094
:10102000394AD2698243384BDA6170470146002061
:10103000354A52690A400AB1012000E00020704799
:101040003149486170473048406900F001007047FD
:101050002D48406900F04000704700202A49896906
:1010600001F4801109B1012000E000207047014621
:101070000020254A126A0A400AB1012000E000203F
:1010800070472148006AC0F34A4070471E48006A12
:1010900080B270471C48806C70471B48C06C70471A
:1010A0001948006D70471848406D70470020164978
:1010B00048607047002014498860704712494862B0
:1010C000704770B506460D46002400213046FFF7F4
:1010D0008FFA044615B144F4804402E04BF6FF70E9
:1010E0000440224600213046FFF752FA08B10120A1
:1010F00070BD0020FCE70848C06A40F00040064987
:10110000C8627047140000200090024018000020C0
:10111000780700201C0000200080024001460020CB
:1011200000BF04E051F82020744B9A62401C08284C
:10113000F8D3704730B17149C96A41F400716F4A00
:10114000D16205E06D49C96A21F400716B4AD16230
:10115000704701460020694AD26A0A400AB101205C
:1011600000E00020704730B16449C96A41F00401D1
:10117000624AD16205E06149C96A21F004015F4A0F
:10118000D162704730B15D49C96A41F002015B4AE2
:10119000D16205E05949C96A21F00201574AD1627A
:1011A000704730B15549C96A41F00101534AD162D3
:1011B00005E05249C96A21F00101504AD1627047E5
:1011C0004F48006840F030004C49C1F800017047BA
:1011D0004B48006820F020004849C1F8000108464B
:1011E000D0F8000140F01000C1F80001704738B19C
:1011F0004349096841F00801404AC2F8001106E07D
:101200003F49096821F008013C4AC2F800117047C3
:1012100038B13B49096841F00401384AC2F800116D
:1012200006E03749096821F00401344AC2F8001188
:10123000704738B13249096821F002012F4AC2F8DB
:10124000001106E02E49096841F002012B4AC2F85C
:10125000001170472A48006840F001002749C1F892
:101260000001704700F0805292B120F0805039B1F7
:10127000234A0C3212688243204BC3F80C2117E03A
:101280001F4A0C32126802431C4BC3F80C210FE0BA
:1012900039B11B4A103212688243184BC3F810212F
:1012A00006E0174A103212680243144BC3F81021AB
:1012B00070470146002001F080526AB1104A121DA9
:1012C00012680A4032B10E4A0C3212680A400AB95A
:1012D00001200EE000200CE0094A083212680A40A2
:1012E00032B1074A0C3212680A400AB9012000E004
:1012F00000207047014601480858704700800240AE
:101300000081024010B50121080201F06CFD0021AE
:101310004FF4807001F067FD10BD30B5024600202B
:1013200000235068FB4C20400D790C6844EA0524EA
:10133000204350609068F84C2040D1E903542C437E
:101340008D682C434D7944EA450420439060D06A6F
:1013500020F470000C7D641EE4B2234340EA035085
:10136000D06230BD00210160017141718160C160B6
:1013700001610121017570470021E84A1168E84ABE
:101380001140D0E900231A4383681A43C3681A4303
:101390001143E44AC2F80413704700210160416020
:1013A0008160C160704721B1826842F001028260B1
:1013B00003E0826822F00102826070470A46002141
:1013C0004168D94B194011434160704741628262C4
:1013D00070470A460021416821F01F011143416016
:1013E000704738B1CD49096841F40001CD4AC2F8CF
:1013F000041306E0C949096821F40001C94AC2F88A
:101400000413704738B1C549096841F48001C54AE1
:10141000C2F8041306E0C149096821F48001C14AF9
:10142000C2F804137047F0B504460D4600200021B1
:10143000092D11DDE068A5F10A0606EB460707262F
:1014400006FA07F18843A5F10A0606EB460603FAF9
:1014500006F10843E0600CE0206905EB450707262C
:1014600006FA07F1884305EB450603FA06F108433F
:101470002061072A0FDA606B561E06EB86071F26CF
:1014800006FA07F18843561E06EB860605FA06F1B2
:101490000843606322E00D2A0FDA206BD61F06EBAB
:1014A00086071F2606FA07F18843D61F06EB860635
:1014B00005FA06F10843206310E0E06AA2F10D0688
:1014C00006EB86071F2606FA07F18843A2F10D06F0
:1014D00006EB860605FA06F10843E062F0BD816876
:1014E00041F0804181607047816821F080418160D6
:1014F0007047014600208A6802F480020AB1012088
:1015000000E00020704721B1826842F4806282606E
:1015100003E0826822F480628260704721B18268B1
:1015200042F00202826003E0826822F002028260DE
:10153000704710B50A4600210023416821F460413C
:10154000531E41EA4331416010BD21B1426842F46B
:101550000062426003E0426822F400624260704729
:101560000146C86C80B270470146C86C00B2704733
:101570006A48001D0068704721B1826842F4807299
:10158000826003E0826822F480728260704721B139
:10159000826842F40072826003E0826822F4007282
:1015A0008260704738B15D49096841F400515D4A75
:1015B000C2F8041306E05949096821F40051594A58
:1015C000C2F804137047F0B5044615460020002207
:1015D0000026092911DDE068A1F10A0707EB470C95
:1015E000072707FA0CF29043A1F10A0707EB470718
:1015F00003FA07F21043E0600CE0206901EB410CB4
:10160000072707FA0CF2904301EB410703FA07F2B0
:1016100010432061A06BC0F30156EF1C06F1010CD2
:10162000A7EB0C0707EB870C1F2707FA0CF2904378
:10163000EF1C06F1010CA7EB0C0707EB870701FA7B
:1016400007F21043A063F0BD10B50A460021002345
:10165000816B21F44011531E41EA0351816310BD97
:1016600008B5002300930090009B0B440093009B5F
:101670001A6008BD0A460021816821F470211143D7
:10168000816070470A460021816821F440111143AE
:1016900081607047816841F4800181607047014634
:1016A00000208A6802F480020AB1012000E00020D4
:1016B000704721B1426842F48062426003E04268B0
:1016C00022F480624260704721B1426842F4805245
:1016D000426003E0426822F480524260704708B5DD
:1016E000024600200090009201F12800009B18445F
:1016F00000900098006880B208BD10B50B4600212C
:10170000D9B2012404FA01F182B144680C43446067
:101710000FE00000FFFEFFFCFDF7FFC004230140C7
:10172000E030FCFF00200140FFFD3FFF44688C4398
:10173000446010BD0246002013680B400BB101202D
:1017400000E000207047CA430260704770B502464F
:101750000020002300240B12556801268E4005EA64
:10176000060415681D4015B10CB1012000E00020F1
:1017700070BD00220A12D3430360704710B50121E7
:10178000480701F01FFB00214FF0005001F01AFB49
:1017900010BD30B5002200237B4C226840F6FE7459
:1017A0008440A243D1E900452C438D682C43CD6889
:1017B00044EA050303FA00F42243734C226030BD6F
:1017C0000021016041608160C160704739B16E4A9B
:1017D0001268012383401A436B4B1A6006E06A4A81
:1017E0001268012383409A43674B1A60704710B513
:1017F00051B1654A121D126804090123A3401A431E
:10180000614B1B1D1A6009E05F4A121D1268040932
:101810000123A3409A435C4B1B1D1A6010BD40B1CD
:101820005949091D096841F00301574A121D116009
:1018300007E05549091D096821F00301524A121DAC
:101840001160704710B53AB14F4B1B6801FA00F4B4
:1018500023434D4C236006E04B4B1B6801FA00F418
:10186000A343494C236010BD08B500220092464AAC
:10187000009200F10802009B1A440092009A116045
:1018800008BD08B5002200923F4A009200F1140200
:10189000009B1A440092009A116008BD30B50024E4
:1018A0000023082802D142EA012401E042EA01446F
:1018B000354B00F120052B441C6030BD08B50146B6
:1018C00000200090304800902C2000EB9100009AFE
:1018D000104400900098006880B208BD41B12A4AC7
:1018E00012684FF4805383401A43274B1A6007E075
:1018F000254A12684FF4805383409A43224B1A6062
:10190000704710B53AB1204B1B6801FA00F423432D
:101910001D4C236006E01C4B1B6801FA00F4A34336
:10192000194C236010BD10B502460020164B34330D
:101930001B6801FA02F423400BB1012000E00020F3
:1019400010BD01FA00F2104B34331A60704730B505
:101950000246002000230C4C246801FA02F504EA38
:101960000503094C3434246801FA02F52C4014B103
:101970000BB1012000E0002030BD01FA00F2024B63
:1019800034331A6070470000007400400020624940
:101990000860C8601F20486100208861C861086233
:1019A0004862704700215C4A126844F201039A437E
:1019B000594B1A601A46116840F6F2729143028838
:1019C00043881A4383881A43C3881A4303891A43F6
:1019D00043891A4383891A4311434F4A1160704760
:1019E0000021018041808180C1800181418181810C
:1019F00070474188028841EA0241474A1162C18822
:101A0000828841EA0241444A5162704730B14249FA
:101A1000096841F00401404A116005E03E49096847
:101A200021F004013C4A116070470178427841EA94
:101A30000221827841EA0241C27841EA0261364AD3
:101A40009161704730B13449096841F00801324A68
:101A5000116005E03049096821F008012E4A116043
:101A6000704730B12C49096841F480412A4A11601D
:101A700005E02949096821F48041274A116070472F
:101A800030B12549096841F00101234A116005E0A0
:101A90002149096821F001011F4A116070471E4861
:101AA000806A704729B11C4AD26802431A4BDA6037
:101AB00006E0194AD268C3439BB21A40164BDA605B
:101AC000704710B50146002000230A13012A02D1F5
:101AD000114CA36806E0022A02D10F4C636801E0B2
:101AE0000D4C236903EA01040CB1012000E0002041
:101AF00010BD094948617047014600200022064B8D
:101B00001B6903EA01020AB1012000E000207047CE
:101B1000014948617047000000000550016821F04C
:101B2000010101600021016041608160C1600161CB
:101B300021214161DB49884204D13D21D94A103A33
:101B400091608CE0D7491831884205D14FF4746117
:101B5000D44A103A916082E0D2493031884205D1AE
:101B60004FF47411CF4A103A916078E0CD49483172
:101B7000884205D14FF07461CA4A103A91606EE014
:101B8000C8496031884204D1C749C64A103AD16079
:101B900065E0C4497831884204D1C449C14A103A49
:101BA000D1605CE0BF499031884204D1C049BD4A50
:101BB000103AD16053E0BB49A831884205D14FF0BB
:101BC0003D51B84A103AD16049E0BA49884204D13F
:101BD0003D21B84A083A116041E0B64918318842BF
:101BE00005D14FF47461B34A083A116037E0B14946
:101BF0003031884205D14FF47411AE4A083A116071
:101C00002DE0AC494831884205D14FF07461A94AB2
:101C1000083A116023E0A7496031884204D1A24903
:101C2000A44A121F11601AE0A2497831884204D1F7
:101C30009E49A04A121F116011E09E4990318842CE
:101C400004D19B499B4A121F116008E09949A831B1
:101C5000884204D14FF03D51964A121F11607047DF
:101C600010B500220268944B1A40CC680B682343DD
:101C70004C6923438C692343CC6923430C6A234377
:101C80004C6A23438C6A23434C6B23438C6B234362
:101C90001A430260426922F00702D1E90B34234360
:101CA0001A4342610B6943604B6883608B68C36071
:101CB00010BD0021016041608160C160016141612E
:101CC0008161C161016241628162C16201634163FC
:101CD0008163704721B1026842F00102026003E0B3
:101CE000026822F001020260704721B1026842F4EA
:101CF0000042026003E0026822F400420260704782
:101D000021B1026842F02002026003E0026822F082
:101D1000200202607047416070470146486880B207
:101D2000704722B1036843F40023036003E00368B3
:101D300023F4002303600161704721B1026842F47B
:101D40008022026003E0026822F480220260704771
:101D50000AB1016100E0C1607047014600200A68D5
:101D600002F400220AB1012000E000207047014681
:101D700000200A6802F001020AB1012000E0002000
:101D80007047014600204A6902F03800704730B5BC
:101D900003460A4600200024464DAB4202D2414988
:101DA000103901E04349103902F000550DB14C687B
:101DB00000E00C68414D2C4004EA02050DB1012001
:101DC00000E0002030BD02463A4B9A4202D235482C
:101DD000103801E03748103801F000531BB1374B81
:101DE0000B40C36002E0354B0B408360704710B579
:101DF00001F080034BB122B1436943F0800343619A
:101E000003E0436923F08003436180290BD02AB1AA
:101E1000036801F01E042343036004E0036801F03B
:101E20001E04A343036010BD70B5024600200024C9
:101E30000025204EB24202D21A4B103B01E01D4B4E
:101E4000103B1F4E0E4036B11E2606EAD1241668FE
:101E500006EA040502E0566906F0800501F0005626
:101E60000EB15C6800E01C68144E344004EA0106C0
:101E700016B10DB1012000E0002070BD02460D4BEF
:101E80009A4202D20748103801E00A48103801F09F
:101E900000531BB1094B0B40C36002E0074B0B40E2
:101EA00083607047106002403D000020400F00201A
:101EB00000003D20106402403F801CF07D0F7D0F2C
:101EC0003C0F3C0F002044490860091D0860091DB3
:101ED0000860091D086041483F4914310860704797
:101EE00000213D498279002A3AD00A4612680368E7
:101EF0009A430B461A600A1D126803689A430B1D29
:101F00001A60027911440A6803681A430A60324A67
:101F10000832126803689A432F4B08331A601A1D5F
:101F2000126803689A432C4B0C331A604279102ACA
:101F30000ED11A1F126803681A43274B08331A6020
:101F40001A1D126803681A43234B0C331A600DE004
:101F50002149427911440A6803681A430A6005E07E
:101F6000027911440A6803689A430A6070470021A5
:101F7000016001710C214171002181717047164986
:101F8000103109680143144A10321160704701464C
:101F90000020114A143212680A400AB1012000E000
:101FA000002070470C49143108607047014600203A
:101FB0000022094B1B6803EA0102074B14331B681C
:101FC0000B4013B10AB1012000E000207047024924
:101FD0001431086070470000003C0140FFFF7F00A3
:101FE00030B943F2DB028100A1F1C0410A6005E093
:101FF00043F2D2028100A1F1C0410A606FF0704249
:10200000411C8900A1F1C0410A608100A1F1C041D9
:10201000C1F80421704730B5002100220023046874
:10202000A400A4F1C0442168FE4C2140D0E9014540
:102030002C43C5682C4305692C4345692C438569AD
:102040002C43C5692C43056A2C43456A2C43856A99
:102050002C43C56A2C43056B2C4321430468A40020
:10206000A4F1C04421608468082C0BD10468A4004A
:10207000A4F1C044246844F040050468A400A4F11D
:10208000C04425600468641CA400A4F1C044226814
:1020900002F04042446B2468456B6D6844EA0514C5
:1020A000456BAD6844EA0524456BAD8944EA0544B7
:1020B000456B2D8A44EA0554456B2D7D44EA056441
:1020C000456BAD692C4322430468641CA400A4F151
:1020D000C0442260C46AB4F5804F24D10468A400CF
:1020E000A4F1C044D4F8043103F04043846B246865
:1020F000856B6D6844EA0514856BAD6844EA052478
:10210000856B2D8A44EA0554856B2D7D44EA056470
:10211000856BAD692C4323430468A400A4F1C0443B
:10212000C4F8043107E06FF070450468A400A4F11E
:10213000C044C4F8045130BD002101600221416057
:1021400000218160C160016141618161C161016201
:102150004FF480514162490081620021C1620163F4
:10216000B14941638163704751B18200A2F1C0421D
:10217000126842F001038200A2F1C042136009E03C
:102180008200A2F1C0421268A84B1A408300A3F15A
:10219000C0431A60704710280AD118214FF020421E
:1021A0001166402151664FF0FC319166D16610E016
:1021B00018219F4A116040214FF02042C2F884103C
:1021C0004FF0FC319A4A083211604FF02042C2F8B9
:1021D0008C10704730B50021002200230468102CB9
:1021E00003D14FF02044216E01E0914C2168914CC5
:1021F0002140446844F0080485682C43C5682C439A
:1022000005692C43456944EA4524856944EA453417
:1022100021430468102C03D14FF02044A26E02E049
:10222000834C083422680022C4692468C5696D683B
:1022300044EA0524C5692D8944EA0544C5692D7B16
:1022400044EA056422430468102C03D14FF0204473
:10225000E36E02E04FF02044E36E0023046A24683A
:10226000056A6D6844EA0524056A2D8944EA054437
:10227000056A2D7B44EA056423430468102C05D1CC
:102280004FF020442166A266E36608E0684C2160B6
:102290004FF02044C4F88820654C0C34236030BDD6
:1022A00010210160002141608160C16001614161D4
:1022B0008161FC21C2691160C2695160C26991608B
:1022C000C269D160026A1160026A5160026A91605B
:1022D000026AD160704799B1102808D14FF02042AE
:1022E000126E42F004024FF020431A661DE0504A7D
:1022F000126842F004024FF02043C3F8802014E03B
:10230000102809D14FF02042126E484BDB1E1A40B4
:102310004FF020431A6608E0454A1268434BDB1E23
:102320001A404FF02043C3F88020704799B110281D
:1023300008D14FF02042126E42F040024FF020438D
:102340001A661DE03A4A126842F040024FF02043FC
:10235000C3F8802014E0102809D14FF02042126EFB
:10236000324B3F3B1A404FF020431A6608E0304A98
:1023700012682E4B3F3B1A404FF02043C3F8802099
:10238000704701460020102903D14FF02042506FC2
:1023900002E0274A1432106870471820244920317F
:1023A000086000200906C1F8A4004FF0FC30204965
:1023B00028310860091D0860091D0860704770B564
:1023C0000021002200230024194D203529681A4DD0
:1023D0002940056845F01005466845EA46258668A7
:1023E00045EA463529434FF02045C5F8A010104D69
:1023F00028352A680022C5682D68C668766845EACF
:102400000625C668368945EA0645C668367B45EA2C
:1024100006652A434FF02045C5F8A820044D2C3509
:102420002B680BE08000F7FF3C370808FEFF0F0029
:10243000800000A08101F0FFCD01FEFF00230569AF
:102440002D680669766845EA06250669368945EAF3
:1024500006450669367B45EA06652B434FF0204565
:10246000C5F8AC30824D2C68002445692D6846695A
:10247000766845EA06254669368945EA064546698D
:10248000367B45EA06652C434FF02045C5F8B04041
:1024900070BD0021016041608160FC21C268116053
:1024A000C2685160C2689160C268D16002691160FF
:1024B00002695160026991600269D16042691160EC
:1024C00042695160426991604269D160704748B188
:1024D00067491039096841F004014FF02042C2F801
:1024E000A01008E0624910390968624A11404FF0B3
:1024F0002042C2F8A010704710B5F2B1102807D1E1
:102500004FF020435B6E0B434FF02044636632E094
:10251000B0F5807F08D1564B2C3B1B680B434FF026
:102520002044C4F8843026E0514B0C3B1B680B431D
:102530004FF02044C4F8A4301DE0102807D14FF01C
:1025400020435B6E8B434FF02044636613E0B0F58D
:10255000807F08D1464B2C3B1B688B434FF02044B7
:10256000C4F8843007E0424B0C3B1B688B434FF0B0
:102570002044C4F8A43010BD10B50246002000234A
:10258000102A03D14FF02044636E09E0B2F5807F3A
:1025900003D1374C2C3C236802E0354C0C3C2368BB
:1025A00003EA01040CB1012000E0002010BD102856
:1025B00007D14FF02042526E8A434FF020435A66B3
:1025C00013E0B0F5807F08D1294A2C3A12688A437B
:1025D0004FF02043C3F8842007E0254A0C3A1268E4
:1025E0008A434FF02043C3F8A420704770B50246D9
:1025F0000020002300240025102A03D14FF020469C
:10260000736E09E0B2F5807F03D1194E2C3E33681A
:1026100002E0174E0C3E336803EA010403EAD105D9
:1026200014B10DB1012000E0002070BD102808D1C8
:102630004FF02042526E22EAD1024FF020435A66F8
:1026400015E0B0F5807F09D1094A2C3A126822EAD8
:10265000D1024FF02043C3F8842008E0044A0C3A2A
:10266000126822EAD1024FF02043C3F8A420704739
:10267000B00000A0FBFF0F0010B504468C48844258
:1026800008D10121084600F06AFB0021012000F07A
:1026900066FB5EE08748844208D10121022000F0F9
:1026A0005EFB0021022000F05AFB52E08248844287
:1026B00008D10121042000F052FB0021042000F089
:1026C0004EFB46E07D48844208D10121082000F0FD
:1026D00046FB0021082000F042FB3AE078488442A3
:1026E00008D10121102000F03AFB0021102000F059
:1026F00036FB2EE07348844208D10121202000F0EF
:102700002EFB0021202000F02AFB22E06E488442AC
:1027100008D10121402000F022FB0021402000F0E0
:102720001EFB16E06948844208D10121802000F098
:1027300016FB0021802000F012FB0AE0644884426E
:1027400007D10121801500F00AFB0021A01500F03F
:1027500006FB10BDF0B50A4600210023002400BF8F
:102760003DE0012505FA01F3156805EA03049C42E2
:1027700034D105684F000326BE40B5430560157986
:102780004E00B5400668354305601579012D02D02D
:102790001579022D16D185684F000326BE40B5433A
:1027A000856055794E00B54086683543856045683B
:1027B00001268E40B5434560456896798E40B6B295
:1027C00035434560C5684F000326BE40B543C5602C
:1027D000D5794E00B540C6683543C560491C1029FF
:1027E000BFD3F0BD4FF6FF7101600021017141714F
:1027F0008171C171704708B54FF480320092009A20
:102800000A430092009AC261C161009AC261C26922
:102810000092C269009208BD0246002013690B4075
:102820000BB1012000E0002070470146086980B22A
:1028300070470246002053690B400BB1012000E0B5
:10284000002070470146486980B270470183704795
:10285000418370470AB1018300E0418370474161C1
:10286000704742694A4042617047F0B50023002436
:102870004D07ED0E02FA05F3CE1000F1200555F8D4
:1028800026504E07F70E0F26BE40B543CF1000F17D
:10289000200646F82750CE1000F1200555F82650A6
:1028A00045EA0304CE1000F1200545F82640F0BDAE
:1028B000000002400004024000080240000C0240F8
:1028C000001002400014024000180240001C0240A8
:1028D00000200240F948006840F00100F749086014
:1028E0000020F64908310860F4480068F4490840BF
:1028F000F2490860F348091D0860F348EF49843144
:102900000860F0481038091D0860EC48006820F4A1
:102910008020EA4908600020E8490C310860E74956
:102920008C31086070470021E44A921C11701146F6
:102930000870704710B501460022002300204A119C
:10294000012A02D1DD4C236808E0022A03D1DB4CC6
:102950007034236802E0D94C7434236801F01F02FC
:10296000012494401C400CB1012000E0002010BD67
:1029700038B5002000900024002500BF3120FFF76B
:10298000D9FF05460098401C00900098B0F5A04F74
:1029900001D0002DF2D03120FFF7CCFF08B1012487
:1029A00000E00024204638BD01460020C34A1068DC
:1029B00020F0F80040EAC10010607047C349086089
:1029C00070470021BD4A703211701170012802D089
:1029D00004280AD104E00121B84A7032117005E0E0
:1029E0000521B64A7032117000E000BF00BF704789
:1029F000B7490860704770B5049C41EA821501260A
:102A0000C6EB530645EA0645054345EA0465AB4E69
:102A1000361D356070BDAD4908667047820142EAD7
:102A20000172A64B84331A607047A84988667047C4
:102A300010B5830143EA016343EA02739F4C883473
:102A4000236010BDA14908677047A049C86470475A
:102A500002460020994B0833186820F0EC6042EAE7
:102A600001031843954B0833186070470246002055
:102A7000924B0833186820F0784042EA010318436B
:102A80008E4B083318607047014600208B4A08328D
:102A9000106820F003000843106070478748083032
:102AA000006800F00C00704701460020834A08329D
:102AB000106820F0F00008431060704701460020C5
:102AC0007E4A0832106820F4E050084310607047D6
:102AD00001460020794A0832106820F4604040EA3C
:102AE000C10010607047F0B50021002200240225CB
:102AF00000260223714F08373F6807F00C0121B10F
:102B0000042905D0082937D105E0724F076036E067
:102B1000714F076033E0694F3F1D3F68C7F3805630
:102B2000664F3F1D3F6807F03F036EB16A4FB7FB2A
:102B3000F3F7DFF888C10CF1040CDCF800C0CCF32B
:102B4000881C07FB0CF40CE0624FB7FBF3F7DFF8CF
:102B50006CC10CF1040CDCF800C0CCF3881C07FB42
:102B60000CF4564F3F1D3F68C7F301477F1C7D00A3
:102B7000B4FBF5F7076002E0564F076000BF00BFE7
:102B80004E4F08373F6807F0F0010909534F7A5C50
:102B90000768D7404760494F08373F6807F4E0515E
:102BA000890A4E4F7A5C4768D7408760434F0837A1
:102BB0003F6807F46041490B484F7A5C4768D7404B
:102BC000C760F0BD002100F44072B2F5407F0AD129
:102BD0003A4A0832116821F4F811414A024011437F
:102BE000364A08321160354A70321268C0F30B035E
:102BF0001A43324B70331A607047354944390860C4
:102C0000704733494039086070473649086070475B
:102C100001460020294A8C32106820F440100843F5
:102C20001060704701460020244A8C32106820F45E
:102C30004000084310607047014600201F4A8C3254
:102C4000106820F01F004A1E10431C4A8C3210608E
:102C5000704701460020194A8C32106820F4F85061
:102C60004A1E40EA0220154A8C3210607047014625
:102C70000020124A8C32106820F440300843106063
:102C8000704719490860704739B10C4A30321268F0
:102C900002430A4B30331A6006E0084A30321268A9
:102CA0008243064B30331A607047F9B1034A34321D
:102CB00012680243014B34331A601CE000380240B2
:102CC000FFFFF6EA103000240030002000004742E9
:102CD000800E47420024F40000127A0024000020F5
:102CE000FFFCFF0F5C014742E01147428F4A126828
:102CF00082438E4B1A60704739B18C4A121D12689C
:102D000002438A4B1B1D1A6006E0884A121D126896
:102D10008243864B1B1D1A60704739B1834A0C32BF
:102D200012680243814B0C331A6006E07F4A0C3272
:102D3000126882437D4B0C331A60704739B17B4A6D
:102D4000103212680243794B10331A6006E0774A5A
:102D5000103212688243754B10331A60704739B1D4
:102D6000724A243A12680243704B243B1A6006E010
:102D70006E4A243A126882436C4B243B1A607047B7
:102D800039B16A4A203A12680243684B203B1A6004
:102D900006E0664A203A12688243644B203B1A6080
:102DA000704739B1614A1C3A126802435F4B1C3BC1
:102DB0001A6006E05D4A1C3A126882435B4B1C3B7A
:102DC0001A60704739B1594A143A12680243574B96
:102DD000143B1A6006E0554A143A12688243534B7A
:102DE000143B1A60704739B1504A103A12680243D6
:102DF0004E4B103B1A6006E04C4A103A1268824370
:102E00004A4B103B1A60704739B1484A1C3212686D
:102E10000243464B1C331A6006E0444A1C321268D7
:102E20008243424B1C331A60704739B13F4A20320B
:102E3000126802433D4B20331A6006E03B4A2032C1
:102E400012688243394B20331A60704739B1374AD0
:102E5000243212680243354B24331A6006E0334AA9
:102E6000243212688243314B24331A60704739B1DF
:102E70002E4A2C32126802432C4B2C331A6006E087
:102E80002A4A2C3212688243284B2C331A6070472E
:102E900039B1264A303212680243244B30331A606B
:102EA00006E0224A303212688243204B30331A60E7
:102EB0007047012808D11D493C31096841F00801DB
:102EC0001A4A3C32116007E018493C31096821F088
:102ED0000801164A3C321160704739B1134A273A4B
:102EE00012780243114B273B1A7006E00F4A273A2B
:102EF000127882430D4B273B1A7070470B484030C5
:102F0000006840F080700949403108607047014610
:102F10000020064A283A12680A400AB1012000E05F
:102F20000020704701492639087070473438024044
:102F300010B501214020FFF723FF00214020FFF7BB
:102F40001FFF10BD30B12149096841F004011F4A3B
:102F5000116005E01D49096821F004011B4A116058
:102F600070471A4808300068704730B1174909683F
:102F700041F00801154A116005E01449096821F083
:102F80000801124A11607047014600200F4A121DC5
:102F900012680A400AB1012000E0002070476FEA81
:102FA00000110A4A121D1160704701460020074AAD
:102FB000121D12680A400AB1012000E0002070478B
:102FC000C143C9B2014A121D116070470008065082
:102FD00010B50121C802FFF706FF00214FF4006081
:102FE000FFF701FF10BD00216C4A116847F6FF6230
:102FF0009143027D83681A4343681A43C3681A43A6
:1030000003681A4303691A431143644A1160704705
:1030100000210175016041608160C16001617047FC
:103020005F49086070475D49091F086070475B4849
:10303000001F006800F0030070470021574B1B1D64
:1030400002681A601A1D11686FF30A01D0E90123A2
:103050001A43C3681A4303691A4311434F4A08329B
:10306000116070470021016041608160C1600161B1
:1030700070474A480C300068C0B2704708B5014636
:1030800000200090454810300844009000980068E7
:1030900008BD0021414B203302681A601B1D4268A5
:1030A0001A601A1D116821F0F701D0E902231A43B2
:1030B00003691A4343691A431143384A283211609D
:1030C00070474FF0FF310160002141608160C160B5
:1030D00001614161704731482C30006870472F48CA
:1030E0007C30006870472D497C31086070472B4860
:1030F0004430006870472B49086070472949091D12
:1031000008607047274908310860704725490C312D
:10311000086070472449086070472349091D08600A
:10312000704701218143204A0832116070471E49CF
:103130000C31086070471B4914390860704739B179
:10314000164A383212680243144B38331A6006E0CC
:10315000124A383212688243104B38331A60704773
:10316000014600200D4A303212680A400AB101209F
:1031700000E000207047094934310860704701467B
:103180000020064A303212680A400AB1012000E0ED
:10319000002070470149343108607047042C014019
:1031A000A0802542A0852542AC81254210B5044669
:1031B000F748844208D101218014FFF714FE002152
:1031C000A014FFF710FE16E0F248844208D1012156
:1031D0000014FFF7F7FD00212014FFF7F3FD0AE0CC
:1031E000ED48844207D10121C013FFF7EBFD002118
:1031F000E013FFF7E7FD10BD10B50022028802F4CE
:1032000041520B884C8823438C882343CC8823432A
:103210000C8923434C8923438C892343CC89234342
:103220001A430280838B4FF2FF74234083830B8AFF
:10323000038210BD2DE9F04F002502230024012751
:1032400000220026944690469146B0F81CA04FF20A
:10325000400B0AEA0B0AA0F81CA04FF0020AA0F8E3
:1032600020A0858BD1F808A0BAF1020F01D100BFD0
:103270006CE0B1F804A0BAF1000F01D1012700E021
:103280000227DFF818A3DAF800A00AF4000ABAF15E
:10329000000F09D0DFF804A3DAF800A02AF4000A2E
:1032A000DFF8F8B2CBF800A0DFF8F0A20AF17C0A50
:1032B000DAF800A0CAF38818DFF8E0A20AF17C0A65
:1032C000DAF800A0CAF30279DFF8D0A2AAF1040A62
:1032D000DAF800A00AF03F0CDFF8C4A2BAFBFCFA4F
:1032E0000AFB08FABAFBF9F6B1F806A0BAF5007FB6
:1032F0000ED14FEA162A0AEB8A0A4FEA4A0AD1F897
:1033000008B0BAFBFBFA0AF1050A1FFA8AF20FE0CD
:103310004FEA471AB6FBFAFA0AEB8A0A4FEA4A0A58
:10332000D1F808B0BAFBFBFA0AF1050A1FFA8AF2D3
:103330004FF00A0AB2FBFAF202F00104A2EB040A0F
:10334000CAF34F034FF6FF7A0AEA0424022B01DB8B
:10335000FF2B01DD02230024B1F806A04AEA040A8B
:103360004AEA030AA0F820A0B1F804A0B1F80CB012
:103370004AEA0B0AB1F802B04AEA0B0AB1F800B007
:103380004AEA0B0A4AF4006A4AEA05058583BDE861
:10339000F08F0021018041808180C18001814181C5
:1033A0008181C18107210182704700210180418014
:1033B0008180C1800221816000218181704721B11B
:1033C000028842F04002028004E002884FF6BF7398
:1033D0001A400280704721B1828B42F4806282835E
:1033E00004E0828B4FF6FF331A40828370470288D5
:1033F0004FF2FF731A40028002880A43028070472E
:10340000B1F5804F04D1028842F48042028004E08A
:1034100002884BF6FF731A40028070474FF6FF6236
:10342000914204D0028842F48072028004E0028853
:103430004FF6FF631A400280704721B1828842F044
:103440000402828004E082884FF6FB731A40828077
:10345000704721B1828842F01002828004E08288A5
:103460004FF6EF731A408280704730B50022002378
:10347000848B4FF240052C40848302240484828B89
:103480000C88B4F5007F01D00C8814B94FF4807318
:1034900008E00C88B4F5407F03D00C88B4F5807F39
:1034A00000D100238C888D892C434D882C431C43EC
:1034B00044F400642243828330BD0146888970470A
:1034C0008181704721B1028842F40052028004E0F9
:1034D00002884DF6FF731A4002807047018841F45C
:1034E00080510180704702460020012901D0108BD5
:1034F00000E0908A70470146088A70471AB18388B5
:103500000B43838002E083888B438380704730B510
:10351000002400230C110125A540ABB21AB1858807
:103520001D43858002E085889D43858030BD02462D
:10353000002013890B400BB1012000E000207047F0
:10354000CA4302817047F0B50246002000240023E0
:10355000002501F00F070126BE40B4B20B11012671
:103560009E40B3B2968806EA03051689264016B136
:103570000DB1012000E00020F0BD10B5002201F0E7
:103580000F040123A3409AB2D343038110BD00006E
:103590000030014000380040003C00400838024044
:1035A00000127A0010B501218803FFF71CFC0021EE
:1035B0004FF48040FFF717FC10BD1A4908607047B0
:1035C00030B500228B071C0F0F2303FA04F2154BB2
:1035D00008338C1053F824309343124C08348D1068
:1035E00044F8253023468C1053F824308C07240FE0
:1035F00000FA04F423430B4C08348D1044F82530B2
:1036000030BD0949086070470849086070470020CC
:1036100004492031096801F4807109B1012000E0FA
:103620000020704700380140DC0027420004274298
:1036300010B50446FE48844208D101210846FFF730
:10364000D2FB00210120FFF7CEFB9DE0B4F1804FBB
:1036500008D101210846FFF7B5FB00210120FFF743
:10366000B1FB91E0F348844208D101210220FFF729
:10367000A9FB00210220FFF7A5FB85E0EE4884426C
:1036800008D101210420FFF79DFB00210420FFF752
:1036900099FB79E0E948844208D101210820FFF72D
:1036A00091FB00210820FFF78DFB6DE0E448844288
:1036B00008D101211020FFF785FB00211020FFF722
:1036C00081FB61E0DF48844208D101212020FFF71F
:1036D00079FB00212020FFF775FB55E0DA48844292
:1036E00008D101210220FFF77EFB00210220FFF715
:1036F0007AFB49E0D548844209D101210804FFF74B
:1037000072FB00214FF48030FFF76DFB3CE0D048A6
:10371000844209D101214804FFF765FB00214FF4E1
:103720000030FFF760FB2FE0CA48844209D1012135
:103730008804FFF758FB00214FF48020FFF753FB6C
:1037400022E0C548844208D101214020FFF73AFB1E
:1037500000214020FFF736FB16E0C048844208D124
:1037600001218020FFF72EFB00218020FFF72AFB9C
:103770000AE0BB48844207D101218015FFF722FBF4
:103780000021A015FFF71EFB10BD00220288A84BE8
:1037900098420ED0AC4B98420BD0B0F1804F08D07D
:1037A000A44B984205D0A44B984202D0A34B984218
:1037B00004D14FF68F731A404B881A43A04B98429E
:1037C00007D0A04B984204D04FF6FF431A400B8914
:1037D0001A4302804B68C3620B880385944B98425E
:1037E00002D0994B984201D18B7A038601238382C0
:1037F00070474FF0FF31416000210180018141801D
:10380000817270470185828270470A4600210188D3
:103810004FF68F7319401143018070474162704722
:10382000C16270470146486A70470146088D70477B
:1038300021B1028842F00202028004E002884FF6C1
:10384000FD731A400280704721B1028842F00402E1
:10385000028004E002884FF6FB731A400280704732
:1038600021B1028842F08002028004E002884FF613
:103870007F731A400280704702884FF6F7731A4030
:10388000028002880A430280704702884FF6FF4395
:103890001A40028002880A430280704721B10288E0
:1038A00042F00102028004E002884FF6FE731A40E3
:1038B0000280704770B5002400220023058C4FF66B
:1038C000FE7635400584028C8388048B4FF68F7515
:1038D0002C40B51E2C400D882C43751E2A408D8926
:1038E0002A434D882A43524DA84202D0564DA84241
:1038F00013D14FF6F7752A40CD892A434FF6FB7551
:103900002A408D882A434FF6FF652B404FF6FF551E
:103910002B400D8A2B434D8A2B43838004838D6873
:103920004563028470BD70B5002400220023058C1D
:103930004FF6EF7635400584028C8388048B48F679
:10394000FF752C404FF6FF452C400D884FF6FF7653
:1039500006EA05252C434FF6DF752A408D8906EAD5
:1039600005152A434D8806EA05152A43304DA8421D
:1039700002D0354DA8421DD14FF67F752A40CD8922
:103980004FF6FF7606EA05152A434FF6BF752A4023
:103990008D8806EA05152A434FF6FF352B404FF276
:1039A000FF752B400D8A06EA85052B434D8A06EAF2
:1039B00085052B43838004838D688563028470BDF5
:1039C00070B5002400220023058C4FF6FF663540B9
:1039D0000584028C8388848B4FF68F752C404FF6BC
:1039E000FC752C400D882C434FF6FF552A408D89DD
:1039F0004FF6FF7606EA05252A434D8806EA052597
:103A00002A430B4DA84202D00F4DA84238D14FF2A5
:103A1000FF752A40CD894FF6FF7606EA05252A4331
:103A20004FF6FF352A408D8806EA05252A4319E01E
:103A3000000001400004004000080040000C00406D
:103A4000001000400014004000040140004001400C
:103A5000004401400048014000180040001C0040A4
:103A6000002000404EF6FF752B404DF6FF752B40B1
:103A70000D8A06EA05152B434D8A06EA05152B43E8
:103A8000838084838D68C563028470BD70B5002215
:103A900000230024058C4EF6FF7635400584038C08
:103AA0008488828B48F6FF752A404FF6FF452A40EE
:103AB0000D884FF6FF7606EA05252A434DF6FF7579
:103AC0002B408D8906EA05352B434D8806EA0535DE
:103AD0002B43FE4DA84202D0FD4DA84208D14BF623
:103AE000FF752C400D8A4FF6FF7606EA85152C43AC
:103AF000848082838D680564038470BD0021018009
:103B00004180818081608181C181018241827047D1
:103B100070B50346002000241846183001258D405A
:103B2000ACB21D8CA5431D8409B108290AD100EB54
:103B3000610005684FF68F763540056005681543CE
:103B400005600FE00D1FC5F34E052844056848F6D3
:103B5000FF763540056005684FF6FF7606EA0226D7
:103B60003543056070BD4163704781637047C16331
:103B70007047016470470A460021018B4FF68F732E
:103B800019401143018370470A460021018B48F612
:103B9000FF7319404FF6FF7303EA022319430183B1
:103BA00070470A460021818B4FF68F7319401143ED
:103BB000818370470A460021818B48F6FF731940C4
:103BC0004FF6FF7303EA02231943818370470A46C5
:103BD0000021018B4FF6F7731940114301837047A1
:103BE0000A460021018B4FF2FF7319404FF6FF7315
:103BF00003EA02231943018370470A460021818B9F
:103C00004FF6F77319401143818370470A4600212C
:103C1000818B4FF2FF7319404FF6FF7303EA0223C3
:103C20001943818370470A460021018B4FF6FB73CD
:103C300019401143018370470A460021018B4FF65A
:103C4000FF3319404FF6FF7303EA02231943018340
:103C500070470A460021818B4FF6FB7319401143D0
:103C6000818370470A460021818B4FF6FF3319404C
:103C70004FF6FF7303EA02231943818370470A4614
:103C80000021018B4FF67F73194011430183704768
:103C90000A460021018BC1F30E014FF6FF7303EAC0
:103CA00002231943018370470A460021818B4FF696
:103CB0007F7319401143818370470A460021818B2D
:103CC000C1F30E014FF6FF7303EA02231943818308
:103CD00070470A460021018C4FF6FD7319401143CD
:103CE000018470470A460021018C4FF6F773194092
:103CF0001143018470470A460021018C4FF6DF739F
:103D000019404FF6FF7303EA021319430184704709
:103D10000A460021018C4FF67F7319404FF6FF735E
:103D200003EA02131943018470470A460021018CFB
:103D30004FF6FF5319404FF6FF7303EA022319436E
:103D4000018470470A460021018C4FF2FF7319402D
:103D50004FF6FF7303EA02231943018470470A46B2
:103D60000021018C4DF6FF7319404FF6FF7303EAF3
:103D7000023319430184704730B5002301248C407D
:103D8000A3B2048C9C430484048C02FA01F5ADB206
:103D90002C43048430BD30B5002304248C40A3B2EE
:103DA000048C9C430484048C02FA01F5ADB22C43CC
:103DB000048430BD828B4FF2FF331A408283828BA2
:103DC0004FF6FF7303EA01231A4382837047F0B56D
:103DD0000C461546002100220026078C4EF6FF7C7B
:103DE00007EA0C070784818B028C4FF6FF7707EAFE
:103DF000043640F6FF4739404FF6FF7707EA0527BC
:103E000039434FF6FF7707EA0337394345F6FF7723
:103E10003A4046F480573A4381830284F0BD828B56
:103E20004FF6F3731A408283828B0A438283704772
:103E3000F0B50C461546002100220026078C4FF6EF
:103E4000FF6C07EA0C070784818B028C4FF6FF7723
:103E500007EA04264FF60C7739404FF6FF7707EA5A
:103E600003172F4339434FF2FF573A4046F4807708
:103E70003A4381830284F0BD028B4FF2FF331A4034
:103E80000283028B4FF6FF7303EA01231A43028376
:103E90007047F0B50C461546002100220026078C1D
:103EA0004FF6EF7C07EA0C070784018B028C4FF674
:103EB000FF7707EA041640F6FF4739404FF6FF77D1
:103EC00007EA033739434FF6FF7703E0000001406C
:103ED0000004014007EA052739434FF65F773A406F
:103EE00046F010073A4301830284F0BD028B4FF67F
:103EF000F3731A400283028B0A4302837047F0B5C2
:103F00000C46154600210022068C4FF6FE773E40F7
:103F10000684018B028C4FF60C7631407E1C06EA3B
:103F200003162E4331434FF6F576324044F0010636
:103F3000324301830284F0BD70B505460C462088EB
:103F400050B92389A28861882846FFF7D8FFE18805
:103F50002846FFF7CBFF25E0208804280AD12389D3
:103F6000A28861882846FFF794FFE1882846FFF77A
:103F700083FF17E0208808280AD12389A288618856
:103F80002846FFF755FFE1882846FFF748FF09E07C
:103F90002389A28861882846FFF719FFE18828460F
:103FA000FFF708FF70BD0021018041800121818061
:103FB0000021C180018170472DE9F04105460C4682
:103FC00000260127608808B9022600E00026A088A4
:103FD000012801D1022700E001272088A0B9238908
:103FE000A28861882846FFF78AFFE1882846FFF704
:103FF0007DFF23893A4631462846FFF74AFFE1888C
:104000002846FFF739FF13E02389A28861882846F4
:10401000FFF73FFFE1882846FFF72EFF23893A4646
:1040200031462846FFF76BFFE1882846FFF75EFF21
:10403000BDE8F0810146486B70470146886B7047C8
:104040000146C86B70470146086C70470A884B8868
:104050001A438B881A43CB881A430B891A434B891E
:104060001A438B891A43A0F844207047002101802D
:1040700041808180C180018141818181704731B15E
:10408000B0F8442042F40042A0F8442005E0B0F823
:104090004420C2F30E02A0F84420704721B1828868
:1040A00042F00402828004E082884FF6FB731A40DB
:1040B0008280704721B1828842F00102828004E050
:1040C00082884FF6FE731A40828070471AB1838946
:1040D0000B43838102E083898B4383817047818214
:1040E000704702460020138A0B400BB1012000E00C
:1040F00000207047CA430282704730B50246002054
:1041000000230024158A05EA0103958905EA0104C4
:1041100013B10CB1012000E0002030BDCA4302827F
:10412000704741EA0203A0F8483070471AB183890A
:104130000B43838102E083898B438381704721B1E4
:10414000828842F00802828004E082884FF6F7738A
:104150001A408280704701894FF6F8721140018140
:1041600070470A46002101894FF68F7319401143A9
:104170000181704730B504460D4629462046FFF7B9
:10418000F0FF208940F00700208130BD2DE9F0418B
:1041900004460D4616461F46602D06D13B460122B9
:1041A00031462046FFF775FE05E03B4601223146C9
:1041B0002046FFF7A4FE29462046FFF7D2FF2089BC
:1041C00040F007002081BDE8F08130B50C460021A9
:1041D0000189C9B24FF6FF7505EA0325154325434A
:1041E0002943018130BD2DE9F04105460E461746B1
:1041F0009846002443463A4631462846FFF7E5FFF5
:104200002C894FF6F870044044F007044FF68F7085
:10421000044044F070042C81BDE8F081F0B5044600
:104220000D4616461F463B46324629462046FFF7B6
:10423000CCFF208940F480402081F0BD82884FF679
:104240008F731A40828082880A4382807047028975
:104250004FF6F8731A40028102890A4302817047BF
:1042600002894FF67F731A40028102890A43028154
:104270007047F0B50C4615461E460021002200236B
:104280000189028B038C4FF6F877394021434FF6B2
:10429000FC473A4040F201173A434FF6DD773B4086
:1042A0004FF6FF7707EA06172F433B43018102834E
:1042B0000384F0BD21B1828842F08002828004E054
:1042C00082884FF67F731A4082807047A0F85010A2
:1042D0007047000010B50446F748844208D1012118
:1042E0001020FEF780FD00211020FEF77CFD3EE04F
:1042F000F248844209D101214804FEF763FD002100
:104300004FF40030FEF75EFD31E0ED48844209D104
:1043100001218804FEF756FD00214FF48020FEF7AE
:1043200051FD24E0E748844209D10121C804FEF789
:1043300049FD00214FF40020FEF744FD17E0E2485C
:10434000844209D101210805FEF73CFD00214FF40C
:104350008010FEF737FD0AE0DC48844207D10121D6
:104360002020FEF740FD00212020FEF73CFD10BD7F
:104370002DE9FF4705460E460024A14600BFA04692
:10438000B08900B100BF2C8A24F44054F088044363
:104390002C82AC8941F20C608443B0883189084397
:1043A000718908430443AC81AC8A24F44074B08919
:1043B0000443AC826846FEF796FBBF48854202D0B4
:1043C000C248854202D1DDF80C9001E0DDF808908A
:1043D000A88900F4004040B109EBC90000EB0910C6
:1043E00031684900B0FBF1F707E009EBC90000EBC9
:1043F000091031688900B0FBF1F76420B7FBF0F0D9
:1044000004012009642101FB1078A88900F4004010
:1044100040B1322000EBC800B0FBF1F000F0070023
:10442000044308E0322000EB08106421B0FBF1F0F7
:1044300000F00F0004432C81BDE8FF874FF41651B4
:10444000016000218180C18001810C214181002116
:104450008181704710B502460020108A20F47060F8
:104460000B884C8823438C882343CC8823431843F0
:10447000108210BD0021018041808180C180704781
:1044800021B1828942F40052828104E082894DF692
:10449000FF731A4082817047028B02F47F420283CD
:1044A000028B0A430283704721B1828942F40042A1
:1044B000828103E08289C2F30E028281704721B1BA
:1044C000828A42F40062828204E0828A4FF2FF73A1
:1044D0001A4082827047C1F3080282807047014609
:1044E0008888C0F308007047028A4FF6F0731A40BC
:1044F0000282028A0A430282704721B1828942F015
:104500000202828104E082894FF6FD731A408281A3
:10451000704782894FF2FF731A40828182890A4371
:1045200082817047028A4FF6DF731A400282028A44
:104530000A430282704721B1028A42F48042028219
:1045400004E0028A4BF6FF731A40028270478189A9
:1045500041F001018181704721B1828A42F0080255
:10456000828204E0828A4FF6F7731A408282704793
:10457000028BD2B20283028B42EA0122028370478D
:1045800021B1828A42F02002828204E0828A4FF6C0
:10459000DF731A408282704721B1828A42F0100292
:1045A000828204E0828A4FF6EF731A40828270475B
:1045B000828A4FF6FB731A408282828A0A43828281
:1045C000704721B1828A42F00202828204E0828A2C
:1045D0004FF6FD731A40828270471AB1838A0B43EB
:1045E000838202E0838A8B4383827047F0B503465F
:1045F000002400260025002040F66A17B94200D1A9
:1046000000BF1846C1F3421401F01F06012707FA44
:1046100006F5012C01D10C3004E0022C01D1103040
:1046200000E014301AB107682F43076002E0076802
:10463000AF430760F0BD02460020B1F5007F00D116
:1046400000BF13880B400BB1012000E00020704731
:1046500001F40072B2F5007F00D100BFCA430280AE
:10466000704770B50246002400230025002040F664
:104670006A16B14200D100BFC1F3421501F01F0319
:10468000012606FA03F3012D02D19689334006E094
:10469000022D02D1168A334001E0968A33400C1273
:1046A000012606FA04F41688344013B10CB1012037
:1046B00000E0002070BD00000010014000440040F8
:1046C00000480040004C00400050004000140140F1
:1046D00010B50022002340F66A14A14200D100BFA9
:1046E0000A1201249440A3B2DC43048010BD0000F0
:1046F0000648804706480047FEE7FEE7FEE7FEE77C
:10470000FEE7FEE7FEE7FEE7FEE7FEE78D020008B4
:10471000890100080146002002E0491C421CD0B279
:104720000A78002AF9D170472DE9F04105460E4676
:1047300014460027FA48007820B11120207000208C
:10474000BDE8F0812878012808D0022807D0032886
:1047500002D0042804D100E000BF00BF00BF03E086
:10476000012020700020EBE700BF03F037F8074678
:10477000286930603068FFF7CDFF8046384603F087
:1047800031F8002020704046DAE72DE9F041054677
:104790000E4614460027E248007818B11220207017
:1047A000BDE8F0812878012808D0022807D0032826
:1047B00002D0042804D100E000BF00BF00BF02E027
:1047C00001202070ECE700BF03F008F807462E61D7
:1047D000384603F007F80020207000BFE0E7F0B58E
:1047E000024612F8384F95785678383A0B461868D2
:1047F0000FE000F10B073F5DB74300F10B0C0CF825
:10480000047067463F5D17B9877AAF4387721B1DF7
:1048100018680028EDD1F0BDC249C34A1278885CFF
:10482000C249095CBF4A515C01EBC001C04A11702A
:10483000704710B5002402F0D1FF0446B848007854
:10484000F8B9BC480078E0B9FFF7E6FFBA48B849C4
:10485000097850F82100B9490860B5480078B8498E
:10486000097888420DD0B5480068C06B401CB34938
:104870000968C863B3480068401CB249086002F088
:10488000C4FF204602F0AEFF10BD70B50146002403
:10489000AD4D2D68EC61AC4C246821620B46186864
:1048A0001BE0A94C246894F8385000F10B04645DB7
:1048B000A54D2D6895F839502C43A34D2D6895F8DA
:1048C000386000F10B05AC55847A9F4D2D6895F842
:1048D0003A502C4384721B1D18680028E1D19A4C71
:1048E000246894F83820914CA45C974D2D6895F875
:1048F0003950AC438D4DAC542C46A45C44B9924C19
:10490000246894F83A50884C2478AC43864D2C7037
:1049100070BD2DE9FF4F83B081460E461546DDF888
:104920004080002000903060CA46DAF8004018E06D
:104930002078062807D2DFE800F006040503070800
:104940000AE009E008E000BF00BF012088F800008D
:10495000002007B0BDE8F08F00BF0AF1040ADAF8C2
:104960000040002CE4D16E48007820B1022088F885
:1049700000000020EDE76F48007820B10D2088F896
:1049800000000020E5E702F029FF009000200290DF
:1049900083460190CA46DAF800405DE02078062898
:1049A00049D2DFE800F048172A03494A208960B15C
:1049B0002089401E208110C601200290002001C5E0
:1049C0000BF101001FFA80FB03E0019840F00100A9
:1049D00001903CE0606858B1606801C500206060EB
:1049E00010C6012002900BF101001FFA80FB03E0CA
:1049F000019840F00200019029E06768F88AA8B1A8
:104A00003969081D3861086801C5B9683869884284
:104A100001D178683861F88A401EF88210C60120FA
:104A200002900BF101001FFA80FB03E0019840F0B7
:104A3000040001900BE000BF00BF009802F0D2FE1E
:104A400000203060012088F80000584681E700BF50
:104A50000AF1040ADAF80040002C9FD102980128DC
:104A600009D100203060009802F0BCFE002088F8D8
:104A7000000058466DE73448006890F8340001990A
:104A800041F0800108433049096881F83400002072
:104A90002D49096881F835002B4906980968086393
:104AA0004846FFF7F2FE009802F09CFEFFF7C1FEB9
:104AB00002F094FE00902448006890F8350020B180
:104AC00001281BD0022818D100E000BF1E48006852
:104AD000C4693CB110C6002030600BF101001FFA20
:104AE00080FB09E001201849096881F83500494632
:104AF00015480068FFF773FE06E000BF49461248FC
:104B00000068FFF76CFE00BF00BF0F48006890F818
:104B10003500D8B1012842D002283FD138E000004A
:104B20004D00002058370808510000205200002096
:104B3000500000204E0000202411002068000020BA
:104B40004F0000203400002060000020207806285C
:104B50000DD2DFE800F00C0607030D0E002001C5A2
:104B600011E000BFF7480068406A01C50BE000BFD4
:104B700000BF009802F036FE00203060012088F867
:104B800000005846E5E600BF002088F800000CE071
:104B9000002001C50E2088F8000006E000BF0020BC
:104BA00001C50A2088F8000000BF00BF0020E549C9
:104BB000096881F83400E349096881F83500E14962
:104BC0000968C861DF4909680862DE490968486206
:104BD000009802F007FE5846BBE67CB5002514E0BD
:104BE0006946284601F0C4FF064666B9D64850F823
:104BF000254044B1012C06D0D4E9020100EB81002C
:104C0000A0640198E064681CC5B2202DE8D97CBD81
:104C1000002402E0142002F0BBF8CC480078002801
:104C2000F8D0CB4800686421B0FBF1F0C8490860B7
:104C30000846006828B90020C6490870FF2001F026
:104C4000D9FF00BF02F0CAFD0446C3480068C3494B
:104C500008600020C0490860204602F0C3FDBF483C
:104C60000068BB490968B0FBF1F0C0F16400B949C4
:104C7000087002F001FDFFF7B0FF0A2002F088F88B
:104C8000E0E700B587B0002003214023CDE90230E2
:104C9000CDE90410B2484FF6FE711F2300F1FC026B
:104CA000CDE900100021AFF2970001F06AFD06AADD
:104CB000ACA11F2001F0DEFE07B000BD002400BF44
:104CC00002F08CFD0446A4480068401CA24908601C
:104CD000204602F087FD02F0C5FCF1E700B587B081
:104CE000002003212023CDE90230CDE90410A148A2
:104CF0004FF6FF7100F17C02CDE900100021AFF208
:104D0000430001F03EFD06AA9BA1202001F0B2FE67
:104D100007B000BD04E0002200F8012B4A1E91B24A
:104D20000029F8D1704730B54FF4FA619648FFF783
:104D3000F1FF954B03F11405002408E000201870E2
:104D40005D6092A0186114331435601C84B2632C2A
:104D5000F4D30020187058608CA018618A488C49E0
:104D6000086030BD30B54FF4FD618A48FFF7D2FFCF
:104D700084217548FFF7CEFF864B03F15C050024C4
:104D800006E05D6181A018655C335C35601CC4B2CF
:104D9000152CF6D3002058617CA0186500207E49B0
:104DA00008607C487D49086030BD00227C4B1A7049
:104DB0007C49002004E0002201F8012B421CD0B203
:104DC0000528F8D30022784B1A70784B1A70784B6C
:104DD0001A605C4B1A60704700207649086076497B
:104DE00008707649087076490870764908707649E7
:104DF0000860594908605949086055490860534995
:104E00000870704710B502F01BFCFFF7E5FFFFF7D5
:104E1000CCFFFFF7A7FFFFF786FF00F0A7FE01F02A
:104E2000A2F9FFF75BFFFFF72CFF02F08BFB02F00C
:104E30000BFC10BD63480078012808D15E4800785B
:104E4000FF2804D25C480078401C5B49087070471A
:104E500010B500245B480078012830D102F0BEFC78
:104E600004465548007820B153480078401E524906
:104E7000087051480078F8B950480078E0B9FFF759
:104E8000CBFC31484949097850F82100484908606D
:104E9000464800784449097888420DD04448006863
:104EA000C06B401C42490968C86347480068401C01
:104EB0004549086002F0AEFC204602F093FC10BDAC
:104EC00010B500243F480078012811D102F086FC7B
:104ED00004463948007840B938480078FF2804D2A1
:104EE00036480078401C35490870204602F07AFCAC
:104EF00010BD10B5002433480078012821D102F0FC
:104F00006DFC04462D480078C0B12C480078401E46
:104F10002A4908700846007860B92748007828B9FF
:104F2000204602F05FFCFFF784FC0AE0204602F016
:104F300059FC06E0204602F055FC02E0204602F053
:104F400051FC10BD60000020241100204C00002006
:104F500044000020400000205C00002048000020A9
:104F6000A40F002075432F4F532D494920537461DE
:104F700074000000A410002075432F4F532D4949A1
:104F80002049646C65000000840700203F00000099
:104F900038000020A81100206C00002064000020D0
:104FA00051000020520000204F000020500000203F
:104FB00068000020780000204D0000204E000020F6
:104FC00058000020570000203400002010B5EA48A7
:104FD000007890B9FFF720FCE8480078E8490870AD
:104FE000E848E649097850F82100E7490860084692
:104FF0000068E649086002F0F8FB10BD10B5002417
:10500000022001F0C5FE02F0E9FB04460020E04961
:105010000860204602F0E6FB0A2001F0B9FE02F02B
:10502000DDFB0446DA480068DA4908600120DA4905
:105030000870204602F0D6FB10BD70B5002602F0C5
:105040007AFB02F0CBFB0646D4480068401CD349EB
:105050000860304602F0C6FBC7480078012853D1EB
:10506000CF48007820B1012804D0022809D103E0FC
:1050700001250BE0002509E001250120C849087041
:1050800004E001250020C649087000BF00BF05B933
:1050900070BDC448046833E002F0A0FB0646206BF4
:1050A00050B3206B401E2063206B28BB94F8340063
:1050B00000F0370040B114F8340F20F037002070B2
:1050C00001206070343C02E0002084F8350094F840
:1050D000340000F0080078B93834A078B249097873
:1050E0000843B14908702078B049085C61780843EA
:1050F00014F83819AD4A50546469304602F072FB16
:1051000094F836002028C7D100BFC1E740F2211033
:105110007047704710B590F8382001F10B039B5C85
:1051200090F83940A34301F10B04A35423469B5C40
:1051300023B98B7A90F83A40A3438B7210BD2DE9C6
:10514000F04F05460F4690469946A87A98490E5C5E
:1051500005F10B00805D11F800B00BEBC60000F00C
:10516000FF0A884850F82A4000202434E060276075
:10517000207C20EA0800207484F81190207C243CD4
:1051800000F0080068B994F83A00874909780843A4
:10519000854908708548805D94F839100843834933
:1051A000885529462046FFF7B5FF206A20B12046E2
:1051B000216AFFF714FBE5615046BDE8F08F10B59A
:1051C000724A1268D061714A126892F8383000F160
:1051D0000B02D25C6D4B1B6893F839301A436B4B52
:1051E0001B6893F8384000F10B031A55827A674B1D
:1051F0001B6893F83A301A438272644A126892F834
:1052000038106A4A525C614B1B6893F839309A43F4
:10521000664B5A541A46525C42B95C4A126892F87C
:105220003A30614A12789A435F4B1A7010BD0023DE
:10523000837200F10B01002204E0002301F8013B1E
:10524000531CDAB2052AF8D3704705E011F8013B88
:1052500000F8013B531E9AB2002AF7D170472DE99E
:10526000F84F05460F4690469946DDE90AAB002007
:10527000009002F0B3FA00904E480468002C76D0FB
:105280001C3454F8080C4B490860009802F0AAFA44
:1052900044F81C7CA576002020766076606144F896
:1052A00018BC44F810AC44F8148C0C9824F80C0C7E
:1052B00024F80A9C0020E077E810207705F007002A
:1052C000E076217F01208840A077E17E01208840A0
:1052D0006077002020606060E060A0602062A062D3
:1052E0006062E0622063AFF25C3060631C3C0026C9
:1052F00006E0002104F1540040F82610701CC6B2EC
:10530000002EF6D0204602F010FA204602F09DF959
:1053100002F064FA00901B4840F8254021480068DC
:1053200060610020A0611F48006810B11D4800683E
:1053300084611C4804603834A0781B49097808430C
:105340001949087020781949085C6178084314F8F5
:105350003819164A505418480078401C16490870ED
:10536000009802F03FFA0020BDE8F88FFFE70098B0
:1053700002F038FA4220F7E75700002050000020E2
:105380004F00002024110020680000206000002051
:105390005C000020440000204C0000207800002029
:1053A000700000206C0000205100002052000020FE
:1053B0005837080864000020580000202DE9F05FED
:1053C00004460F4691461E464FF0000B20780528F4
:1053D00004D0012030700020BDE8F09F09F0800A61
:1053E000BAF1000F04D029F080094FF0010801E064
:1053F0004FF000080020307002F0F0F98346B9F158
:10540000000F2CD0B9F1010F3BD0B9F1020F03D03E
:10541000B9F1030F46D111E0A06800EA0705BD42CB
:1054200006D1B8F1010F05D1A068A843A06001E042
:1054300070203070584602F0D5F93AE0A06800EAD2
:10544000070535B1B8F1010F05D1A068A843A060E8
:1054500001E070203070584602F0C4F929E0A068DD
:1054600027EA0005BD4206D1B8F1010F05D1A068B9
:105470002843A06001E070203070584602F0B2F975
:1054800017E0A06827EA000535B1B8F1010F05D192
:10549000A0682843A06001E070203070584602F0F8
:1054A000A1F906E0584602F09DF900256F20307002
:1054B00000BF00BF28468FE72DE9F04106460D46A4
:1054C0000027FA48007820B1102028700020BDE89D
:1054D000F08102F083F90746F548046884B100685A
:1054E0004068F349086005202070A66000206060D5
:1054F000F0A0E060384602F075F90020287004E062
:10550000384602F06FF9722028702046DFE730B588
:1055100001464A6808682AB9CC68606028B100254D
:10552000456002E0106000B142608B6800259D621A
:1055300030BDF0B506460F46B46800202C346060DC
:105540002760207A20F02000207200206072207AEC
:105550002C3C88B93834A078D74909780843D64913
:1055600008702078D549085C6178084314F8381928
:10557000D24A5054012500E000253046FFF7C7FF0E
:105580002846F0BD2DE9F0470446894615464FF000
:10559000000AC648007820B10F2028702046BDE8D8
:1055A000F0872078052803D0012028702046F6E7F0
:1055B00002F014F98246606808B1012700E0002774
:1055C000B9F1000F03D0B9F1010F3CD119E08FB947
:1055D000B8A0E06000202070B5480068606000203E
:1055E000A060B3480460504602F0FCF80020287028
:1055F000002605E0504602F0F5F8492028702646BE
:1056000028E0D4F8048005E000214046FFF791FF30
:10561000D8F80080B8F1000FF6D1A6A0E060002015
:105620002070A348006860600020A060A04804606B
:10563000504602F0D7F8012F01D1FFF7FAF8002009
:105640002870002606E0504602F0CCF807202870AB
:10565000264600BF00BF3046A1E72DE9F0410546D0
:105660000E46144600279148007820B11120207082
:105670000020BDE8F08102F0B1F80746287805283F
:1056800006D0384602F0AEF8012020700020F0E786
:10569000E86830603068FFF73DF88046384602F031
:1056A000A1F8002020704046E3E72DE9F0410546CF
:1056B0000E46144600277D48007818B1122020704D
:1056C000BDE8F08102F08AF807462878052805D061
:1056D000384602F087F801202070F1E7EE60384686
:1056E00002F080F80020207000BFE9E7F0B5144612
:1056F000059E734F3F6897F8347047F02007DFF836
:10570000C0C1DCF800C08CF834700027DFF8B0C1ED
:10571000DCF800C08CF83570694F3F683E63684F15
:105720003F68B9620C610B75654F3F688F604768D1
:105730000F6000274F60C860456805B1696041602F
:105740005F4F3F6897F838205C4FBF5CDFF870C14F
:10575000DCF800C09CF839C027EA0C07DFF85CC110
:105760000CF802706746BF5C5FB9554F3F6897F809
:105770003AC0514F3F7827EA0C07DFF83CC18CF85C
:105780000070F0BD2DE9F04F89B005460F469146F7
:105790009A46129E002001904448007828B10220C9
:1057A0003070002009B0BDE8F08F4648007818B18D
:1057B0000D2030700020F5E72878052803D001205F
:1057C00030700020EEE709F0800BBBF1000F04D031
:1057D00029F080094FF0010801E04FF0000801F0C6
:1057E000FDFF0190B9F1000F4AD0B9F1010F78D057
:1057F000B9F1020F03D0B9F1030F71D120E0A8680D
:1058000000EA0704BC420FD1B8F1010F02D1A86829
:10581000A043A8602A480068C462019801F0E2FF32
:10582000002030702046BDE74B463A4603A9284683
:10583000CDF800A0FFF75AFF019801F0D3FF78E000
:10584000A86800EA07047CB1B8F1010F02D1A8688A
:10585000A043A8601A480068C462019801F0C2FF22
:105860000020307020469DE74B463A4603A9284663
:10587000CDF800A0FFF73AFF019801F0B3FF58E020
:10588000A86827EA0004BC421ED1B8F1010F02D17A
:10589000A8682043A8600A480068C462019801F023
:1058A000A1FF0020307020467CE71AE04D00002068
:1058B0003C0000203F00000051000020520000206A
:1058C000600000204E0000204B463A4603A92846BF
:1058D000CDF800A0FFF70AFF019801F083FF28E050
:1058E0001FE0A86827EA00047CB1B8F1010F02D1DB
:1058F000A8682043A860AD480068C462019801F020
:1059000071FF0020307020464CE74B463A4603A911
:105910002846CDF800A0FFF7E9FE019801F062FFEC
:1059200007E0019801F05EFF00246F2030702046F0
:1059300038E700BFFEF77DFF01F050FF01909B4864
:10594000006890F8350020B39848006890F835005A
:10595000029000209549096881F8350003A8FFF7F7
:10596000D6FD00209149096881F83400019801F0C2
:1059700039FF00240298012805D0022802D10E2008
:10598000307003E000BF0A20307000BF00BF204627
:1059900008E786480068C46AB8F1010F1ED1B9F162
:1059A000000F0ED0B9F1010F0CD0B9F1020F03D0E6
:1059B000B9F1030F0AD100E000BFA868A043A860B6
:1059C0000BE000BFA8682043A86006E0019801F042
:1059D00009FF6F2030700020E4E600BF019801F05D
:1059E00001FF002030702046DCE670B5002501F094
:1059F000F5FE05466D480068C46A284601F0F2FECF
:105A0000204670BD2DE9FC5F0446894692461E463D
:105A1000002000902078052804D00120307000205C
:105A2000BDE8FC9F01F0DAFE0090BAF1000F03D050
:105A3000BAF1010F0AD104E0A06820EA0900A060D1
:105A40000BE0A06840EA0900A06006E0009801F0C1
:105A5000C9FE712030700020E2E700BF4FF0000B5C
:105A6000656855E0287D40B3012838D0022802D06F
:105A7000032844D111E0A068296900EA01072869D8
:105A8000B84209D139462846FFF753FD8046B8F1A0
:105A9000010F01D14FF0010B38E0A068296900EA3D
:105AA00001074FB139462846FFF743FD8046B8F15C
:105AB000010F01D14FF0010B28E02869A16820EA0D
:105AC00001072869B84209D139462846FFF731FD58
:105AD0008046B8F1010F01D14FF0010B16E02869A3
